{
  "contractName": "ApesTraits",
  "abi": [
    {
      "inputs": [
        {
          "internalType": "string",
          "name": "_name",
          "type": "string"
        },
        {
          "internalType": "string",
          "name": "_symbol",
          "type": "string"
        },
        {
          "internalType": "string",
          "name": "_uri",
          "type": "string"
        }
      ],
      "stateMutability": "nonpayable",
      "type": "constructor"
    },
    {
      "anonymous": false,
      "inputs": [
        {
          "indexed": true,
          "internalType": "address",
          "name": "account",
          "type": "address"
        },
        {
          "indexed": true,
          "internalType": "address",
          "name": "operator",
          "type": "address"
        },
        {
          "indexed": false,
          "internalType": "bool",
          "name": "approved",
          "type": "bool"
        }
      ],
      "name": "ApprovalForAll",
      "type": "event"
    },
    {
      "anonymous": false,
      "inputs": [
        {
          "indexed": false,
          "internalType": "uint256",
          "name": "tokenId",
          "type": "uint256"
        },
        {
          "indexed": false,
          "internalType": "uint256",
          "name": "amount",
          "type": "uint256"
        },
        {
          "indexed": false,
          "internalType": "address",
          "name": "to",
          "type": "address"
        },
        {
          "indexed": false,
          "internalType": "address",
          "name": "operator",
          "type": "address"
        }
      ],
      "name": "Minted",
      "type": "event"
    },
    {
      "anonymous": false,
      "inputs": [
        {
          "indexed": false,
          "internalType": "uint256[]",
          "name": "ids",
          "type": "uint256[]"
        },
        {
          "indexed": false,
          "internalType": "uint256[]",
          "name": "amounts",
          "type": "uint256[]"
        },
        {
          "indexed": false,
          "internalType": "address",
          "name": "to",
          "type": "address"
        },
        {
          "indexed": false,
          "internalType": "address",
          "name": "operator",
          "type": "address"
        }
      ],
      "name": "MintedBatch",
      "type": "event"
    },
    {
      "anonymous": false,
      "inputs": [
        {
          "indexed": true,
          "internalType": "address",
          "name": "previousOwner",
          "type": "address"
        },
        {
          "indexed": true,
          "internalType": "address",
          "name": "newOwner",
          "type": "address"
        }
      ],
      "name": "OwnershipTransferred",
      "type": "event"
    },
    {
      "anonymous": false,
      "inputs": [
        {
          "indexed": true,
          "internalType": "address",
          "name": "operator",
          "type": "address"
        },
        {
          "indexed": true,
          "internalType": "address",
          "name": "from",
          "type": "address"
        },
        {
          "indexed": true,
          "internalType": "address",
          "name": "to",
          "type": "address"
        },
        {
          "indexed": false,
          "internalType": "uint256[]",
          "name": "ids",
          "type": "uint256[]"
        },
        {
          "indexed": false,
          "internalType": "uint256[]",
          "name": "values",
          "type": "uint256[]"
        }
      ],
      "name": "TransferBatch",
      "type": "event"
    },
    {
      "anonymous": false,
      "inputs": [
        {
          "indexed": true,
          "internalType": "address",
          "name": "operator",
          "type": "address"
        },
        {
          "indexed": true,
          "internalType": "address",
          "name": "from",
          "type": "address"
        },
        {
          "indexed": true,
          "internalType": "address",
          "name": "to",
          "type": "address"
        },
        {
          "indexed": false,
          "internalType": "uint256",
          "name": "id",
          "type": "uint256"
        },
        {
          "indexed": false,
          "internalType": "uint256",
          "name": "value",
          "type": "uint256"
        }
      ],
      "name": "TransferSingle",
      "type": "event"
    },
    {
      "anonymous": false,
      "inputs": [
        {
          "indexed": false,
          "internalType": "string",
          "name": "value",
          "type": "string"
        },
        {
          "indexed": true,
          "internalType": "uint256",
          "name": "id",
          "type": "uint256"
        }
      ],
      "name": "URI",
      "type": "event"
    },
    {
      "inputs": [
        {
          "internalType": "address",
          "name": "account",
          "type": "address"
        },
        {
          "internalType": "uint256",
          "name": "id",
          "type": "uint256"
        }
      ],
      "name": "balanceOf",
      "outputs": [
        {
          "internalType": "uint256",
          "name": "",
          "type": "uint256"
        }
      ],
      "stateMutability": "view",
      "type": "function"
    },
    {
      "inputs": [
        {
          "internalType": "address[]",
          "name": "accounts",
          "type": "address[]"
        },
        {
          "internalType": "uint256[]",
          "name": "ids",
          "type": "uint256[]"
        }
      ],
      "name": "balanceOfBatch",
      "outputs": [
        {
          "internalType": "uint256[]",
          "name": "",
          "type": "uint256[]"
        }
      ],
      "stateMutability": "view",
      "type": "function"
    },
    {
      "inputs": [
        {
          "internalType": "address",
          "name": "account",
          "type": "address"
        },
        {
          "internalType": "uint256",
          "name": "id",
          "type": "uint256"
        },
        {
          "internalType": "uint256",
          "name": "value",
          "type": "uint256"
        }
      ],
      "name": "burn",
      "outputs": [],
      "stateMutability": "nonpayable",
      "type": "function"
    },
    {
      "inputs": [
        {
          "internalType": "uint256",
          "name": "id",
          "type": "uint256"
        }
      ],
      "name": "exists",
      "outputs": [
        {
          "internalType": "bool",
          "name": "",
          "type": "bool"
        }
      ],
      "stateMutability": "view",
      "type": "function"
    },
    {
      "inputs": [
        {
          "internalType": "address",
          "name": "account",
          "type": "address"
        },
        {
          "internalType": "address",
          "name": "operator",
          "type": "address"
        }
      ],
      "name": "isApprovedForAll",
      "outputs": [
        {
          "internalType": "bool",
          "name": "",
          "type": "bool"
        }
      ],
      "stateMutability": "view",
      "type": "function"
    },
    {
      "inputs": [
        {
          "internalType": "address",
          "name": "",
          "type": "address"
        }
      ],
      "name": "isMinter",
      "outputs": [
        {
          "internalType": "bool",
          "name": "",
          "type": "bool"
        }
      ],
      "stateMutability": "view",
      "type": "function"
    },
    {
      "inputs": [],
      "name": "name",
      "outputs": [
        {
          "internalType": "string",
          "name": "",
          "type": "string"
        }
      ],
      "stateMutability": "view",
      "type": "function"
    },
    {
      "inputs": [],
      "name": "owner",
      "outputs": [
        {
          "internalType": "address",
          "name": "",
          "type": "address"
        }
      ],
      "stateMutability": "view",
      "type": "function"
    },
    {
      "inputs": [],
      "name": "renounceOwnership",
      "outputs": [],
      "stateMutability": "nonpayable",
      "type": "function"
    },
    {
      "inputs": [
        {
          "internalType": "address",
          "name": "from",
          "type": "address"
        },
        {
          "internalType": "address",
          "name": "to",
          "type": "address"
        },
        {
          "internalType": "uint256[]",
          "name": "ids",
          "type": "uint256[]"
        },
        {
          "internalType": "uint256[]",
          "name": "amounts",
          "type": "uint256[]"
        },
        {
          "internalType": "bytes",
          "name": "data",
          "type": "bytes"
        }
      ],
      "name": "safeBatchTransferFrom",
      "outputs": [],
      "stateMutability": "nonpayable",
      "type": "function"
    },
    {
      "inputs": [
        {
          "internalType": "address",
          "name": "from",
          "type": "address"
        },
        {
          "internalType": "address",
          "name": "to",
          "type": "address"
        },
        {
          "internalType": "uint256",
          "name": "id",
          "type": "uint256"
        },
        {
          "internalType": "uint256",
          "name": "amount",
          "type": "uint256"
        },
        {
          "internalType": "bytes",
          "name": "data",
          "type": "bytes"
        }
      ],
      "name": "safeTransferFrom",
      "outputs": [],
      "stateMutability": "nonpayable",
      "type": "function"
    },
    {
      "inputs": [
        {
          "internalType": "address",
          "name": "operator",
          "type": "address"
        },
        {
          "internalType": "bool",
          "name": "approved",
          "type": "bool"
        }
      ],
      "name": "setApprovalForAll",
      "outputs": [],
      "stateMutability": "nonpayable",
      "type": "function"
    },
    {
      "inputs": [
        {
          "internalType": "string",
          "name": "baseURI",
          "type": "string"
        }
      ],
      "name": "setURI",
      "outputs": [],
      "stateMutability": "nonpayable",
      "type": "function"
    },
    {
      "inputs": [
        {
          "internalType": "bytes4",
          "name": "interfaceId",
          "type": "bytes4"
        }
      ],
      "name": "supportsInterface",
      "outputs": [
        {
          "internalType": "bool",
          "name": "",
          "type": "bool"
        }
      ],
      "stateMutability": "view",
      "type": "function"
    },
    {
      "inputs": [],
      "name": "symbol",
      "outputs": [
        {
          "internalType": "string",
          "name": "",
          "type": "string"
        }
      ],
      "stateMutability": "view",
      "type": "function"
    },
    {
      "inputs": [
        {
          "internalType": "uint256",
          "name": "id",
          "type": "uint256"
        }
      ],
      "name": "totalSupply",
      "outputs": [
        {
          "internalType": "uint256",
          "name": "",
          "type": "uint256"
        }
      ],
      "stateMutability": "view",
      "type": "function"
    },
    {
      "inputs": [
        {
          "internalType": "uint256",
          "name": "",
          "type": "uint256"
        }
      ],
      "name": "traitLimit",
      "outputs": [
        {
          "internalType": "uint256",
          "name": "",
          "type": "uint256"
        }
      ],
      "stateMutability": "view",
      "type": "function"
    },
    {
      "inputs": [
        {
          "internalType": "address",
          "name": "newOwner",
          "type": "address"
        }
      ],
      "name": "transferOwnership",
      "outputs": [],
      "stateMutability": "nonpayable",
      "type": "function"
    },
    {
      "inputs": [
        {
          "internalType": "address",
          "name": "to",
          "type": "address"
        },
        {
          "internalType": "uint256",
          "name": "tokenId",
          "type": "uint256"
        },
        {
          "internalType": "uint256",
          "name": "amount",
          "type": "uint256"
        }
      ],
      "name": "mint",
      "outputs": [],
      "stateMutability": "nonpayable",
      "type": "function"
    },
    {
      "inputs": [
        {
          "internalType": "address",
          "name": "to",
          "type": "address"
        },
        {
          "internalType": "uint256[]",
          "name": "ids",
          "type": "uint256[]"
        },
        {
          "internalType": "uint256[]",
          "name": "amounts",
          "type": "uint256[]"
        }
      ],
      "name": "mintBatch",
      "outputs": [],
      "stateMutability": "nonpayable",
      "type": "function"
    },
    {
      "inputs": [
        {
          "internalType": "uint256",
          "name": "tokenId",
          "type": "uint256"
        },
        {
          "internalType": "uint256",
          "name": "limit",
          "type": "uint256"
        }
      ],
      "name": "setTraitLimit",
      "outputs": [],
      "stateMutability": "nonpayable",
      "type": "function"
    },
    {
      "inputs": [
        {
          "internalType": "uint256[]",
          "name": "tokenIds",
          "type": "uint256[]"
        },
        {
          "internalType": "uint256[]",
          "name": "limits",
          "type": "uint256[]"
        }
      ],
      "name": "bulkSetTraitLimit",
      "outputs": [],
      "stateMutability": "nonpayable",
      "type": "function"
    },
    {
      "inputs": [
        {
          "internalType": "address",
          "name": "operator",
          "type": "address"
        },
        {
          "internalType": "bool",
          "name": "status",
          "type": "bool"
        }
      ],
      "name": "setIsMinter",
      "outputs": [],
      "stateMutability": "nonpayable",
      "type": "function"
    },
    {
      "inputs": [
        {
          "internalType": "uint256",
          "name": "_id",
          "type": "uint256"
        }
      ],
      "name": "uri",
      "outputs": [
        {
          "internalType": "string",
          "name": "",
          "type": "string"
        }
      ],
      "stateMutability": "view",
      "type": "function"
    }
  ],
  "bytecode": "0x60806040523480156200001157600080fd5b5060405162004da938038062004da983398181016040528101906200003791906200030d565b8062000049816200009760201b60201c565b506200006a6200005e620000ac60201b60201c565b620000b460201b60201c565b82600590816200007b919062000611565b5081600690816200008d919062000611565b50505050620006f8565b8060029081620000a8919062000611565b5050565b600033905090565b6000600460009054906101000a900473ffffffffffffffffffffffffffffffffffffffff16905081600460006101000a81548173ffffffffffffffffffffffffffffffffffffffff021916908373ffffffffffffffffffffffffffffffffffffffff1602179055508173ffffffffffffffffffffffffffffffffffffffff168173ffffffffffffffffffffffffffffffffffffffff167f8be0079c531659141344cd1fd0a4f28419497f9722a3daafe3b4186f6b6457e060405160405180910390a35050565b6000604051905090565b600080fd5b600080fd5b600080fd5b600080fd5b6000601f19601f8301169050919050565b7f4e487b7100000000000000000000000000000000000000000000000000000000600052604160045260246000fd5b620001e38262000198565b810181811067ffffffffffffffff82111715620002055762000204620001a9565b5b80604052505050565b60006200021a6200017a565b9050620002288282620001d8565b919050565b600067ffffffffffffffff8211156200024b576200024a620001a9565b5b620002568262000198565b9050602081019050919050565b60005b838110156200028357808201518184015260208101905062000266565b60008484015250505050565b6000620002a6620002a0846200022d565b6200020e565b905082815260208101848484011115620002c557620002c462000193565b5b620002d284828562000263565b509392505050565b600082601f830112620002f257620002f16200018e565b5b8151620003048482602086016200028f565b91505092915050565b60008060006060848603121562000329576200032862000184565b5b600084015167ffffffffffffffff8111156200034a576200034962000189565b5b6200035886828701620002da565b935050602084015167ffffffffffffffff8111156200037c576200037b62000189565b5b6200038a86828701620002da565b925050604084015167ffffffffffffffff811115620003ae57620003ad62000189565b5b620003bc86828701620002da565b9150509250925092565b600081519050919050565b7f4e487b7100000000000000000000000000000000000000000000000000000000600052602260045260246000fd5b600060028204905060018216806200041957607f821691505b6020821081036200042f576200042e620003d1565b5b50919050565b60008190508160005260206000209050919050565b60006020601f8301049050919050565b600082821b905092915050565b600060088302620004997fffffffffffffffffffffffffffffffffffffffffffffffffffffffffffffffff826200045a565b620004a586836200045a565b95508019841693508086168417925050509392505050565b6000819050919050565b6000819050919050565b6000620004f2620004ec620004e684620004bd565b620004c7565b620004bd565b9050919050565b6000819050919050565b6200050e83620004d1565b620005266200051d82620004f9565b84845462000467565b825550505050565b600090565b6200053d6200052e565b6200054a81848462000503565b505050565b5b8181101562000572576200056660008262000533565b60018101905062000550565b5050565b601f821115620005c1576200058b8162000435565b62000596846200044a565b81016020851015620005a6578190505b620005be620005b5856200044a565b8301826200054f565b50505b505050565b600082821c905092915050565b6000620005e660001984600802620005c6565b1980831691505092915050565b6000620006018383620005d3565b9150826002028217905092915050565b6200061c82620003c6565b67ffffffffffffffff811115620006385762000637620001a9565b5b62000644825462000400565b6200065182828562000576565b600060209050601f83116001811462000689576000841562000674578287015190505b620006808582620005f3565b865550620006f0565b601f198416620006998662000435565b60005b82811015620006c3578489015182556001820191506020850194506020810190506200069c565b86831015620006e35784890151620006df601f891682620005d3565b8355505b6001600288020188555050505b505050505050565b6146a180620007086000396000f3fe608060405234801561001057600080fd5b50600436106101575760003560e01c8063715018a6116100c3578063d81d0a151161007c578063d81d0a15146103d4578063e0a6bcdb146103f0578063e985e9c514610420578063f242432a14610450578063f2fde38b1461046c578063f5298aca1461048857610157565b8063715018a6146103125780638da5cb5b1461031c57806395d89b411461033a578063a22cb46514610358578063aa271e1a14610374578063bd85b039146103a457610157565b80632eb2c2d6116101155780632eb2c2d6146102425780632fb413bd1461025e5780634e1273f41461027a5780634f558e79146102aa578063540d22cf146102da57806366eb399f146102f657610157565b8062fdd58e1461015c57806301ffc9a71461018c57806302fe5305146101bc57806306fdde03146101d85780630e89341c146101f6578063156e29f614610226575b600080fd5b610176600480360381019061017191906129ff565b6104a4565b6040516101839190612a4e565b60405180910390f35b6101a660048036038101906101a19190612ac1565b61056c565b6040516101b39190612b09565b60405180910390f35b6101d660048036038101906101d19190612c6a565b61064e565b005b6101e0610662565b6040516101ed9190612d32565b60405180910390f35b610210600480360381019061020b9190612d54565b6106f4565b60405161021d9190612d32565b60405180910390f35b610240600480360381019061023b9190612d81565b610777565b005b61025c60048036038101906102579190612f3d565b6108e6565b005b61027860048036038101906102739190613067565b610987565b005b610294600480360381019061028f91906131ab565b610a01565b6040516102a191906132e1565b60405180910390f35b6102c460048036038101906102bf9190612d54565b610b1a565b6040516102d19190612b09565b60405180910390f35b6102f460048036038101906102ef9190613303565b610b2e565b005b610310600480360381019061030b919061336f565b610b52565b005b61031a610bb5565b005b610324610bc9565b60405161033191906133be565b60405180910390f35b610342610bf3565b60405161034f9190612d32565b60405180910390f35b610372600480360381019061036d919061336f565b610c85565b005b61038e600480360381019061038991906133d9565b610c9b565b60405161039b9190612b09565b60405180910390f35b6103be60048036038101906103b99190612d54565b610cbb565b6040516103cb9190612a4e565b60405180910390f35b6103ee60048036038101906103e99190613406565b610cd8565b005b61040a60048036038101906104059190612d54565b610dc1565b6040516104179190612a4e565b60405180910390f35b61043a60048036038101906104359190613491565b610dd9565b6040516104479190612b09565b60405180910390f35b61046a600480360381019061046591906134d1565b610e6d565b005b610486600480360381019061048191906133d9565b610f0e565b005b6104a2600480360381019061049d9190612d81565b610f91565b005b60008073ffffffffffffffffffffffffffffffffffffffff168373ffffffffffffffffffffffffffffffffffffffff1603610514576040517f08c379a000000000000000000000000000000000000000000000000000000000815260040161050b906135da565b60405180910390fd5b60008083815260200190815260200160002060008473ffffffffffffffffffffffffffffffffffffffff1673ffffffffffffffffffffffffffffffffffffffff16815260200190815260200160002054905092915050565b60007fd9b67a26000000000000000000000000000000000000000000000000000000007bffffffffffffffffffffffffffffffffffffffffffffffffffffffff1916827bffffffffffffffffffffffffffffffffffffffffffffffffffffffff1916148061063757507f0e89341c000000000000000000000000000000000000000000000000000000007bffffffffffffffffffffffffffffffffffffffffffffffffffffffff1916827bffffffffffffffffffffffffffffffffffffffffffffffffffffffff1916145b8061064757506106468261102e565b5b9050919050565b610656611098565b61065f81611116565b50565b60606005805461067190613629565b80601f016020809104026020016040519081016040528092919081815260200182805461069d90613629565b80156106ea5780601f106106bf576101008083540402835291602001916106ea565b820191906000526020600020905b8154815290600101906020018083116106cd57829003601f168201915b5050505050905090565b60606106ff82610b1a565b61073e576040517f08c379a0000000000000000000000000000000000000000000000000000000008152600401610735906136a6565b60405180910390fd5b61074782611129565b610750836111bd565b604051602001610761929190613702565b6040516020818303038152906040529050919050565b600860003373ffffffffffffffffffffffffffffffffffffffff1673ffffffffffffffffffffffffffffffffffffffff16815260200190815260200160002060009054906101000a900460ff16610803576040517f08c379a00000000000000000000000000000000000000000000000000000000081526004016107fa90613772565b60405180910390fd5b60006007600084815260200190815260200160002054111561088957600760008381526020019081526020016000205461083c83610cbb565b8261084791906137c1565b1115610888576040517f08c379a000000000000000000000000000000000000000000000000000000000815260040161087f90613841565b60405180910390fd5b5b6108a48383836040518060200160405280600081525061128b565b7f433b76441e18c222fc492f65a3b0588e67167e45e4450e02b14c22d5aac5fe56828285336040516108d99493929190613861565b60405180910390a1505050565b6108ee61143b565b73ffffffffffffffffffffffffffffffffffffffff168573ffffffffffffffffffffffffffffffffffffffff16148061093457506109338561092e61143b565b610dd9565b5b610973576040517f08c379a000000000000000000000000000000000000000000000000000000000815260040161096a90613918565b60405180910390fd5b6109808585858585611443565b5050505050565b61098f611098565b60005b848490508110156109fa578282828181106109b0576109af613938565b5b90506020020135600760008787858181106109ce576109cd613938565b5b9050602002013581526020019081526020016000208190555080806109f290613967565b915050610992565b5050505050565b60608151835114610a47576040517f08c379a0000000000000000000000000000000000000000000000000000000008152600401610a3e90613a21565b60405180910390fd5b6000835167ffffffffffffffff811115610a6457610a63612b3f565b5b604051908082528060200260200182016040528015610a925781602001602082028036833780820191505090505b50905060005b8451811015610b0f57610adf858281518110610ab757610ab6613938565b5b6020026020010151858381518110610ad257610ad1613938565b5b60200260200101516104a4565b828281518110610af257610af1613938565b5b60200260200101818152505080610b0890613967565b9050610a98565b508091505092915050565b600080610b2683610cbb565b119050919050565b610b36611098565b8060076000848152602001908152602001600020819055505050565b610b5a611098565b80600860008473ffffffffffffffffffffffffffffffffffffffff1673ffffffffffffffffffffffffffffffffffffffff16815260200190815260200160002060006101000a81548160ff0219169083151502179055505050565b610bbd611098565b610bc76000611764565b565b6000600460009054906101000a900473ffffffffffffffffffffffffffffffffffffffff16905090565b606060068054610c0290613629565b80601f0160208091040260200160405190810160405280929190818152602001828054610c2e90613629565b8015610c7b5780601f10610c5057610100808354040283529160200191610c7b565b820191906000526020600020905b815481529060010190602001808311610c5e57829003601f168201915b5050505050905090565b610c97610c9061143b565b838361182a565b5050565b60086020528060005260406000206000915054906101000a900460ff1681565b600060036000838152602001908152602001600020549050919050565b600860003373ffffffffffffffffffffffffffffffffffffffff1673ffffffffffffffffffffffffffffffffffffffff16815260200190815260200160002060009054906101000a900460ff16610d64576040517f08c379a0000000000000000000000000000000000000000000000000000000008152600401610d5b90613772565b60405180910390fd5b610d7f83838360405180602001604052806000815250611996565b7ff36d8cbebfcac71d1fcb485fa591caaa27217c7fdffd9af73ea652cedf43303882828533604051610db49493929190613a41565b60405180910390a1505050565b60076020528060005260406000206000915090505481565b6000600160008473ffffffffffffffffffffffffffffffffffffffff1673ffffffffffffffffffffffffffffffffffffffff16815260200190815260200160002060008373ffffffffffffffffffffffffffffffffffffffff1673ffffffffffffffffffffffffffffffffffffffff16815260200190815260200160002060009054906101000a900460ff16905092915050565b610e7561143b565b73ffffffffffffffffffffffffffffffffffffffff168573ffffffffffffffffffffffffffffffffffffffff161480610ebb5750610eba85610eb561143b565b610dd9565b5b610efa576040517f08c379a0000000000000000000000000000000000000000000000000000000008152600401610ef190613918565b60405180910390fd5b610f078585858585611ab6565b5050505050565b610f16611098565b600073ffffffffffffffffffffffffffffffffffffffff168173ffffffffffffffffffffffffffffffffffffffff1603610f85576040517f08c379a0000000000000000000000000000000000000000000000000000000008152600401610f7c90613b06565b60405180910390fd5b610f8e81611764565b50565b610f9961143b565b73ffffffffffffffffffffffffffffffffffffffff168373ffffffffffffffffffffffffffffffffffffffff161480610fdf5750610fde83610fd961143b565b610dd9565b5b61101e576040517f08c379a000000000000000000000000000000000000000000000000000000000815260040161101590613918565b60405180910390fd5b611029838383611d51565b505050565b60007f01ffc9a7000000000000000000000000000000000000000000000000000000007bffffffffffffffffffffffffffffffffffffffffffffffffffffffff1916827bffffffffffffffffffffffffffffffffffffffffffffffffffffffff1916149050919050565b6110a061143b565b73ffffffffffffffffffffffffffffffffffffffff166110be610bc9565b73ffffffffffffffffffffffffffffffffffffffff1614611114576040517f08c379a000000000000000000000000000000000000000000000000000000000815260040161110b90613b72565b60405180910390fd5b565b80600290816111259190613d3e565b5050565b60606002805461113890613629565b80601f016020809104026020016040519081016040528092919081815260200182805461116490613629565b80156111b15780601f10611186576101008083540402835291602001916111b1565b820191906000526020600020905b81548152906001019060200180831161119457829003601f168201915b50505050509050919050565b6060600060016111cc84611f97565b01905060008167ffffffffffffffff8111156111eb576111ea612b3f565b5b6040519080825280601f01601f19166020018201604052801561121d5781602001600182028036833780820191505090505b509050600082602001820190505b600115611280578080600190039150507f3031323334353637383961626364656600000000000000000000000000000000600a86061a8153600a858161127457611273613e10565b5b0494506000850361122b575b819350505050919050565b600073ffffffffffffffffffffffffffffffffffffffff168473ffffffffffffffffffffffffffffffffffffffff16036112fa576040517f08c379a00000000000000000000000000000000000000000000000000000000081526004016112f190613eb1565b60405180910390fd5b600061130461143b565b90506000611311856120ea565b9050600061131e856120ea565b905061132f83600089858589612164565b8460008088815260200190815260200160002060008973ffffffffffffffffffffffffffffffffffffffff1673ffffffffffffffffffffffffffffffffffffffff168152602001908152602001600020600082825461138e91906137c1565b925050819055508673ffffffffffffffffffffffffffffffffffffffff16600073ffffffffffffffffffffffffffffffffffffffff168473ffffffffffffffffffffffffffffffffffffffff167fc3d58168c5ae7397731d063d5bbf3d657854427343f4c083240f7aacaa2d0f62898960405161140c929190613ed1565b60405180910390a46114238360008985858961217a565b61143283600089898989612182565b50505050505050565b600033905090565b8151835114611487576040517f08c379a000000000000000000000000000000000000000000000000000000000815260040161147e90613f6c565b60405180910390fd5b600073ffffffffffffffffffffffffffffffffffffffff168473ffffffffffffffffffffffffffffffffffffffff16036114f6576040517f08c379a00000000000000000000000000000000000000000000000000000000081526004016114ed90613ffe565b60405180910390fd5b600061150061143b565b9050611510818787878787612164565b60005b84518110156116c157600085828151811061153157611530613938565b5b6020026020010151905060008583815181106115505761154f613938565b5b60200260200101519050600080600084815260200190815260200160002060008b73ffffffffffffffffffffffffffffffffffffffff1673ffffffffffffffffffffffffffffffffffffffff168152602001908152602001600020549050818110156115f1576040517f08c379a00000000000000000000000000000000000000000000000000000000081526004016115e890614090565b60405180910390fd5b81810360008085815260200190815260200160002060008c73ffffffffffffffffffffffffffffffffffffffff1673ffffffffffffffffffffffffffffffffffffffff168152602001908152602001600020819055508160008085815260200190815260200160002060008b73ffffffffffffffffffffffffffffffffffffffff1673ffffffffffffffffffffffffffffffffffffffff16815260200190815260200160002060008282546116a691906137c1565b92505081905550505050806116ba90613967565b9050611513565b508473ffffffffffffffffffffffffffffffffffffffff168673ffffffffffffffffffffffffffffffffffffffff168273ffffffffffffffffffffffffffffffffffffffff167f4a39dc06d4c0dbc64b70af90fd698a233a518aa5d07e595d983b8c0526c8f7fb87876040516117389291906140b0565b60405180910390a461174e81878787878761217a565b61175c818787878787612359565b505050505050565b6000600460009054906101000a900473ffffffffffffffffffffffffffffffffffffffff16905081600460006101000a81548173ffffffffffffffffffffffffffffffffffffffff021916908373ffffffffffffffffffffffffffffffffffffffff1602179055508173ffffffffffffffffffffffffffffffffffffffff168173ffffffffffffffffffffffffffffffffffffffff167f8be0079c531659141344cd1fd0a4f28419497f9722a3daafe3b4186f6b6457e060405160405180910390a35050565b8173ffffffffffffffffffffffffffffffffffffffff168373ffffffffffffffffffffffffffffffffffffffff1603611898576040517f08c379a000000000000000000000000000000000000000000000000000000000815260040161188f90614159565b60405180910390fd5b80600160008573ffffffffffffffffffffffffffffffffffffffff1673ffffffffffffffffffffffffffffffffffffffff16815260200190815260200160002060008473ffffffffffffffffffffffffffffffffffffffff1673ffffffffffffffffffffffffffffffffffffffff16815260200190815260200160002060006101000a81548160ff0219169083151502179055508173ffffffffffffffffffffffffffffffffffffffff168373ffffffffffffffffffffffffffffffffffffffff167f17307eab39ab6107e8899845ad3d59bd9653f200f220920489ca2b5937696c31836040516119899190612b09565b60405180910390a3505050565b60005b8351811015611aa3576000600760008684815181106119bb576119ba613938565b5b60200260200101518152602001908152602001600020541115611a9057600760008583815181106119ef576119ee613938565b5b6020026020010151815260200190815260200160002054611a29858381518110611a1c57611a1b613938565b5b6020026020010151610cbb565b848381518110611a3c57611a3b613938565b5b6020026020010151611a4e91906137c1565b1115611a8f576040517f08c379a0000000000000000000000000000000000000000000000000000000008152600401611a8690613841565b60405180910390fd5b5b8080611a9b90613967565b915050611999565b50611ab084848484612530565b50505050565b600073ffffffffffffffffffffffffffffffffffffffff168473ffffffffffffffffffffffffffffffffffffffff1603611b25576040517f08c379a0000000000000000000000000000000000000000000000000000000008152600401611b1c90613ffe565b60405180910390fd5b6000611b2f61143b565b90506000611b3c856120ea565b90506000611b49856120ea565b9050611b59838989858589612164565b600080600088815260200190815260200160002060008a73ffffffffffffffffffffffffffffffffffffffff1673ffffffffffffffffffffffffffffffffffffffff16815260200190815260200160002054905085811015611bf0576040517f08c379a0000000000000000000000000000000000000000000000000000000008152600401611be790614090565b60405180910390fd5b85810360008089815260200190815260200160002060008b73ffffffffffffffffffffffffffffffffffffffff1673ffffffffffffffffffffffffffffffffffffffff168152602001908152602001600020819055508560008089815260200190815260200160002060008a73ffffffffffffffffffffffffffffffffffffffff1673ffffffffffffffffffffffffffffffffffffffff1681526020019081526020016000206000828254611ca591906137c1565b925050819055508773ffffffffffffffffffffffffffffffffffffffff168973ffffffffffffffffffffffffffffffffffffffff168573ffffffffffffffffffffffffffffffffffffffff167fc3d58168c5ae7397731d063d5bbf3d657854427343f4c083240f7aacaa2d0f628a8a604051611d22929190613ed1565b60405180910390a4611d38848a8a86868a61217a565b611d46848a8a8a8a8a612182565b505050505050505050565b600073ffffffffffffffffffffffffffffffffffffffff168373ffffffffffffffffffffffffffffffffffffffff1603611dc0576040517f08c379a0000000000000000000000000000000000000000000000000000000008152600401611db7906141eb565b60405180910390fd5b6000611dca61143b565b90506000611dd7846120ea565b90506000611de4846120ea565b9050611e0483876000858560405180602001604052806000815250612164565b600080600087815260200190815260200160002060008873ffffffffffffffffffffffffffffffffffffffff1673ffffffffffffffffffffffffffffffffffffffff16815260200190815260200160002054905084811015611e9b576040517f08c379a0000000000000000000000000000000000000000000000000000000008152600401611e929061427d565b60405180910390fd5b84810360008088815260200190815260200160002060008973ffffffffffffffffffffffffffffffffffffffff1673ffffffffffffffffffffffffffffffffffffffff16815260200190815260200160002081905550600073ffffffffffffffffffffffffffffffffffffffff168773ffffffffffffffffffffffffffffffffffffffff168573ffffffffffffffffffffffffffffffffffffffff167fc3d58168c5ae7397731d063d5bbf3d657854427343f4c083240f7aacaa2d0f628989604051611f68929190613ed1565b60405180910390a4611f8e8488600086866040518060200160405280600081525061217a565b50505050505050565b600080600090507a184f03e93ff9f4daa797ed6e38ed64bf6a1f0100000000000000008310611ff5577a184f03e93ff9f4daa797ed6e38ed64bf6a1f0100000000000000008381611feb57611fea613e10565b5b0492506040810190505b6d04ee2d6d415b85acef81000000008310612032576d04ee2d6d415b85acef8100000000838161202857612027613e10565b5b0492506020810190505b662386f26fc10000831061206157662386f26fc10000838161205757612056613e10565b5b0492506010810190505b6305f5e100831061208a576305f5e10083816120805761207f613e10565b5b0492506008810190505b61271083106120af5761271083816120a5576120a4613e10565b5b0492506004810190505b606483106120d257606483816120c8576120c7613e10565b5b0492506002810190505b600a83106120e1576001810190505b80915050919050565b60606000600167ffffffffffffffff81111561210957612108612b3f565b5b6040519080825280602002602001820160405280156121375781602001602082028036833780820191505090505b509050828160008151811061214f5761214e613938565b5b60200260200101818152505080915050919050565b61217286868686868661275c565b505050505050565b505050505050565b6121a18473ffffffffffffffffffffffffffffffffffffffff1661292c565b15612351578373ffffffffffffffffffffffffffffffffffffffff1663f23a6e6187878686866040518663ffffffff1660e01b81526004016121e79594939291906142f2565b6020604051808303816000875af192505050801561222357506040513d601f19601f820116820180604052508101906122209190614361565b60015b6122c85761222f61439b565b806308c379a00361228b57506122436143bd565b8061224e575061228d565b806040517f08c379a00000000000000000000000000000000000000000000000000000000081526004016122829190612d32565b60405180910390fd5b505b6040517f08c379a00000000000000000000000000000000000000000000000000000000081526004016122bf906144bf565b60405180910390fd5b63f23a6e6160e01b7bffffffffffffffffffffffffffffffffffffffffffffffffffffffff1916817bffffffffffffffffffffffffffffffffffffffffffffffffffffffff19161461234f576040517f08c379a000000000000000000000000000000000000000000000000000000000815260040161234690614551565b60405180910390fd5b505b505050505050565b6123788473ffffffffffffffffffffffffffffffffffffffff1661292c565b15612528578373ffffffffffffffffffffffffffffffffffffffff1663bc197c8187878686866040518663ffffffff1660e01b81526004016123be959493929190614571565b6020604051808303816000875af19250505080156123fa57506040513d601f19601f820116820180604052508101906123f79190614361565b60015b61249f5761240661439b565b806308c379a003612462575061241a6143bd565b806124255750612464565b806040517f08c379a00000000000000000000000000000000000000000000000000000000081526004016124599190612d32565b60405180910390fd5b505b6040517f08c379a0000000000000000000000000000000000000000000000000000000008152600401612496906144bf565b60405180910390fd5b63bc197c8160e01b7bffffffffffffffffffffffffffffffffffffffffffffffffffffffff1916817bffffffffffffffffffffffffffffffffffffffffffffffffffffffff191614612526576040517f08c379a000000000000000000000000000000000000000000000000000000000815260040161251d90614551565b60405180910390fd5b505b505050505050565b600073ffffffffffffffffffffffffffffffffffffffff168473ffffffffffffffffffffffffffffffffffffffff160361259f576040517f08c379a000000000000000000000000000000000000000000000000000000000815260040161259690613eb1565b60405180910390fd5b81518351146125e3576040517f08c379a00000000000000000000000000000000000000000000000000000000081526004016125da90613f6c565b60405180910390fd5b60006125ed61143b565b90506125fe81600087878787612164565b60005b84518110156126b75783818151811061261d5761261c613938565b5b602002602001015160008087848151811061263b5761263a613938565b5b6020026020010151815260200190815260200160002060008873ffffffffffffffffffffffffffffffffffffffff1673ffffffffffffffffffffffffffffffffffffffff168152602001908152602001600020600082825461269d91906137c1565b9250508190555080806126af90613967565b915050612601565b508473ffffffffffffffffffffffffffffffffffffffff16600073ffffffffffffffffffffffffffffffffffffffff168273ffffffffffffffffffffffffffffffffffffffff167f4a39dc06d4c0dbc64b70af90fd698a233a518aa5d07e595d983b8c0526c8f7fb878760405161272f9291906140b0565b60405180910390a46127468160008787878761217a565b61275581600087878787612359565b5050505050565b61276a86868686868661294f565b600073ffffffffffffffffffffffffffffffffffffffff168573ffffffffffffffffffffffffffffffffffffffff160361281b5760005b8351811015612819578281815181106127bd576127bc613938565b5b6020026020010151600360008684815181106127dc576127db613938565b5b60200260200101518152602001908152602001600020600082825461280191906137c1565b925050819055508061281290613967565b90506127a1565b505b600073ffffffffffffffffffffffffffffffffffffffff168473ffffffffffffffffffffffffffffffffffffffff16036129245760005b83518110156129225760008482815181106128705761286f613938565b5b60200260200101519050600084838151811061288f5761288e613938565b5b60200260200101519050600060036000848152602001908152602001600020549050818110156128f4576040517f08c379a00000000000000000000000000000000000000000000000000000000081526004016128eb9061464b565b60405180910390fd5b81810360036000858152602001908152602001600020819055505050508061291b90613967565b9050612852565b505b505050505050565b6000808273ffffffffffffffffffffffffffffffffffffffff163b119050919050565b505050505050565b6000604051905090565b600080fd5b600080fd5b600073ffffffffffffffffffffffffffffffffffffffff82169050919050565b60006129968261296b565b9050919050565b6129a68161298b565b81146129b157600080fd5b50565b6000813590506129c38161299d565b92915050565b6000819050919050565b6129dc816129c9565b81146129e757600080fd5b50565b6000813590506129f9816129d3565b92915050565b60008060408385031215612a1657612a15612961565b5b6000612a24858286016129b4565b9250506020612a35858286016129ea565b9150509250929050565b612a48816129c9565b82525050565b6000602082019050612a636000830184612a3f565b92915050565b60007fffffffff0000000000000000000000000000000000000000000000000000000082169050919050565b612a9e81612a69565b8114612aa957600080fd5b50565b600081359050612abb81612a95565b92915050565b600060208284031215612ad757612ad6612961565b5b6000612ae584828501612aac565b91505092915050565b60008115159050919050565b612b0381612aee565b82525050565b6000602082019050612b1e6000830184612afa565b92915050565b600080fd5b600080fd5b6000601f19601f8301169050919050565b7f4e487b7100000000000000000000000000000000000000000000000000000000600052604160045260246000fd5b612b7782612b2e565b810181811067ffffffffffffffff82111715612b9657612b95612b3f565b5b80604052505050565b6000612ba9612957565b9050612bb58282612b6e565b919050565b600067ffffffffffffffff821115612bd557612bd4612b3f565b5b612bde82612b2e565b9050602081019050919050565b82818337600083830152505050565b6000612c0d612c0884612bba565b612b9f565b905082815260208101848484011115612c2957612c28612b29565b5b612c34848285612beb565b509392505050565b600082601f830112612c5157612c50612b24565b5b8135612c61848260208601612bfa565b91505092915050565b600060208284031215612c8057612c7f612961565b5b600082013567ffffffffffffffff811115612c9e57612c9d612966565b5b612caa84828501612c3c565b91505092915050565b600081519050919050565b600082825260208201905092915050565b60005b83811015612ced578082015181840152602081019050612cd2565b60008484015250505050565b6000612d0482612cb3565b612d0e8185612cbe565b9350612d1e818560208601612ccf565b612d2781612b2e565b840191505092915050565b60006020820190508181036000830152612d4c8184612cf9565b905092915050565b600060208284031215612d6a57612d69612961565b5b6000612d78848285016129ea565b91505092915050565b600080600060608486031215612d9a57612d99612961565b5b6000612da8868287016129b4565b9350506020612db9868287016129ea565b9250506040612dca868287016129ea565b9150509250925092565b600067ffffffffffffffff821115612def57612dee612b3f565b5b602082029050602081019050919050565b600080fd5b6000612e18612e1384612dd4565b612b9f565b90508083825260208201905060208402830185811115612e3b57612e3a612e00565b5b835b81811015612e645780612e5088826129ea565b845260208401935050602081019050612e3d565b5050509392505050565b600082601f830112612e8357612e82612b24565b5b8135612e93848260208601612e05565b91505092915050565b600067ffffffffffffffff821115612eb757612eb6612b3f565b5b612ec082612b2e565b9050602081019050919050565b6000612ee0612edb84612e9c565b612b9f565b905082815260208101848484011115612efc57612efb612b29565b5b612f07848285612beb565b509392505050565b600082601f830112612f2457612f23612b24565b5b8135612f34848260208601612ecd565b91505092915050565b600080600080600060a08688031215612f5957612f58612961565b5b6000612f67888289016129b4565b9550506020612f78888289016129b4565b945050604086013567ffffffffffffffff811115612f9957612f98612966565b5b612fa588828901612e6e565b935050606086013567ffffffffffffffff811115612fc657612fc5612966565b5b612fd288828901612e6e565b925050608086013567ffffffffffffffff811115612ff357612ff2612966565b5b612fff88828901612f0f565b9150509295509295909350565b600080fd5b60008083601f84011261302757613026612b24565b5b8235905067ffffffffffffffff8111156130445761304361300c565b5b6020830191508360208202830111156130605761305f612e00565b5b9250929050565b6000806000806040858703121561308157613080612961565b5b600085013567ffffffffffffffff81111561309f5761309e612966565b5b6130ab87828801613011565b9450945050602085013567ffffffffffffffff8111156130ce576130cd612966565b5b6130da87828801613011565b925092505092959194509250565b600067ffffffffffffffff82111561310357613102612b3f565b5b602082029050602081019050919050565b6000613127613122846130e8565b612b9f565b9050808382526020820190506020840283018581111561314a57613149612e00565b5b835b81811015613173578061315f88826129b4565b84526020840193505060208101905061314c565b5050509392505050565b600082601f83011261319257613191612b24565b5b81356131a2848260208601613114565b91505092915050565b600080604083850312156131c2576131c1612961565b5b600083013567ffffffffffffffff8111156131e0576131df612966565b5b6131ec8582860161317d565b925050602083013567ffffffffffffffff81111561320d5761320c612966565b5b61321985828601612e6e565b9150509250929050565b600081519050919050565b600082825260208201905092915050565b6000819050602082019050919050565b613258816129c9565b82525050565b600061326a838361324f565b60208301905092915050565b6000602082019050919050565b600061328e82613223565b613298818561322e565b93506132a38361323f565b8060005b838110156132d45781516132bb888261325e565b97506132c683613276565b9250506001810190506132a7565b5085935050505092915050565b600060208201905081810360008301526132fb8184613283565b905092915050565b6000806040838503121561331a57613319612961565b5b6000613328858286016129ea565b9250506020613339858286016129ea565b9150509250929050565b61334c81612aee565b811461335757600080fd5b50565b60008135905061336981613343565b92915050565b6000806040838503121561338657613385612961565b5b6000613394858286016129b4565b92505060206133a58582860161335a565b9150509250929050565b6133b88161298b565b82525050565b60006020820190506133d360008301846133af565b92915050565b6000602082840312156133ef576133ee612961565b5b60006133fd848285016129b4565b91505092915050565b60008060006060848603121561341f5761341e612961565b5b600061342d868287016129b4565b935050602084013567ffffffffffffffff81111561344e5761344d612966565b5b61345a86828701612e6e565b925050604084013567ffffffffffffffff81111561347b5761347a612966565b5b61348786828701612e6e565b9150509250925092565b600080604083850312156134a8576134a7612961565b5b60006134b6858286016129b4565b92505060206134c7858286016129b4565b9150509250929050565b600080600080600060a086880312156134ed576134ec612961565b5b60006134fb888289016129b4565b955050602061350c888289016129b4565b945050604061351d888289016129ea565b935050606061352e888289016129ea565b925050608086013567ffffffffffffffff81111561354f5761354e612966565b5b61355b88828901612f0f565b9150509295509295909350565b7f455243313135353a2061646472657373207a65726f206973206e6f742061207660008201527f616c6964206f776e657200000000000000000000000000000000000000000000602082015250565b60006135c4602a83612cbe565b91506135cf82613568565b604082019050919050565b600060208201905081810360008301526135f3816135b7565b9050919050565b7f4e487b7100000000000000000000000000000000000000000000000000000000600052602260045260246000fd5b6000600282049050600182168061364157607f821691505b602082108103613654576136536135fa565b5b50919050565b7f5552493a206e6f6e6578697374656e7420746f6b656e00000000000000000000600082015250565b6000613690601683612cbe565b915061369b8261365a565b602082019050919050565b600060208201905081810360008301526136bf81613683565b9050919050565b600081905092915050565b60006136dc82612cb3565b6136e681856136c6565b93506136f6818560208601612ccf565b80840191505092915050565b600061370e82856136d1565b915061371a82846136d1565b91508190509392505050565b7f4d696e743a204e6f7420617574686f72697a656420746f206d696e7400000000600082015250565b600061375c601c83612cbe565b915061376782613726565b602082019050919050565b6000602082019050818103600083015261378b8161374f565b9050919050565b7f4e487b7100000000000000000000000000000000000000000000000000000000600052601160045260246000fd5b60006137cc826129c9565b91506137d7836129c9565b92508282019050808211156137ef576137ee613792565b5b92915050565b7f4d696e743a20457863656564207472616974206c696d69740000000000000000600082015250565b600061382b601883612cbe565b9150613836826137f5565b602082019050919050565b6000602082019050818103600083015261385a8161381e565b9050919050565b60006080820190506138766000830187612a3f565b6138836020830186612a3f565b61389060408301856133af565b61389d60608301846133af565b95945050505050565b7f455243313135353a2063616c6c6572206973206e6f7420746f6b656e206f776e60008201527f6572206f7220617070726f766564000000000000000000000000000000000000602082015250565b6000613902602e83612cbe565b915061390d826138a6565b604082019050919050565b60006020820190508181036000830152613931816138f5565b9050919050565b7f4e487b7100000000000000000000000000000000000000000000000000000000600052603260045260246000fd5b6000613972826129c9565b91507fffffffffffffffffffffffffffffffffffffffffffffffffffffffffffffffff82036139a4576139a3613792565b5b600182019050919050565b7f455243313135353a206163636f756e747320616e6420696473206c656e67746860008201527f206d69736d617463680000000000000000000000000000000000000000000000602082015250565b6000613a0b602983612cbe565b9150613a16826139af565b604082019050919050565b60006020820190508181036000830152613a3a816139fe565b9050919050565b60006080820190508181036000830152613a5b8187613283565b90508181036020830152613a6f8186613283565b9050613a7e60408301856133af565b613a8b60608301846133af565b95945050505050565b7f4f776e61626c653a206e6577206f776e657220697320746865207a65726f206160008201527f6464726573730000000000000000000000000000000000000000000000000000602082015250565b6000613af0602683612cbe565b9150613afb82613a94565b604082019050919050565b60006020820190508181036000830152613b1f81613ae3565b9050919050565b7f4f776e61626c653a2063616c6c6572206973206e6f7420746865206f776e6572600082015250565b6000613b5c602083612cbe565b9150613b6782613b26565b602082019050919050565b60006020820190508181036000830152613b8b81613b4f565b9050919050565b60008190508160005260206000209050919050565b60006020601f8301049050919050565b600082821b905092915050565b600060088302613bf47fffffffffffffffffffffffffffffffffffffffffffffffffffffffffffffffff82613bb7565b613bfe8683613bb7565b95508019841693508086168417925050509392505050565b6000819050919050565b6000613c3b613c36613c31846129c9565b613c16565b6129c9565b9050919050565b6000819050919050565b613c5583613c20565b613c69613c6182613c42565b848454613bc4565b825550505050565b600090565b613c7e613c71565b613c89818484613c4c565b505050565b5b81811015613cad57613ca2600082613c76565b600181019050613c8f565b5050565b601f821115613cf257613cc381613b92565b613ccc84613ba7565b81016020851015613cdb578190505b613cef613ce785613ba7565b830182613c8e565b50505b505050565b600082821c905092915050565b6000613d1560001984600802613cf7565b1980831691505092915050565b6000613d2e8383613d04565b9150826002028217905092915050565b613d4782612cb3565b67ffffffffffffffff811115613d6057613d5f612b3f565b5b613d6a8254613629565b613d75828285613cb1565b600060209050601f831160018114613da85760008415613d96578287015190505b613da08582613d22565b865550613e08565b601f198416613db686613b92565b60005b82811015613dde57848901518255600182019150602085019450602081019050613db9565b86831015613dfb5784890151613df7601f891682613d04565b8355505b6001600288020188555050505b505050505050565b7f4e487b7100000000000000000000000000000000000000000000000000000000600052601260045260246000fd5b7f455243313135353a206d696e7420746f20746865207a65726f2061646472657360008201527f7300000000000000000000000000000000000000000000000000000000000000602082015250565b6000613e9b602183612cbe565b9150613ea682613e3f565b604082019050919050565b60006020820190508181036000830152613eca81613e8e565b9050919050565b6000604082019050613ee66000830185612a3f565b613ef36020830184612a3f565b9392505050565b7f455243313135353a2069647320616e6420616d6f756e7473206c656e6774682060008201527f6d69736d61746368000000000000000000000000000000000000000000000000602082015250565b6000613f56602883612cbe565b9150613f6182613efa565b604082019050919050565b60006020820190508181036000830152613f8581613f49565b9050919050565b7f455243313135353a207472616e7366657220746f20746865207a65726f20616460008201527f6472657373000000000000000000000000000000000000000000000000000000602082015250565b6000613fe8602583612cbe565b9150613ff382613f8c565b604082019050919050565b6000602082019050818103600083015261401781613fdb565b9050919050565b7f455243313135353a20696e73756666696369656e742062616c616e636520666f60008201527f72207472616e7366657200000000000000000000000000000000000000000000602082015250565b600061407a602a83612cbe565b91506140858261401e565b604082019050919050565b600060208201905081810360008301526140a98161406d565b9050919050565b600060408201905081810360008301526140ca8185613283565b905081810360208301526140de8184613283565b90509392505050565b7f455243313135353a2073657474696e6720617070726f76616c2073746174757360008201527f20666f722073656c660000000000000000000000000000000000000000000000602082015250565b6000614143602983612cbe565b915061414e826140e7565b604082019050919050565b6000602082019050818103600083015261417281614136565b9050919050565b7f455243313135353a206275726e2066726f6d20746865207a65726f206164647260008201527f6573730000000000000000000000000000000000000000000000000000000000602082015250565b60006141d5602383612cbe565b91506141e082614179565b604082019050919050565b60006020820190508181036000830152614204816141c8565b9050919050565b7f455243313135353a206275726e20616d6f756e7420657863656564732062616c60008201527f616e636500000000000000000000000000000000000000000000000000000000602082015250565b6000614267602483612cbe565b91506142728261420b565b604082019050919050565b600060208201905081810360008301526142968161425a565b9050919050565b600081519050919050565b600082825260208201905092915050565b60006142c48261429d565b6142ce81856142a8565b93506142de818560208601612ccf565b6142e781612b2e565b840191505092915050565b600060a08201905061430760008301886133af565b61431460208301876133af565b6143216040830186612a3f565b61432e6060830185612a3f565b818103608083015261434081846142b9565b90509695505050505050565b60008151905061435b81612a95565b92915050565b60006020828403121561437757614376612961565b5b60006143858482850161434c565b91505092915050565b60008160e01c9050919050565b600060033d11156143ba5760046000803e6143b760005161438e565b90505b90565b600060443d1061444a576143cf612957565b60043d036004823e80513d602482011167ffffffffffffffff821117156143f757505061444a565b808201805167ffffffffffffffff811115614415575050505061444a565b80602083010160043d03850181111561443257505050505061444a565b61444182602001850186612b6e565b82955050505050505b90565b7f455243313135353a207472616e7366657220746f206e6f6e2d4552433131353560008201527f526563656976657220696d706c656d656e746572000000000000000000000000602082015250565b60006144a9603483612cbe565b91506144b48261444d565b604082019050919050565b600060208201905081810360008301526144d88161449c565b9050919050565b7f455243313135353a204552433131353552656365697665722072656a6563746560008201527f6420746f6b656e73000000000000000000000000000000000000000000000000602082015250565b600061453b602883612cbe565b9150614546826144df565b604082019050919050565b6000602082019050818103600083015261456a8161452e565b9050919050565b600060a08201905061458660008301886133af565b61459360208301876133af565b81810360408301526145a58186613283565b905081810360608301526145b98185613283565b905081810360808301526145cd81846142b9565b90509695505050505050565b7f455243313135353a206275726e20616d6f756e74206578636565647320746f7460008201527f616c537570706c79000000000000000000000000000000000000000000000000602082015250565b6000614635602883612cbe565b9150614640826145d9565b604082019050919050565b6000602082019050818103600083015261466481614628565b905091905056fea2646970667358221220f88085ac3c08b8c89f7b200faab16c3a5a52ee06dcd58c84b907ea4e6e7fd73d64736f6c63430008120033",
  "immutableReferences": {},
  "source": "// SPDX-License-Identifier: GPL-3.0\r\n// solhint-disable-next-line\r\npragma solidity ^0.8.12;\r\n\r\nimport \"@openzeppelin/contracts/utils/Strings.sol\";\r\nimport \"./abstract/ERC1155Factory.sol\";\r\n\r\ncontract ApesTraits is ERC1155Factory {\r\n    using Strings for uint256;\r\n\r\n    mapping(uint256 => uint256) public traitLimit;\r\n    mapping(address => bool) public isMinter;\r\n\r\n    event Minted(uint256 tokenId, uint256 amount, address to, address operator);\r\n    event MintedBatch(\r\n        uint256[] ids,\r\n        uint256[] amounts,\r\n        address to,\r\n        address operator\r\n    );\r\n\r\n    constructor(\r\n        string memory _name,\r\n        string memory _symbol,\r\n        string memory _uri\r\n    ) ERC1155(_uri) {\r\n        name_ = _name;\r\n        symbol_ = _symbol;\r\n    }\r\n\r\n    modifier onlyMinter() {\r\n        require(isMinter[msg.sender], \"Mint: Not authorized to mint\");\r\n        _;\r\n    }\r\n\r\n    function mint(\r\n        address to,\r\n        uint256 tokenId,\r\n        uint256 amount\r\n    ) external onlyMinter {\r\n        if (traitLimit[tokenId] > 0) {\r\n            require(\r\n                amount + totalSupply(tokenId) <= traitLimit[tokenId],\r\n                \"Mint: Exceed trait limit\"\r\n            );\r\n        }\r\n\r\n        _mint(to, tokenId, amount, \"\");\r\n\r\n        emit Minted(tokenId, amount, to, msg.sender);\r\n    }\r\n\r\n    function mintBatch(\r\n        address to,\r\n        uint256[] memory ids,\r\n        uint256[] memory amounts\r\n    ) external onlyMinter {\r\n        _mintBatch(to, ids, amounts, \"\");\r\n\r\n        emit MintedBatch(ids, amounts, to, msg.sender);\r\n    }\r\n\r\n    function setTraitLimit(uint256 tokenId, uint256 limit) external onlyOwner {\r\n        traitLimit[tokenId] = limit;\r\n    }\r\n\r\n    function bulkSetTraitLimit(\r\n        uint256[] calldata tokenIds,\r\n        uint256[] calldata limits\r\n    ) external onlyOwner {\r\n        for (uint256 i = 0; i < tokenIds.length; i++) {\r\n            traitLimit[tokenIds[i]] = limits[i];\r\n        }\r\n    }\r\n\r\n    function setIsMinter(address operator, bool status) external onlyOwner {\r\n        isMinter[operator] = status;\r\n    }\r\n\r\n    function uri(uint256 _id) public view override returns (string memory) {\r\n        require(exists(_id), \"URI: nonexistent token\");\r\n\r\n        return string(abi.encodePacked(super.uri(_id), _id.toString()));\r\n    }\r\n\r\n    function _mintBatch(\r\n        address to,\r\n        uint256[] memory ids,\r\n        uint256[] memory amounts,\r\n        bytes memory data\r\n    ) internal virtual override {\r\n        for (uint256 i = 0; i < ids.length; i++) {\r\n            if (traitLimit[ids[i]] > 0) {\r\n                require(\r\n                    amounts[i] + totalSupply(ids[i]) <= traitLimit[ids[i]],\r\n                    \"Mint: Exceed trait limit\"\r\n                );\r\n            }\r\n        }\r\n\r\n        super._mintBatch(to, ids, amounts, data);\r\n    }\r\n}\r\n",
  "sourcePath": "C:\\Testing\\contracts\\Traits.sol",
  "compiler": {
    "name": "solc",
    "version": "0.8.18+commit.87f61d96.Emscripten.clang"
  },
  "schemaVersion": "3.4.11",
  "updatedAt": "2023-02-09T20:40:38.921Z",
  "devdoc": {
    "events": {
      "ApprovalForAll(address,address,bool)": {
        "details": "Emitted when `account` grants or revokes permission to `operator` to transfer their tokens, according to `approved`."
      },
      "TransferBatch(address,address,address,uint256[],uint256[])": {
        "details": "Equivalent to multiple {TransferSingle} events, where `operator`, `from` and `to` are the same for all transfers."
      },
      "TransferSingle(address,address,address,uint256,uint256)": {
        "details": "Emitted when `value` tokens of token type `id` are transferred from `from` to `to` by `operator`."
      },
      "URI(string,uint256)": {
        "details": "Emitted when the URI for token type `id` changes to `value`, if it is a non-programmatic URI. If an {URI} event was emitted for `id`, the standard https://eips.ethereum.org/EIPS/eip-1155#metadata-extensions[guarantees] that `value` will equal the value returned by {IERC1155MetadataURI-uri}."
      }
    },
    "kind": "dev",
    "methods": {
      "balanceOf(address,uint256)": {
        "details": "See {IERC1155-balanceOf}. Requirements: - `account` cannot be the zero address."
      },
      "balanceOfBatch(address[],uint256[])": {
        "details": "See {IERC1155-balanceOfBatch}. Requirements: - `accounts` and `ids` must have the same length."
      },
      "exists(uint256)": {
        "details": "Indicates whether any token exist with a given id, or not."
      },
      "isApprovedForAll(address,address)": {
        "details": "See {IERC1155-isApprovedForAll}."
      },
      "owner()": {
        "details": "Returns the address of the current owner."
      },
      "renounceOwnership()": {
        "details": "Leaves the contract without owner. It will not be possible to call `onlyOwner` functions anymore. Can only be called by the current owner. NOTE: Renouncing ownership will leave the contract without an owner, thereby removing any functionality that is only available to the owner."
      },
      "safeBatchTransferFrom(address,address,uint256[],uint256[],bytes)": {
        "details": "See {IERC1155-safeBatchTransferFrom}."
      },
      "safeTransferFrom(address,address,uint256,uint256,bytes)": {
        "details": "See {IERC1155-safeTransferFrom}."
      },
      "setApprovalForAll(address,bool)": {
        "details": "See {IERC1155-setApprovalForAll}."
      },
      "supportsInterface(bytes4)": {
        "details": "See {IERC165-supportsInterface}."
      },
      "totalSupply(uint256)": {
        "details": "Total amount of tokens in with a given id."
      },
      "transferOwnership(address)": {
        "details": "Transfers ownership of the contract to a new account (`newOwner`). Can only be called by the current owner."
      }
    },
    "version": 1
  },
  "userdoc": {
    "kind": "user",
    "methods": {},
    "version": 1
  }
}