{
  "contractName": "ApesRandomizer",
  "abi": [
    {
      "inputs": [],
      "stateMutability": "nonpayable",
      "type": "constructor"
    },
    {
      "anonymous": false,
      "inputs": [
        {
          "indexed": true,
          "internalType": "address",
          "name": "previousOwner",
          "type": "address"
        },
        {
          "indexed": true,
          "internalType": "address",
          "name": "newOwner",
          "type": "address"
        }
      ],
      "name": "OwnershipTransferred",
      "type": "event"
    },
    {
      "inputs": [
        {
          "internalType": "address",
          "name": "",
          "type": "address"
        }
      ],
      "name": "isOperator",
      "outputs": [
        {
          "internalType": "bool",
          "name": "",
          "type": "bool"
        }
      ],
      "stateMutability": "view",
      "type": "function"
    },
    {
      "inputs": [],
      "name": "owner",
      "outputs": [
        {
          "internalType": "address",
          "name": "",
          "type": "address"
        }
      ],
      "stateMutability": "view",
      "type": "function"
    },
    {
      "inputs": [],
      "name": "renounceOwnership",
      "outputs": [],
      "stateMutability": "nonpayable",
      "type": "function"
    },
    {
      "inputs": [
        {
          "internalType": "address",
          "name": "newOwner",
          "type": "address"
        }
      ],
      "name": "transferOwnership",
      "outputs": [],
      "stateMutability": "nonpayable",
      "type": "function"
    },
    {
      "inputs": [
        {
          "internalType": "uint256[]",
          "name": "_uints",
          "type": "uint256[]"
        }
      ],
      "name": "encode",
      "outputs": [
        {
          "internalType": "bytes",
          "name": "",
          "type": "bytes"
        }
      ],
      "stateMutability": "view",
      "type": "function"
    },
    {
      "inputs": [
        {
          "internalType": "bytes",
          "name": "data",
          "type": "bytes"
        },
        {
          "internalType": "uint256",
          "name": "amount",
          "type": "uint256"
        }
      ],
      "name": "getRandom",
      "outputs": [
        {
          "internalType": "uint256[]",
          "name": "numbers",
          "type": "uint256[]"
        },
        {
          "internalType": "bool",
          "name": "hasExtra",
          "type": "bool"
        }
      ],
      "stateMutability": "view",
      "type": "function"
    },
    {
      "inputs": [
        {
          "internalType": "address",
          "name": "operator",
          "type": "address"
        },
        {
          "internalType": "bool",
          "name": "status",
          "type": "bool"
        }
      ],
      "name": "setOperator",
      "outputs": [],
      "stateMutability": "nonpayable",
      "type": "function"
    }
  ],
  "bytecode": "0x608060405234801561001057600080fd5b5061002d61002261003260201b60201c565b61003a60201b60201c565b6100fe565b600033905090565b60008060009054906101000a900473ffffffffffffffffffffffffffffffffffffffff169050816000806101000a81548173ffffffffffffffffffffffffffffffffffffffff021916908373ffffffffffffffffffffffffffffffffffffffff1602179055508173ffffffffffffffffffffffffffffffffffffffff168173ffffffffffffffffffffffffffffffffffffffff167f8be0079c531659141344cd1fd0a4f28419497f9722a3daafe3b4186f6b6457e060405160405180910390a35050565b61120f8061010d6000396000f3fe608060405234801561001057600080fd5b506004361061007d5760003560e01c8063715018a61161005b578063715018a6146100ff5780638da5cb5b14610109578063b003dd8614610127578063f2fde38b146101575761007d565b8063162ecf0914610082578063558a7297146100b35780636d70f7ae146100cf575b600080fd5b61009c600480360381019061009791906108a6565b610173565b6040516100aa9291906109db565b60405180910390f35b6100cd60048036038101906100c89190610a95565b610398565b005b6100e960048036038101906100e49190610ad5565b6103fb565b6040516100f69190610b02565b60405180910390f35b61010761041b565b005b61011161042f565b60405161011e9190610b2c565b60405180910390f35b610141600480360381019061013c9190610ba7565b610458565b60405161014e9190610c73565b60405180910390f35b610171600480360381019061016c9190610ad5565b610510565b005b60606000600160003373ffffffffffffffffffffffffffffffffffffffff1673ffffffffffffffffffffffffffffffffffffffff16815260200190815260200160002060009054906101000a900460ff16610203576040517f08c379a00000000000000000000000000000000000000000000000000000000081526004016101fa90610cf2565b60405180910390fd5b6000848060200190518101906102199190610dea565b90508367ffffffffffffffff81111561023557610234610745565b5b6040519080825280602002602001820160405280156102635781602001602082028036833780820191505090505b5092506000815190506000600190505b85811161038e5760008261028683610593565b6102909190610e62565b90508381815181106102a5576102a4610e93565b5b6020026020010151866001846102bb9190610ef1565b815181106102cc576102cb610e93565b5b60200260200101818152505060278482815181106102ed576102ec610e93565b5b602002602001015111801561031c5750602c84828151811061031257610311610e93565b5b6020026020010151105b1561032657600194505b838285516103349190610ef1565b8151811061034557610344610e93565b5b60200260200101518482815181106103605761035f610e93565b5b602002602001018181525050828061037790610f25565b93505050808061038690610f4e565b915050610273565b5050509250929050565b6103a06105cc565b80600160008473ffffffffffffffffffffffffffffffffffffffff1673ffffffffffffffffffffffffffffffffffffffff16815260200190815260200160002060006101000a81548160ff0219169083151502179055505050565b60016020528060005260406000206000915054906101000a900460ff1681565b6104236105cc565b61042d600061064a565b565b60008060009054906101000a900473ffffffffffffffffffffffffffffffffffffffff16905090565b6060600160003373ffffffffffffffffffffffffffffffffffffffff1673ffffffffffffffffffffffffffffffffffffffff16815260200190815260200160002060009054906101000a900460ff166104e6576040517f08c379a00000000000000000000000000000000000000000000000000000000081526004016104dd90610cf2565b60405180910390fd5b82826040516020016104f9929190611000565b604051602081830303815290604052905092915050565b6105186105cc565b600073ffffffffffffffffffffffffffffffffffffffff168173ffffffffffffffffffffffffffffffffffffffff1603610587576040517f08c379a000000000000000000000000000000000000000000000000000000000815260040161057e90611096565b60405180910390fd5b6105908161064a565b50565b600081425a326040516020016105ac949392919061111f565b6040516020818303038152906040528051906020012060001c9050919050565b6105d461070e565b73ffffffffffffffffffffffffffffffffffffffff166105f261042f565b73ffffffffffffffffffffffffffffffffffffffff1614610648576040517f08c379a000000000000000000000000000000000000000000000000000000000815260040161063f906111b9565b60405180910390fd5b565b60008060009054906101000a900473ffffffffffffffffffffffffffffffffffffffff169050816000806101000a81548173ffffffffffffffffffffffffffffffffffffffff021916908373ffffffffffffffffffffffffffffffffffffffff1602179055508173ffffffffffffffffffffffffffffffffffffffff168173ffffffffffffffffffffffffffffffffffffffff167f8be0079c531659141344cd1fd0a4f28419497f9722a3daafe3b4186f6b6457e060405160405180910390a35050565b600033905090565b6000604051905090565b600080fd5b600080fd5b600080fd5b600080fd5b6000601f19601f8301169050919050565b7f4e487b7100000000000000000000000000000000000000000000000000000000600052604160045260246000fd5b61077d82610734565b810181811067ffffffffffffffff8211171561079c5761079b610745565b5b80604052505050565b60006107af610716565b90506107bb8282610774565b919050565b600067ffffffffffffffff8211156107db576107da610745565b5b6107e482610734565b9050602081019050919050565b82818337600083830152505050565b600061081361080e846107c0565b6107a5565b90508281526020810184848401111561082f5761082e61072f565b5b61083a8482856107f1565b509392505050565b600082601f8301126108575761085661072a565b5b8135610867848260208601610800565b91505092915050565b6000819050919050565b61088381610870565b811461088e57600080fd5b50565b6000813590506108a08161087a565b92915050565b600080604083850312156108bd576108bc610720565b5b600083013567ffffffffffffffff8111156108db576108da610725565b5b6108e785828601610842565b92505060206108f885828601610891565b9150509250929050565b600081519050919050565b600082825260208201905092915050565b6000819050602082019050919050565b61093781610870565b82525050565b6000610949838361092e565b60208301905092915050565b6000602082019050919050565b600061096d82610902565b610977818561090d565b93506109828361091e565b8060005b838110156109b357815161099a888261093d565b97506109a583610955565b925050600181019050610986565b5085935050505092915050565b60008115159050919050565b6109d5816109c0565b82525050565b600060408201905081810360008301526109f58185610962565b9050610a0460208301846109cc565b9392505050565b600073ffffffffffffffffffffffffffffffffffffffff82169050919050565b6000610a3682610a0b565b9050919050565b610a4681610a2b565b8114610a5157600080fd5b50565b600081359050610a6381610a3d565b92915050565b610a72816109c0565b8114610a7d57600080fd5b50565b600081359050610a8f81610a69565b92915050565b60008060408385031215610aac57610aab610720565b5b6000610aba85828601610a54565b9250506020610acb85828601610a80565b9150509250929050565b600060208284031215610aeb57610aea610720565b5b6000610af984828501610a54565b91505092915050565b6000602082019050610b1760008301846109cc565b92915050565b610b2681610a2b565b82525050565b6000602082019050610b416000830184610b1d565b92915050565b600080fd5b600080fd5b60008083601f840112610b6757610b6661072a565b5b8235905067ffffffffffffffff811115610b8457610b83610b47565b5b602083019150836020820283011115610ba057610b9f610b4c565b5b9250929050565b60008060208385031215610bbe57610bbd610720565b5b600083013567ffffffffffffffff811115610bdc57610bdb610725565b5b610be885828601610b51565b92509250509250929050565b600081519050919050565b600082825260208201905092915050565b60005b83811015610c2e578082015181840152602081019050610c13565b60008484015250505050565b6000610c4582610bf4565b610c4f8185610bff565b9350610c5f818560208601610c10565b610c6881610734565b840191505092915050565b60006020820190508181036000830152610c8d8184610c3a565b905092915050565b600082825260208201905092915050565b7f4e6f7420617574686f7269736564000000000000000000000000000000000000600082015250565b6000610cdc600e83610c95565b9150610ce782610ca6565b602082019050919050565b60006020820190508181036000830152610d0b81610ccf565b9050919050565b600067ffffffffffffffff821115610d2d57610d2c610745565b5b602082029050602081019050919050565b600081519050610d4d8161087a565b92915050565b6000610d66610d6184610d12565b6107a5565b90508083825260208201905060208402830185811115610d8957610d88610b4c565b5b835b81811015610db25780610d9e8882610d3e565b845260208401935050602081019050610d8b565b5050509392505050565b600082601f830112610dd157610dd061072a565b5b8151610de1848260208601610d53565b91505092915050565b600060208284031215610e0057610dff610720565b5b600082015167ffffffffffffffff811115610e1e57610e1d610725565b5b610e2a84828501610dbc565b91505092915050565b7f4e487b7100000000000000000000000000000000000000000000000000000000600052601260045260246000fd5b6000610e6d82610870565b9150610e7883610870565b925082610e8857610e87610e33565b5b828206905092915050565b7f4e487b7100000000000000000000000000000000000000000000000000000000600052603260045260246000fd5b7f4e487b7100000000000000000000000000000000000000000000000000000000600052601160045260246000fd5b6000610efc82610870565b9150610f0783610870565b9250828203905081811115610f1f57610f1e610ec2565b5b92915050565b6000610f3082610870565b915060008203610f4357610f42610ec2565b5b600182039050919050565b6000610f5982610870565b91507fffffffffffffffffffffffffffffffffffffffffffffffffffffffffffffffff8203610f8b57610f8a610ec2565b5b600182019050919050565b600080fd5b82818337505050565b6000610fb0838561090d565b93507f07ffffffffffffffffffffffffffffffffffffffffffffffffffffffffffffff831115610fe357610fe2610f96565b5b602083029250610ff4838584610f9b565b82840190509392505050565b6000602082019050818103600083015261101b818486610fa4565b90509392505050565b7f4f776e61626c653a206e6577206f776e657220697320746865207a65726f206160008201527f6464726573730000000000000000000000000000000000000000000000000000602082015250565b6000611080602683610c95565b915061108b82611024565b604082019050919050565b600060208201905081810360008301526110af81611073565b9050919050565b6000819050919050565b6110d16110cc82610870565b6110b6565b82525050565b60008160601b9050919050565b60006110ef826110d7565b9050919050565b6000611101826110e4565b9050919050565b61111961111482610a2b565b6110f6565b82525050565b600061112b82876110c0565b60208201915061113b82866110c0565b60208201915061114b82856110c0565b60208201915061115b8284611108565b60148201915081905095945050505050565b7f4f776e61626c653a2063616c6c6572206973206e6f7420746865206f776e6572600082015250565b60006111a3602083610c95565b91506111ae8261116d565b602082019050919050565b600060208201905081810360008301526111d281611196565b905091905056fea2646970667358221220b6f1fa4dbb06d7216f5c47799915f4637e86510ebdfb4ca160673926f0366edd64736f6c63430008120033",
  "immutableReferences": {},
  "source": "// SPDX-License-Identifier: GPL-3.0\r\n// solhint-disable-next-line\r\npragma solidity ^0.8.12;\r\n\r\nimport \"@openzeppelin/contracts/token/ERC1155/utils/ERC1155Holder.sol\";\r\nimport \"@openzeppelin/contracts/access/Ownable.sol\";\r\n\r\ncontract ApesRandomizer is Ownable {\r\n    mapping(address => bool) public isOperator;\r\n\r\n    constructor() {}\r\n\r\n    modifier onlyOperator() {\r\n        require(isOperator[msg.sender], \"Not authorised\");\r\n        _;\r\n    }\r\n\r\n    function encode(uint256[] calldata _uints)\r\n        external\r\n        view\r\n        onlyOperator\r\n        returns (bytes memory)\r\n    {\r\n        return (abi.encode(_uints));\r\n    }\r\n\r\n    function getRandom(bytes memory data, uint256 amount)\r\n        external\r\n        view\r\n        onlyOperator\r\n        returns (uint256[] memory numbers, bool hasExtra)\r\n    {\r\n        uint256[] memory result = abi.decode(data, (uint256[]));\r\n\r\n        numbers = new uint256[](amount);\r\n        uint256 available = result.length;\r\n\r\n        for (uint256 i = 1; i <= amount; i++) {\r\n            uint256 randomNum = random(i) % available;\r\n\r\n            numbers[i - 1] = result[randomNum];\r\n\r\n            if (result[randomNum] > 39 && result[randomNum] < 44) {\r\n                // Number between 40 - 43, breeding replenishment\r\n                hasExtra = true;\r\n            }\r\n\r\n            result[randomNum] = result[result.length - i];\r\n\r\n            available--;\r\n        }\r\n    }\r\n\r\n    function setOperator(address operator, bool status) external onlyOwner {\r\n        isOperator[operator] = status;\r\n    }\r\n\r\n    function random(uint256 seed) internal view returns (uint256) {\r\n        return\r\n            uint256(\r\n                keccak256(\r\n                    abi.encodePacked(\r\n                        seed,\r\n                        block.timestamp,\r\n                        gasleft(),\r\n                        tx.origin\r\n                    )\r\n                )\r\n            );\r\n    }\r\n}\r\n",
  "sourcePath": "C:\\Testing\\contracts\\Randomizer.sol",
  "compiler": {
    "name": "solc",
    "version": "0.8.18+commit.87f61d96.Emscripten.clang"
  },
  "schemaVersion": "3.4.11",
  "updatedAt": "2023-02-09T20:40:38.910Z",
  "devdoc": {
    "kind": "dev",
    "methods": {
      "owner()": {
        "details": "Returns the address of the current owner."
      },
      "renounceOwnership()": {
        "details": "Leaves the contract without owner. It will not be possible to call `onlyOwner` functions anymore. Can only be called by the current owner. NOTE: Renouncing ownership will leave the contract without an owner, thereby removing any functionality that is only available to the owner."
      },
      "transferOwnership(address)": {
        "details": "Transfers ownership of the contract to a new account (`newOwner`). Can only be called by the current owner."
      }
    },
    "version": 1
  },
  "userdoc": {
    "kind": "user",
    "methods": {},
    "version": 1
  }
}