{
  "contractName": "BAP_APES",
  "abi": [
    {
      "inputs": [
        {
          "internalType": "address",
          "name": "_portalPass",
          "type": "address"
        },
        {
          "internalType": "address",
          "name": "_secret",
          "type": "address"
        }
      ],
      "stateMutability": "nonpayable",
      "type": "constructor"
    },
    {
      "anonymous": false,
      "inputs": [
        {
          "indexed": false,
          "internalType": "address",
          "name": "operator",
          "type": "address"
        },
        {
          "indexed": false,
          "internalType": "address",
          "name": "user",
          "type": "address"
        },
        {
          "indexed": false,
          "internalType": "uint256",
          "name": "amount",
          "type": "uint256"
        }
      ],
      "name": "Airdrop",
      "type": "event"
    },
    {
      "anonymous": false,
      "inputs": [
        {
          "indexed": true,
          "internalType": "address",
          "name": "owner",
          "type": "address"
        },
        {
          "indexed": true,
          "internalType": "address",
          "name": "approved",
          "type": "address"
        },
        {
          "indexed": true,
          "internalType": "uint256",
          "name": "tokenId",
          "type": "uint256"
        }
      ],
      "name": "Approval",
      "type": "event"
    },
    {
      "anonymous": false,
      "inputs": [
        {
          "indexed": true,
          "internalType": "address",
          "name": "owner",
          "type": "address"
        },
        {
          "indexed": true,
          "internalType": "address",
          "name": "operator",
          "type": "address"
        },
        {
          "indexed": false,
          "internalType": "bool",
          "name": "approved",
          "type": "bool"
        }
      ],
      "name": "ApprovalForAll",
      "type": "event"
    },
    {
      "anonymous": false,
      "inputs": [
        {
          "indexed": true,
          "internalType": "address",
          "name": "previousOwner",
          "type": "address"
        },
        {
          "indexed": true,
          "internalType": "address",
          "name": "newOwner",
          "type": "address"
        }
      ],
      "name": "OwnershipTransferred",
      "type": "event"
    },
    {
      "anonymous": false,
      "inputs": [
        {
          "indexed": false,
          "internalType": "address",
          "name": "operator",
          "type": "address"
        },
        {
          "indexed": false,
          "internalType": "address",
          "name": "user",
          "type": "address"
        },
        {
          "indexed": false,
          "internalType": "uint256",
          "name": "amount",
          "type": "uint256"
        }
      ],
      "name": "PassExchanged",
      "type": "event"
    },
    {
      "anonymous": false,
      "inputs": [
        {
          "indexed": false,
          "internalType": "address",
          "name": "operator",
          "type": "address"
        },
        {
          "indexed": false,
          "internalType": "address",
          "name": "user",
          "type": "address"
        },
        {
          "indexed": false,
          "internalType": "uint256",
          "name": "amount",
          "type": "uint256"
        }
      ],
      "name": "Purchased",
      "type": "event"
    },
    {
      "anonymous": false,
      "inputs": [
        {
          "indexed": false,
          "internalType": "address",
          "name": "user",
          "type": "address"
        },
        {
          "indexed": false,
          "internalType": "uint256",
          "name": "tokenId",
          "type": "uint256"
        }
      ],
      "name": "Refunded",
      "type": "event"
    },
    {
      "anonymous": false,
      "inputs": [
        {
          "indexed": false,
          "internalType": "address",
          "name": "user",
          "type": "address"
        },
        {
          "indexed": false,
          "internalType": "uint256",
          "name": "tokenId",
          "type": "uint256"
        },
        {
          "indexed": false,
          "internalType": "uint256",
          "name": "newTokenId",
          "type": "uint256"
        }
      ],
      "name": "TraitsChanged",
      "type": "event"
    },
    {
      "anonymous": false,
      "inputs": [
        {
          "indexed": true,
          "internalType": "address",
          "name": "from",
          "type": "address"
        },
        {
          "indexed": true,
          "internalType": "address",
          "name": "to",
          "type": "address"
        },
        {
          "indexed": true,
          "internalType": "uint256",
          "name": "tokenId",
          "type": "uint256"
        }
      ],
      "name": "Transfer",
      "type": "event"
    },
    {
      "inputs": [
        {
          "internalType": "address",
          "name": "to",
          "type": "address"
        },
        {
          "internalType": "uint256",
          "name": "tokenId",
          "type": "uint256"
        }
      ],
      "name": "approve",
      "outputs": [],
      "stateMutability": "nonpayable",
      "type": "function"
    },
    {
      "inputs": [
        {
          "internalType": "address",
          "name": "owner",
          "type": "address"
        }
      ],
      "name": "balanceOf",
      "outputs": [
        {
          "internalType": "uint256",
          "name": "",
          "type": "uint256"
        }
      ],
      "stateMutability": "view",
      "type": "function"
    },
    {
      "inputs": [
        {
          "internalType": "uint256",
          "name": "tokenId",
          "type": "uint256"
        }
      ],
      "name": "getApproved",
      "outputs": [
        {
          "internalType": "address",
          "name": "",
          "type": "address"
        }
      ],
      "stateMutability": "view",
      "type": "function"
    },
    {
      "inputs": [
        {
          "internalType": "address",
          "name": "owner",
          "type": "address"
        },
        {
          "internalType": "address",
          "name": "operator",
          "type": "address"
        }
      ],
      "name": "isApprovedForAll",
      "outputs": [
        {
          "internalType": "bool",
          "name": "",
          "type": "bool"
        }
      ],
      "stateMutability": "view",
      "type": "function"
    },
    {
      "inputs": [
        {
          "internalType": "address",
          "name": "",
          "type": "address"
        }
      ],
      "name": "isOrchestrator",
      "outputs": [
        {
          "internalType": "bool",
          "name": "",
          "type": "bool"
        }
      ],
      "stateMutability": "view",
      "type": "function"
    },
    {
      "inputs": [],
      "name": "maxSupply",
      "outputs": [
        {
          "internalType": "uint256",
          "name": "",
          "type": "uint256"
        }
      ],
      "stateMutability": "view",
      "type": "function"
    },
    {
      "inputs": [],
      "name": "mintLimit",
      "outputs": [
        {
          "internalType": "uint256",
          "name": "",
          "type": "uint256"
        }
      ],
      "stateMutability": "view",
      "type": "function"
    },
    {
      "inputs": [
        {
          "internalType": "uint256",
          "name": "",
          "type": "uint256"
        }
      ],
      "name": "mintingDate",
      "outputs": [
        {
          "internalType": "uint256",
          "name": "",
          "type": "uint256"
        }
      ],
      "stateMutability": "view",
      "type": "function"
    },
    {
      "inputs": [
        {
          "internalType": "uint256",
          "name": "",
          "type": "uint256"
        }
      ],
      "name": "mintingPrice",
      "outputs": [
        {
          "internalType": "uint256",
          "name": "",
          "type": "uint256"
        }
      ],
      "stateMutability": "view",
      "type": "function"
    },
    {
      "inputs": [],
      "name": "name",
      "outputs": [
        {
          "internalType": "string",
          "name": "",
          "type": "string"
        }
      ],
      "stateMutability": "view",
      "type": "function"
    },
    {
      "inputs": [
        {
          "internalType": "uint256",
          "name": "",
          "type": "uint256"
        }
      ],
      "name": "notRefundable",
      "outputs": [
        {
          "internalType": "bool",
          "name": "",
          "type": "bool"
        }
      ],
      "stateMutability": "view",
      "type": "function"
    },
    {
      "inputs": [],
      "name": "owner",
      "outputs": [
        {
          "internalType": "address",
          "name": "",
          "type": "address"
        }
      ],
      "stateMutability": "view",
      "type": "function"
    },
    {
      "inputs": [
        {
          "internalType": "uint256",
          "name": "tokenId",
          "type": "uint256"
        }
      ],
      "name": "ownerOf",
      "outputs": [
        {
          "internalType": "address",
          "name": "",
          "type": "address"
        }
      ],
      "stateMutability": "view",
      "type": "function"
    },
    {
      "inputs": [],
      "name": "portalPass",
      "outputs": [
        {
          "internalType": "contract IERC1155",
          "name": "",
          "type": "address"
        }
      ],
      "stateMutability": "view",
      "type": "function"
    },
    {
      "inputs": [],
      "name": "publicSupply",
      "outputs": [
        {
          "internalType": "uint256",
          "name": "",
          "type": "uint256"
        }
      ],
      "stateMutability": "view",
      "type": "function"
    },
    {
      "inputs": [],
      "name": "renounceOwnership",
      "outputs": [],
      "stateMutability": "nonpayable",
      "type": "function"
    },
    {
      "inputs": [],
      "name": "reservedSuply",
      "outputs": [
        {
          "internalType": "uint256",
          "name": "",
          "type": "uint256"
        }
      ],
      "stateMutability": "view",
      "type": "function"
    },
    {
      "inputs": [],
      "name": "secret",
      "outputs": [
        {
          "internalType": "address",
          "name": "",
          "type": "address"
        }
      ],
      "stateMutability": "view",
      "type": "function"
    },
    {
      "inputs": [
        {
          "internalType": "address",
          "name": "operator",
          "type": "address"
        },
        {
          "internalType": "bool",
          "name": "approved",
          "type": "bool"
        }
      ],
      "name": "setApprovalForAll",
      "outputs": [],
      "stateMutability": "nonpayable",
      "type": "function"
    },
    {
      "inputs": [
        {
          "internalType": "bytes4",
          "name": "interfaceId",
          "type": "bytes4"
        }
      ],
      "name": "supportsInterface",
      "outputs": [
        {
          "internalType": "bool",
          "name": "",
          "type": "bool"
        }
      ],
      "stateMutability": "view",
      "type": "function"
    },
    {
      "inputs": [],
      "name": "symbol",
      "outputs": [
        {
          "internalType": "string",
          "name": "",
          "type": "string"
        }
      ],
      "stateMutability": "view",
      "type": "function"
    },
    {
      "inputs": [
        {
          "internalType": "uint256",
          "name": "",
          "type": "uint256"
        }
      ],
      "name": "tierPrices",
      "outputs": [
        {
          "internalType": "uint256",
          "name": "",
          "type": "uint256"
        }
      ],
      "stateMutability": "view",
      "type": "function"
    },
    {
      "inputs": [
        {
          "internalType": "uint256",
          "name": "index",
          "type": "uint256"
        }
      ],
      "name": "tokenByIndex",
      "outputs": [
        {
          "internalType": "uint256",
          "name": "",
          "type": "uint256"
        }
      ],
      "stateMutability": "view",
      "type": "function"
    },
    {
      "inputs": [
        {
          "internalType": "address",
          "name": "owner",
          "type": "address"
        },
        {
          "internalType": "uint256",
          "name": "index",
          "type": "uint256"
        }
      ],
      "name": "tokenOfOwnerByIndex",
      "outputs": [
        {
          "internalType": "uint256",
          "name": "",
          "type": "uint256"
        }
      ],
      "stateMutability": "view",
      "type": "function"
    },
    {
      "inputs": [],
      "name": "totalSupply",
      "outputs": [
        {
          "internalType": "uint256",
          "name": "",
          "type": "uint256"
        }
      ],
      "stateMutability": "view",
      "type": "function"
    },
    {
      "inputs": [
        {
          "internalType": "address",
          "name": "newOwner",
          "type": "address"
        }
      ],
      "name": "transferOwnership",
      "outputs": [],
      "stateMutability": "nonpayable",
      "type": "function"
    },
    {
      "inputs": [],
      "name": "trasurySuply",
      "outputs": [
        {
          "internalType": "uint256",
          "name": "",
          "type": "uint256"
        }
      ],
      "stateMutability": "view",
      "type": "function"
    },
    {
      "inputs": [],
      "name": "treasury",
      "outputs": [
        {
          "internalType": "address",
          "name": "",
          "type": "address"
        }
      ],
      "stateMutability": "view",
      "type": "function"
    },
    {
      "inputs": [
        {
          "internalType": "address",
          "name": "",
          "type": "address"
        },
        {
          "internalType": "uint256",
          "name": "",
          "type": "uint256"
        }
      ],
      "name": "walletMinted",
      "outputs": [
        {
          "internalType": "uint256",
          "name": "",
          "type": "uint256"
        }
      ],
      "stateMutability": "view",
      "type": "function"
    },
    {
      "inputs": [
        {
          "internalType": "address",
          "name": "to",
          "type": "address"
        },
        {
          "internalType": "uint256",
          "name": "amount",
          "type": "uint256"
        },
        {
          "internalType": "uint256",
          "name": "tier",
          "type": "uint256"
        },
        {
          "internalType": "bytes",
          "name": "signature",
          "type": "bytes"
        }
      ],
      "name": "purchase",
      "outputs": [],
      "stateMutability": "payable",
      "type": "function"
    },
    {
      "inputs": [
        {
          "internalType": "address",
          "name": "to",
          "type": "address"
        },
        {
          "internalType": "uint256",
          "name": "amount",
          "type": "uint256"
        }
      ],
      "name": "airdrop",
      "outputs": [],
      "stateMutability": "nonpayable",
      "type": "function"
    },
    {
      "inputs": [
        {
          "internalType": "address",
          "name": "to",
          "type": "address"
        },
        {
          "internalType": "uint256",
          "name": "amount",
          "type": "uint256"
        }
      ],
      "name": "exchangePass",
      "outputs": [],
      "stateMutability": "nonpayable",
      "type": "function"
    },
    {
      "inputs": [
        {
          "internalType": "uint256",
          "name": "tokenId",
          "type": "uint256"
        }
      ],
      "name": "confirmChange",
      "outputs": [],
      "stateMutability": "nonpayable",
      "type": "function"
    },
    {
      "inputs": [
        {
          "internalType": "address",
          "name": "depositAddress",
          "type": "address"
        },
        {
          "internalType": "uint256",
          "name": "tokenId",
          "type": "uint256"
        }
      ],
      "name": "refund",
      "outputs": [],
      "stateMutability": "nonpayable",
      "type": "function"
    },
    {
      "inputs": [
        {
          "internalType": "uint256",
          "name": "newLimit",
          "type": "uint256"
        }
      ],
      "name": "setMintLimit",
      "outputs": [],
      "stateMutability": "nonpayable",
      "type": "function"
    },
    {
      "inputs": [
        {
          "internalType": "string",
          "name": "newURI",
          "type": "string"
        }
      ],
      "name": "setBaseURI",
      "outputs": [],
      "stateMutability": "nonpayable",
      "type": "function"
    },
    {
      "inputs": [
        {
          "internalType": "address",
          "name": "_secret",
          "type": "address"
        }
      ],
      "name": "setSecret",
      "outputs": [],
      "stateMutability": "nonpayable",
      "type": "function"
    },
    {
      "inputs": [
        {
          "internalType": "address",
          "name": "_treasury",
          "type": "address"
        }
      ],
      "name": "setTreasury",
      "outputs": [],
      "stateMutability": "nonpayable",
      "type": "function"
    },
    {
      "inputs": [
        {
          "internalType": "address",
          "name": "_portalPass",
          "type": "address"
        }
      ],
      "name": "setPortalPass",
      "outputs": [],
      "stateMutability": "nonpayable",
      "type": "function"
    },
    {
      "inputs": [
        {
          "internalType": "address",
          "name": "operator",
          "type": "address"
        },
        {
          "internalType": "bool",
          "name": "status",
          "type": "bool"
        }
      ],
      "name": "setOrchestrator",
      "outputs": [],
      "stateMutability": "nonpayable",
      "type": "function"
    },
    {
      "inputs": [
        {
          "internalType": "address",
          "name": "_address",
          "type": "address"
        },
        {
          "internalType": "uint256",
          "name": "amount",
          "type": "uint256"
        }
      ],
      "name": "withdrawETH",
      "outputs": [],
      "stateMutability": "nonpayable",
      "type": "function"
    },
    {
      "inputs": [
        {
          "internalType": "uint256",
          "name": "tokenId",
          "type": "uint256"
        }
      ],
      "name": "tokenURI",
      "outputs": [
        {
          "internalType": "string",
          "name": "",
          "type": "string"
        }
      ],
      "stateMutability": "view",
      "type": "function"
    },
    {
      "inputs": [
        {
          "internalType": "address",
          "name": "from",
          "type": "address"
        },
        {
          "internalType": "address",
          "name": "to",
          "type": "address"
        },
        {
          "internalType": "uint256",
          "name": "tokenId",
          "type": "uint256"
        }
      ],
      "name": "transferFrom",
      "outputs": [],
      "stateMutability": "nonpayable",
      "type": "function"
    },
    {
      "inputs": [
        {
          "internalType": "address",
          "name": "from",
          "type": "address"
        },
        {
          "internalType": "address",
          "name": "to",
          "type": "address"
        },
        {
          "internalType": "uint256",
          "name": "tokenId",
          "type": "uint256"
        }
      ],
      "name": "safeTransferFrom",
      "outputs": [],
      "stateMutability": "nonpayable",
      "type": "function"
    },
    {
      "inputs": [
        {
          "internalType": "address",
          "name": "from",
          "type": "address"
        },
        {
          "internalType": "address",
          "name": "to",
          "type": "address"
        },
        {
          "internalType": "uint256",
          "name": "tokenId",
          "type": "uint256"
        },
        {
          "internalType": "bytes",
          "name": "data",
          "type": "bytes"
        }
      ],
      "name": "safeTransferFrom",
      "outputs": [],
      "stateMutability": "nonpayable",
      "type": "function"
    },
    {
      "inputs": [
        {
          "internalType": "uint256",
          "name": "tokenId",
          "type": "uint256"
        }
      ],
      "name": "exists",
      "outputs": [
        {
          "internalType": "bool",
          "name": "",
          "type": "bool"
        }
      ],
      "stateMutability": "view",
      "type": "function"
    }
  ],
  "bytecode": "0x6080604052612710600d556002600e55610dac600f556113886010556105dc6011556040518060c0016040528067030d98d59a96000067ffffffffffffffff1681526020016703bf3b91c95b000067ffffffffffffffff168152602001670429d069189e000067ffffffffffffffff168152602001670494654067e1000067ffffffffffffffff168152602001670494654067e1000067ffffffffffffffff168152602001670522810a26e5000067ffffffffffffffff168152506012906006620000cc92919062000312565b50348015620000da57600080fd5b5060405162006229380380620062298339818101604052810190620001009190620003f9565b6040518060400160405280600881526020017f42415020415045530000000000000000000000000000000000000000000000008152506040518060400160405280600481526020017f415045530000000000000000000000000000000000000000000000000000000081525081600090816200017d9190620006ba565b5080600190816200018f9190620006ba565b505050620001b2620001a66200024460201b60201c565b6200024c60201b60201c565b6001600b8190555081601360006101000a81548173ffffffffffffffffffffffffffffffffffffffff021916908373ffffffffffffffffffffffffffffffffffffffff16021790555080601460006101000a81548173ffffffffffffffffffffffffffffffffffffffff021916908373ffffffffffffffffffffffffffffffffffffffff1602179055505050620007a1565b600033905090565b6000600a60009054906101000a900473ffffffffffffffffffffffffffffffffffffffff16905081600a60006101000a81548173ffffffffffffffffffffffffffffffffffffffff021916908373ffffffffffffffffffffffffffffffffffffffff1602179055508173ffffffffffffffffffffffffffffffffffffffff168173ffffffffffffffffffffffffffffffffffffffff167f8be0079c531659141344cd1fd0a4f28419497f9722a3daafe3b4186f6b6457e060405160405180910390a35050565b8280548282559060005260206000209081019282156200035d579160200282015b828111156200035c578251829067ffffffffffffffff1690559160200191906001019062000333565b5b5090506200036c919062000370565b5090565b5b808211156200038b57600081600090555060010162000371565b5090565b600080fd5b600073ffffffffffffffffffffffffffffffffffffffff82169050919050565b6000620003c18262000394565b9050919050565b620003d381620003b4565b8114620003df57600080fd5b50565b600081519050620003f381620003c8565b92915050565b600080604083850312156200041357620004126200038f565b5b60006200042385828601620003e2565b92505060206200043685828601620003e2565b9150509250929050565b600081519050919050565b7f4e487b7100000000000000000000000000000000000000000000000000000000600052604160045260246000fd5b7f4e487b7100000000000000000000000000000000000000000000000000000000600052602260045260246000fd5b60006002820490506001821680620004c257607f821691505b602082108103620004d857620004d76200047a565b5b50919050565b60008190508160005260206000209050919050565b60006020601f8301049050919050565b600082821b905092915050565b600060088302620005427fffffffffffffffffffffffffffffffffffffffffffffffffffffffffffffffff8262000503565b6200054e868362000503565b95508019841693508086168417925050509392505050565b6000819050919050565b6000819050919050565b60006200059b620005956200058f8462000566565b62000570565b62000566565b9050919050565b6000819050919050565b620005b7836200057a565b620005cf620005c682620005a2565b84845462000510565b825550505050565b600090565b620005e6620005d7565b620005f3818484620005ac565b505050565b5b818110156200061b576200060f600082620005dc565b600181019050620005f9565b5050565b601f8211156200066a576200063481620004de565b6200063f84620004f3565b810160208510156200064f578190505b620006676200065e85620004f3565b830182620005f8565b50505b505050565b600082821c905092915050565b60006200068f600019846008026200066f565b1980831691505092915050565b6000620006aa83836200067c565b9150826002028217905092915050565b620006c58262000440565b67ffffffffffffffff811115620006e157620006e06200044b565b5b620006ed8254620004a9565b620006fa8282856200061f565b600060209050601f8311600181146200073257600084156200071d578287015190505b6200072985826200069c565b86555062000799565b601f1984166200074286620004de565b60005b828110156200076c5784890151825560018201915060208501945060208101905062000745565b868310156200078c578489015162000788601f8916826200067c565b8355505b6001600288020188555050505b505050505050565b615a7880620007b16000396000f3fe60806040526004361061027d5760003560e01c806370a082311161014f578063c87b56dd116100c1578063e9a7484c1161007a578063e9a7484c14610a1a578063eea3ea3f14610a43578063f0f4426014610a5f578063f2fde38b14610a88578063fd1d637b14610ab1578063fef8b1e214610adc5761027d565b8063c87b56dd146108e2578063d17958441461091f578063d1efd30d1461094a578063d5abeb0114610975578063d701dcbd146109a0578063e985e9c5146109dd5761027d565b8063996517cf11610113578063996517cf146107d65780639e6a1d7d14610801578063a22cb4651461082a578063a4110aa814610853578063b88d4fde1461087c578063c07043da146108a55761027d565b806370a0823114610703578063715018a6146107405780638ba4cc3c146107575780638da5cb5b1461078057806395d89b41146107ab5761027d565b8063410085df116101f357806355f804b3116101ac57806355f804b3146105cd57806357c4c297146105f65780635e84d7231461063357806361d027b31461065e5780636352211e14610689578063653e3b20146106c65761027d565b8063410085df146104af57806342842e0e146104d85780634782f779146105015780634b8adc5a1461052a5780634f558e79146105535780634f6ccce7146105905761027d565b8063170ef8b511610245578063170ef8b51461038d57806318160ddd146103b65780631f48aff8146103e157806323b872dd1461040c5780632f745c5914610435578063300eccab146104725761027d565b806301ffc9a71461028257806306fdde03146102bf578063081812fc146102ea578063095ea7b31461032757806314905abc14610350575b600080fd5b34801561028e57600080fd5b506102a960048036038101906102a491906139d6565b610b05565b6040516102b69190613a1e565b60405180910390f35b3480156102cb57600080fd5b506102d4610b7f565b6040516102e19190613ac9565b60405180910390f35b3480156102f657600080fd5b50610311600480360381019061030c9190613b21565b610c11565b60405161031e9190613b8f565b60405180910390f35b34801561033357600080fd5b5061034e60048036038101906103499190613bd6565b610c57565b005b34801561035c57600080fd5b5061037760048036038101906103729190613bd6565b610d6e565b6040516103849190613c25565b60405180910390f35b34801561039957600080fd5b506103b460048036038101906103af9190613b21565b610d93565b005b3480156103c257600080fd5b506103cb610e91565b6040516103d89190613c25565b60405180910390f35b3480156103ed57600080fd5b506103f6610e9e565b6040516104039190613c9f565b60405180910390f35b34801561041857600080fd5b50610433600480360381019061042e9190613cba565b610ec4565b005b34801561044157600080fd5b5061045c60048036038101906104579190613bd6565b610edd565b6040516104699190613c25565b60405180910390f35b34801561047e57600080fd5b5061049960048036038101906104949190613b21565b610f82565b6040516104a69190613c25565b60405180910390f35b3480156104bb57600080fd5b506104d660048036038101906104d19190613bd6565b610fa6565b005b3480156104e457600080fd5b506104ff60048036038101906104fa9190613cba565b61123c565b005b34801561050d57600080fd5b5061052860048036038101906105239190613bd6565b611265565b005b34801561053657600080fd5b50610551600480360381019061054c9190613d39565b611371565b005b34801561055f57600080fd5b5061057a60048036038101906105759190613b21565b6113d4565b6040516105879190613a1e565b60405180910390f35b34801561059c57600080fd5b506105b760048036038101906105b29190613b21565b6113e6565b6040516105c49190613c25565b60405180910390f35b3480156105d957600080fd5b506105f460048036038101906105ef9190613eae565b611457565b005b34801561060257600080fd5b5061061d60048036038101906106189190613b21565b611472565b60405161062a9190613a1e565b60405180910390f35b34801561063f57600080fd5b50610648611492565b6040516106559190613c25565b60405180910390f35b34801561066a57600080fd5b50610673611498565b6040516106809190613b8f565b60405180910390f35b34801561069557600080fd5b506106b060048036038101906106ab9190613b21565b6114be565b6040516106bd9190613b8f565b60405180910390f35b3480156106d257600080fd5b506106ed60048036038101906106e89190613b21565b611544565b6040516106fa9190613c25565b60405180910390f35b34801561070f57600080fd5b5061072a60048036038101906107259190613ef7565b61155c565b6040516107379190613c25565b60405180910390f35b34801561074c57600080fd5b50610755611613565b005b34801561076357600080fd5b5061077e60048036038101906107799190613bd6565b611627565b005b34801561078c57600080fd5b506107956116e8565b6040516107a29190613b8f565b60405180910390f35b3480156107b757600080fd5b506107c0611712565b6040516107cd9190613ac9565b60405180910390f35b3480156107e257600080fd5b506107eb6117a4565b6040516107f89190613c25565b60405180910390f35b34801561080d57600080fd5b5061082860048036038101906108239190613b21565b6117aa565b005b34801561083657600080fd5b50610851600480360381019061084c9190613d39565b6117bc565b005b34801561085f57600080fd5b5061087a60048036038101906108759190613bd6565b6117d2565b005b34801561088857600080fd5b506108a3600480360381019061089e9190613fc5565b61192f565b005b3480156108b157600080fd5b506108cc60048036038101906108c79190613b21565b611991565b6040516108d99190613c25565b60405180910390f35b3480156108ee57600080fd5b5061090960048036038101906109049190613b21565b6119a9565b6040516109169190613ac9565b60405180910390f35b34801561092b57600080fd5b50610934611a25565b6040516109419190613c25565b60405180910390f35b34801561095657600080fd5b5061095f611a2b565b60405161096c9190613b8f565b60405180910390f35b34801561098157600080fd5b5061098a611a51565b6040516109979190613c25565b60405180910390f35b3480156109ac57600080fd5b506109c760048036038101906109c29190613ef7565b611a57565b6040516109d49190613a1e565b60405180910390f35b3480156109e957600080fd5b50610a0460048036038101906109ff9190614048565b611a77565b604051610a119190613a1e565b60405180910390f35b348015610a2657600080fd5b50610a416004803603810190610a3c9190613ef7565b611b0b565b005b610a5d6004803603810190610a589190614088565b611b57565b005b348015610a6b57600080fd5b50610a866004803603810190610a819190613ef7565b611e48565b005b348015610a9457600080fd5b50610aaf6004803603810190610aaa9190613ef7565b611e94565b005b348015610abd57600080fd5b50610ac6611f17565b604051610ad39190613c25565b60405180910390f35b348015610ae857600080fd5b50610b036004803603810190610afe9190613ef7565b611f1d565b005b60007f780e9d63000000000000000000000000000000000000000000000000000000007bffffffffffffffffffffffffffffffffffffffffffffffffffffffff1916827bffffffffffffffffffffffffffffffffffffffffffffffffffffffff19161480610b785750610b7782611f69565b5b9050919050565b606060008054610b8e9061413a565b80601f0160208091040260200160405190810160405280929190818152602001828054610bba9061413a565b8015610c075780601f10610bdc57610100808354040283529160200191610c07565b820191906000526020600020905b815481529060010190602001808311610bea57829003601f168201915b5050505050905090565b6000610c1c8261204b565b6004600083815260200190815260200160002060009054906101000a900473ffffffffffffffffffffffffffffffffffffffff169050919050565b6000610c62826114be565b90508073ffffffffffffffffffffffffffffffffffffffff168373ffffffffffffffffffffffffffffffffffffffff1603610cd2576040517f08c379a0000000000000000000000000000000000000000000000000000000008152600401610cc9906141dd565b60405180910390fd5b8073ffffffffffffffffffffffffffffffffffffffff16610cf1612096565b73ffffffffffffffffffffffffffffffffffffffff161480610d205750610d1f81610d1a612096565b611a77565b5b610d5f576040517f08c379a0000000000000000000000000000000000000000000000000000000008152600401610d569061426f565b60405180910390fd5b610d69838361209e565b505050565b601a602052816000526040600020602052806000526040600020600091509150505481565b601960003373ffffffffffffffffffffffffffffffffffffffff1673ffffffffffffffffffffffffffffffffffffffff16815260200190815260200160002060009054906101000a900460ff16610e1f576040517f08c379a0000000000000000000000000000000000000000000000000000000008152600401610e16906142db565b60405180910390fd5b6000610e2a826114be565b9050610e3582612157565b600061271083610e45919061432a565b9050610e5182826122a5565b7f5b8c9d7f82535e4c0152bddd0e30ac0284d94ef918961acc3897a609cc583407828483604051610e849392919061435e565b60405180910390a1505050565b6000600880549050905090565b601360009054906101000a900473ffffffffffffffffffffffffffffffffffffffff1681565b610ecd816122c3565b610ed8838383612345565b505050565b6000610ee88361155c565b8210610f29576040517f08c379a0000000000000000000000000000000000000000000000000000000008152600401610f2090614407565b60405180910390fd5b600660008473ffffffffffffffffffffffffffffffffffffffff1673ffffffffffffffffffffffffffffffffffffffff168152602001908152602001600020600083815260200190815260200160002054905092915050565b60128181548110610f9257600080fd5b906000526020600020016000915090505481565b601960003373ffffffffffffffffffffffffffffffffffffffff1673ffffffffffffffffffffffffffffffffffffffff16815260200190815260200160002060009054906101000a900460ff16611032576040517f08c379a0000000000000000000000000000000000000000000000000000000008152600401611029906142db565b60405180910390fd5b6000601660008381526020019081526020016000205490506000811161108d576040517f08c379a000000000000000000000000000000000000000000000000000000000815260040161108490614499565b60405180910390fd5b6018600083815260200190815260200160002060009054906101000a900460ff16156110ee576040517f08c379a00000000000000000000000000000000000000000000000000000000081526004016110e59061452b565b60405180910390fd5b8273ffffffffffffffffffffffffffffffffffffffff1661110e836114be565b73ffffffffffffffffffffffffffffffffffffffff1614611164576040517f08c379a000000000000000000000000000000000000000000000000000000000815260040161115b906145bd565b60405180910390fd5b61119183601560009054906101000a900473ffffffffffffffffffffffffffffffffffffffff16846123a5565b60008373ffffffffffffffffffffffffffffffffffffffff16826040516111b79061460e565b60006040518083038185875af1925050503d80600081146111f4576040519150601f19603f3d011682016040523d82523d6000602084013e6111f9565b606091505b505090507fd7dee2702d63ad89917b6a4da9981c90c4d24f8c2bdfd64c604ecae57d8d0651848460405161122e929190614623565b60405180910390a150505050565b611245816122c3565b6112608383836040518060200160405280600081525061192f565b505050565b61126d61269e565b6112756126ed565b478111156112b8576040517f08c379a00000000000000000000000000000000000000000000000000000000081526004016112af90614698565b60405180910390fd5b60008273ffffffffffffffffffffffffffffffffffffffff16826040516112de9061460e565b60006040518083038185875af1925050503d806000811461131b576040519150601f19603f3d011682016040523d82523d6000602084013e611320565b606091505b5050905080611364576040517f08c379a000000000000000000000000000000000000000000000000000000000815260040161135b90614704565b60405180910390fd5b5061136d61276b565b5050565b6113796126ed565b80601960008473ffffffffffffffffffffffffffffffffffffffff1673ffffffffffffffffffffffffffffffffffffffff16815260200190815260200160002060006101000a81548160ff0219169083151502179055505050565b60006113df82612775565b9050919050565b60006113f0610e91565b8210611431576040517f08c379a000000000000000000000000000000000000000000000000000000000815260040161142890614796565b60405180910390fd5b60088281548110611445576114446147b6565b5b90600052602060002001549050919050565b61145f6126ed565b80600c908161146e9190614987565b5050565b60186020528060005260406000206000915054906101000a900460ff1681565b600f5481565b601560009054906101000a900473ffffffffffffffffffffffffffffffffffffffff1681565b6000806114ca836127b6565b9050600073ffffffffffffffffffffffffffffffffffffffff168173ffffffffffffffffffffffffffffffffffffffff160361153b576040517f08c379a000000000000000000000000000000000000000000000000000000000815260040161153290614aa5565b60405180910390fd5b80915050919050565b60176020528060005260406000206000915090505481565b60008073ffffffffffffffffffffffffffffffffffffffff168273ffffffffffffffffffffffffffffffffffffffff16036115cc576040517f08c379a00000000000000000000000000000000000000000000000000000000081526004016115c390614b37565b60405180910390fd5b600360008373ffffffffffffffffffffffffffffffffffffffff1673ffffffffffffffffffffffffffffffffffffffff168152602001908152602001600020549050919050565b61161b6126ed565b61162560006127f3565b565b61162f61269e565b6116376126ed565b60115481111561167c576040517f08c379a000000000000000000000000000000000000000000000000000000000815260040161167390614ba3565b60405180910390fd5b806011600082825461168e9190614bc3565b925050819055506116a1828260006128b9565b7f8986d2aad709d6d52ca7673e78442a1ac939dc024b80334c27ca759e7658a0283383836040516116d493929190614bf7565b60405180910390a16116e461276b565b5050565b6000600a60009054906101000a900473ffffffffffffffffffffffffffffffffffffffff16905090565b6060600180546117219061413a565b80601f016020809104026020016040519081016040528092919081815260200182805461174d9061413a565b801561179a5780601f1061176f5761010080835404028352916020019161179a565b820191906000526020600020905b81548152906001019060200180831161177d57829003601f168201915b5050505050905090565b600e5481565b6117b26126ed565b80600e8190555050565b6117ce6117c7612096565b8383612988565b5050565b601054811115611817576040517f08c379a000000000000000000000000000000000000000000000000000000000815260040161180e90614c7a565b60405180910390fd5b601360009054906101000a900473ffffffffffffffffffffffffffffffffffffffff1673ffffffffffffffffffffffffffffffffffffffff1663f242432a3361dead6001856040518563ffffffff1660e01b815260040161187b9493929190614d32565b600060405180830381600087803b15801561189557600080fd5b505af11580156118a9573d6000803e3d6000fd5b5050505080601060008282546118bf9190614bc3565b925050819055506118f0828260126000815481106118e0576118df6147b6565b5b90600052602060002001546128b9565b7f9ec4ef3a4be52aa02384ce7773b44786c26ed9f19573a6605985b2ebf069737b33838360405161192393929190614bf7565b60405180910390a15050565b61194061193a612096565b83612af4565b61197f576040517f08c379a000000000000000000000000000000000000000000000000000000000815260040161197690614dfc565b60405180910390fd5b61198b84848484612b89565b50505050565b60166020528060005260406000206000915090505481565b60606119b482612775565b6119f3576040517f08c379a00000000000000000000000000000000000000000000000000000000081526004016119ea90614e8e565b60405180910390fd5b600c6119fe83612be5565b604051602001611a0f929190614f6d565b6040516020818303038152906040529050919050565b60105481565b601460009054906101000a900473ffffffffffffffffffffffffffffffffffffffff1681565b600d5481565b60196020528060005260406000206000915054906101000a900460ff1681565b6000600560008473ffffffffffffffffffffffffffffffffffffffff1673ffffffffffffffffffffffffffffffffffffffff16815260200190815260200160002060008373ffffffffffffffffffffffffffffffffffffffff1673ffffffffffffffffffffffffffffffffffffffff16815260200190815260200160002060009054906101000a900460ff16905092915050565b611b136126ed565b80601460006101000a81548173ffffffffffffffffffffffffffffffffffffffff021916908373ffffffffffffffffffffffffffffffffffffffff16021790555050565b6005821115611b9b576040517f08c379a0000000000000000000000000000000000000000000000000000000008152600401611b9290614fdd565b60405180910390fd5b600f54831115611be0576040517f08c379a0000000000000000000000000000000000000000000000000000000008152600401611bd790615049565b60405180910390fd5b600e54601a60008673ffffffffffffffffffffffffffffffffffffffff1673ffffffffffffffffffffffffffffffffffffffff16815260200190815260200160002060008481526020019081526020016000205484611c3f919061432a565b1115611c80576040517f08c379a0000000000000000000000000000000000000000000000000000000008152600401611c77906150b5565b60405180910390fd5b3460128381548110611c9557611c946147b6565b5b906000526020600020015484611cab91906150d5565b14611ceb576040517f08c379a0000000000000000000000000000000000000000000000000000000008152600401611ce290615163565b60405180910390fd5b611d1f838386604051602001611d0393929190615183565b6040516020818303038152906040528051906020012082612cb3565b611d5e576040517f08c379a0000000000000000000000000000000000000000000000000000000008152600401611d5590615206565b60405180910390fd5b82601a60008673ffffffffffffffffffffffffffffffffffffffff1673ffffffffffffffffffffffffffffffffffffffff16815260200190815260200160002060008481526020019081526020016000206000828254611dbe919061432a565b9250508190555082600f6000828254611dd79190614bc3565b92505081905550611e07848460128581548110611df757611df66147b6565b5b90600052602060002001546128b9565b7f3938ed494a2ac43205578f4190dcbdd61333ef5924e2db9ff8e6c3a204f840a6338585604051611e3a93929190614bf7565b60405180910390a150505050565b611e506126ed565b80601560006101000a81548173ffffffffffffffffffffffffffffffffffffffff021916908373ffffffffffffffffffffffffffffffffffffffff16021790555050565b611e9c6126ed565b600073ffffffffffffffffffffffffffffffffffffffff168173ffffffffffffffffffffffffffffffffffffffff1603611f0b576040517f08c379a0000000000000000000000000000000000000000000000000000000008152600401611f0290615298565b60405180910390fd5b611f14816127f3565b50565b60115481565b611f256126ed565b80601360006101000a81548173ffffffffffffffffffffffffffffffffffffffff021916908373ffffffffffffffffffffffffffffffffffffffff16021790555050565b60007f80ac58cd000000000000000000000000000000000000000000000000000000007bffffffffffffffffffffffffffffffffffffffffffffffffffffffff1916827bffffffffffffffffffffffffffffffffffffffffffffffffffffffff1916148061203457507f5b5e139f000000000000000000000000000000000000000000000000000000007bffffffffffffffffffffffffffffffffffffffffffffffffffffffff1916827bffffffffffffffffffffffffffffffffffffffffffffffffffffffff1916145b80612044575061204382612dfb565b5b9050919050565b61205481612775565b612093576040517f08c379a000000000000000000000000000000000000000000000000000000000815260040161208a90614aa5565b60405180910390fd5b50565b600033905090565b816004600083815260200190815260200160002060006101000a81548173ffffffffffffffffffffffffffffffffffffffff021916908373ffffffffffffffffffffffffffffffffffffffff160217905550808273ffffffffffffffffffffffffffffffffffffffff16612111836114be565b73ffffffffffffffffffffffffffffffffffffffff167f8c5be1e5ebec7d5bd14f71427d1e84f3dd0314c0f7b2291e5b200ac8c7c3b92560405160405180910390a45050565b6000612162826114be565b9050612172816000846001612e65565b61217b826114be565b90506004600083815260200190815260200160002060006101000a81549073ffffffffffffffffffffffffffffffffffffffff02191690556001600360008373ffffffffffffffffffffffffffffffffffffffff1673ffffffffffffffffffffffffffffffffffffffff168152602001908152602001600020600082825403925050819055506002600083815260200190815260200160002060006101000a81549073ffffffffffffffffffffffffffffffffffffffff021916905581600073ffffffffffffffffffffffffffffffffffffffff168273ffffffffffffffffffffffffffffffffffffffff167fddf252ad1be2c89b69c2b068fc378daa952ba7f163c4a11628f55a4df523b3ef60405160405180910390a46122a1816000846001612fc3565b5050565b6122bf828260405180602001604052806000815250612fc9565b5050565b612a3060176000838152602001908152602001600020546122e4919061432a565b4211801561231057506018600082815260200190815260200160002060009054906101000a900460ff16155b156123425760016018600083815260200190815260200160002060006101000a81548160ff0219169083151502179055505b50565b612356612350612096565b82612af4565b612395576040517f08c379a000000000000000000000000000000000000000000000000000000000815260040161238c90614dfc565b60405180910390fd5b6123a08383836123a5565b505050565b8273ffffffffffffffffffffffffffffffffffffffff166123c5826114be565b73ffffffffffffffffffffffffffffffffffffffff161461241b576040517f08c379a00000000000000000000000000000000000000000000000000000000081526004016124129061532a565b60405180910390fd5b600073ffffffffffffffffffffffffffffffffffffffff168273ffffffffffffffffffffffffffffffffffffffff160361248a576040517f08c379a0000000000000000000000000000000000000000000000000000000008152600401612481906153bc565b60405180910390fd5b6124978383836001612e65565b8273ffffffffffffffffffffffffffffffffffffffff166124b7826114be565b73ffffffffffffffffffffffffffffffffffffffff161461250d576040517f08c379a00000000000000000000000000000000000000000000000000000000081526004016125049061532a565b60405180910390fd5b6004600082815260200190815260200160002060006101000a81549073ffffffffffffffffffffffffffffffffffffffff02191690556001600360008573ffffffffffffffffffffffffffffffffffffffff1673ffffffffffffffffffffffffffffffffffffffff168152602001908152602001600020600082825403925050819055506001600360008473ffffffffffffffffffffffffffffffffffffffff1673ffffffffffffffffffffffffffffffffffffffff16815260200190815260200160002060008282540192505081905550816002600083815260200190815260200160002060006101000a81548173ffffffffffffffffffffffffffffffffffffffff021916908373ffffffffffffffffffffffffffffffffffffffff160217905550808273ffffffffffffffffffffffffffffffffffffffff168473ffffffffffffffffffffffffffffffffffffffff167fddf252ad1be2c89b69c2b068fc378daa952ba7f163c4a11628f55a4df523b3ef60405160405180910390a46126998383836001612fc3565b505050565b6002600b54036126e3576040517f08c379a00000000000000000000000000000000000000000000000000000000081526004016126da90615428565b60405180910390fd5b6002600b81905550565b6126f5612096565b73ffffffffffffffffffffffffffffffffffffffff166127136116e8565b73ffffffffffffffffffffffffffffffffffffffff1614612769576040517f08c379a000000000000000000000000000000000000000000000000000000000815260040161276090615494565b60405180910390fd5b565b6001600b81905550565b60008073ffffffffffffffffffffffffffffffffffffffff16612797836127b6565b73ffffffffffffffffffffffffffffffffffffffff1614159050919050565b60006002600083815260200190815260200160002060009054906101000a900473ffffffffffffffffffffffffffffffffffffffff169050919050565b6000600a60009054906101000a900473ffffffffffffffffffffffffffffffffffffffff16905081600a60006101000a81548173ffffffffffffffffffffffffffffffffffffffff021916908373ffffffffffffffffffffffffffffffffffffffff1602179055508173ffffffffffffffffffffffffffffffffffffffff168173ffffffffffffffffffffffffffffffffffffffff167f8be0079c531659141344cd1fd0a4f28419497f9722a3daafe3b4186f6b6457e060405160405180910390a35050565b60006128c3610e91565b9050600d5481846128d4919061432a565b1115612915576040517f08c379a000000000000000000000000000000000000000000000000000000000815260040161290c90615500565b60405180910390fd5b6000600190505b8381116129815760008183612931919061432a565b905083601660008381526020019081526020016000208190555042601760008381526020019081526020016000208190555061296d86826122a5565b50808061297990615520565b91505061291c565b5050505050565b8173ffffffffffffffffffffffffffffffffffffffff168373ffffffffffffffffffffffffffffffffffffffff16036129f6576040517f08c379a00000000000000000000000000000000000000000000000000000000081526004016129ed906155b4565b60405180910390fd5b80600560008573ffffffffffffffffffffffffffffffffffffffff1673ffffffffffffffffffffffffffffffffffffffff16815260200190815260200160002060008473ffffffffffffffffffffffffffffffffffffffff1673ffffffffffffffffffffffffffffffffffffffff16815260200190815260200160002060006101000a81548160ff0219169083151502179055508173ffffffffffffffffffffffffffffffffffffffff168373ffffffffffffffffffffffffffffffffffffffff167f17307eab39ab6107e8899845ad3d59bd9653f200f220920489ca2b5937696c3183604051612ae79190613a1e565b60405180910390a3505050565b600080612b00836114be565b90508073ffffffffffffffffffffffffffffffffffffffff168473ffffffffffffffffffffffffffffffffffffffff161480612b425750612b418185611a77565b5b80612b8057508373ffffffffffffffffffffffffffffffffffffffff16612b6884610c11565b73ffffffffffffffffffffffffffffffffffffffff16145b91505092915050565b612b948484846123a5565b612ba084848484613024565b612bdf576040517f08c379a0000000000000000000000000000000000000000000000000000000008152600401612bd690615646565b60405180910390fd5b50505050565b606060006001612bf4846131ab565b01905060008167ffffffffffffffff811115612c1357612c12613d83565b5b6040519080825280601f01601f191660200182016040528015612c455781602001600182028036833780820191505090505b509050600082602001820190505b600115612ca8578080600190039150507f3031323334353637383961626364656600000000000000000000000000000000600a86061a8153600a8581612c9c57612c9b615666565b5b04945060008503612c53575b819350505050919050565b60008083604051602001612cc7919061570c565b60405160208183030381529060405280519060200120905060008060006041865114612cfa576000945050505050612df5565b6020860151925060408601519150606086015160001a9050601b8160ff161015612d2e57601b81612d2b919061573f565b90505b6000601b8260ff161480612d455750601c8260ff16145b15612d9c5760018583868660405160008152602001604052604051612d6d9493929190615792565b6020604051602081039080840390855afa158015612d8f573d6000803e3d6000fd5b5050506020604051035190505b8073ffffffffffffffffffffffffffffffffffffffff16601460009054906101000a900473ffffffffffffffffffffffffffffffffffffffff1673ffffffffffffffffffffffffffffffffffffffff1614955050505050505b92915050565b60007f01ffc9a7000000000000000000000000000000000000000000000000000000007bffffffffffffffffffffffffffffffffffffffffffffffffffffffff1916827bffffffffffffffffffffffffffffffffffffffffffffffffffffffff1916149050919050565b612e71848484846132fe565b6001811115612eb5576040517f08c379a0000000000000000000000000000000000000000000000000000000008152600401612eac90615849565b60405180910390fd5b6000829050600073ffffffffffffffffffffffffffffffffffffffff168573ffffffffffffffffffffffffffffffffffffffff1603612efc57612ef781613424565b612f3b565b8373ffffffffffffffffffffffffffffffffffffffff168573ffffffffffffffffffffffffffffffffffffffff1614612f3a57612f39858261346d565b5b5b600073ffffffffffffffffffffffffffffffffffffffff168473ffffffffffffffffffffffffffffffffffffffff1603612f7d57612f78816135da565b612fbc565b8473ffffffffffffffffffffffffffffffffffffffff168473ffffffffffffffffffffffffffffffffffffffff1614612fbb57612fba84826136ab565b5b5b5050505050565b50505050565b612fd3838361372a565b612fe06000848484613024565b61301f576040517f08c379a000000000000000000000000000000000000000000000000000000000815260040161301690615646565b60405180910390fd5b505050565b60006130458473ffffffffffffffffffffffffffffffffffffffff16613947565b1561319e578373ffffffffffffffffffffffffffffffffffffffff1663150b7a0261306e612096565b8786866040518563ffffffff1660e01b815260040161309094939291906158ad565b6020604051808303816000875af19250505080156130cc57506040513d601f19601f820116820180604052508101906130c9919061590e565b60015b61314e573d80600081146130fc576040519150601f19603f3d011682016040523d82523d6000602084013e613101565b606091505b506000815103613146576040517f08c379a000000000000000000000000000000000000000000000000000000000815260040161313d90615646565b60405180910390fd5b805181602001fd5b63150b7a0260e01b7bffffffffffffffffffffffffffffffffffffffffffffffffffffffff1916817bffffffffffffffffffffffffffffffffffffffffffffffffffffffff1916149150506131a3565b600190505b949350505050565b600080600090507a184f03e93ff9f4daa797ed6e38ed64bf6a1f0100000000000000008310613209577a184f03e93ff9f4daa797ed6e38ed64bf6a1f01000000000000000083816131ff576131fe615666565b5b0492506040810190505b6d04ee2d6d415b85acef81000000008310613246576d04ee2d6d415b85acef8100000000838161323c5761323b615666565b5b0492506020810190505b662386f26fc10000831061327557662386f26fc10000838161326b5761326a615666565b5b0492506010810190505b6305f5e100831061329e576305f5e100838161329457613293615666565b5b0492506008810190505b61271083106132c35761271083816132b9576132b8615666565b5b0492506004810190505b606483106132e657606483816132dc576132db615666565b5b0492506002810190505b600a83106132f5576001810190505b80915050919050565b600181111561341e57600073ffffffffffffffffffffffffffffffffffffffff168473ffffffffffffffffffffffffffffffffffffffff16146133925780600360008673ffffffffffffffffffffffffffffffffffffffff1673ffffffffffffffffffffffffffffffffffffffff168152602001908152602001600020600082825461338a9190614bc3565b925050819055505b600073ffffffffffffffffffffffffffffffffffffffff168373ffffffffffffffffffffffffffffffffffffffff161461341d5780600360008573ffffffffffffffffffffffffffffffffffffffff1673ffffffffffffffffffffffffffffffffffffffff1681526020019081526020016000206000828254613415919061432a565b925050819055505b5b50505050565b6008805490506009600083815260200190815260200160002081905550600881908060018154018082558091505060019003906000526020600020016000909190919091505550565b6000600161347a8461155c565b6134849190614bc3565b9050600060076000848152602001908152602001600020549050818114613569576000600660008673ffffffffffffffffffffffffffffffffffffffff1673ffffffffffffffffffffffffffffffffffffffff168152602001908152602001600020600084815260200190815260200160002054905080600660008773ffffffffffffffffffffffffffffffffffffffff1673ffffffffffffffffffffffffffffffffffffffff168152602001908152602001600020600084815260200190815260200160002081905550816007600083815260200190815260200160002081905550505b6007600084815260200190815260200160002060009055600660008573ffffffffffffffffffffffffffffffffffffffff1673ffffffffffffffffffffffffffffffffffffffff16815260200190815260200160002060008381526020019081526020016000206000905550505050565b600060016008805490506135ee9190614bc3565b905060006009600084815260200190815260200160002054905060006008838154811061361e5761361d6147b6565b5b9060005260206000200154905080600883815481106136405761363f6147b6565b5b90600052602060002001819055508160096000838152602001908152602001600020819055506009600085815260200190815260200160002060009055600880548061368f5761368e61593b565b5b6001900381819060005260206000200160009055905550505050565b60006136b68361155c565b905081600660008573ffffffffffffffffffffffffffffffffffffffff1673ffffffffffffffffffffffffffffffffffffffff168152602001908152602001600020600083815260200190815260200160002081905550806007600084815260200190815260200160002081905550505050565b600073ffffffffffffffffffffffffffffffffffffffff168273ffffffffffffffffffffffffffffffffffffffff1603613799576040517f08c379a0000000000000000000000000000000000000000000000000000000008152600401613790906159b6565b60405180910390fd5b6137a281612775565b156137e2576040517f08c379a00000000000000000000000000000000000000000000000000000000081526004016137d990615a22565b60405180910390fd5b6137f0600083836001612e65565b6137f981612775565b15613839576040517f08c379a000000000000000000000000000000000000000000000000000000000815260040161383090615a22565b60405180910390fd5b6001600360008473ffffffffffffffffffffffffffffffffffffffff1673ffffffffffffffffffffffffffffffffffffffff16815260200190815260200160002060008282540192505081905550816002600083815260200190815260200160002060006101000a81548173ffffffffffffffffffffffffffffffffffffffff021916908373ffffffffffffffffffffffffffffffffffffffff160217905550808273ffffffffffffffffffffffffffffffffffffffff16600073ffffffffffffffffffffffffffffffffffffffff167fddf252ad1be2c89b69c2b068fc378daa952ba7f163c4a11628f55a4df523b3ef60405160405180910390a4613943600083836001612fc3565b5050565b6000808273ffffffffffffffffffffffffffffffffffffffff163b119050919050565b6000604051905090565b600080fd5b600080fd5b60007fffffffff0000000000000000000000000000000000000000000000000000000082169050919050565b6139b38161397e565b81146139be57600080fd5b50565b6000813590506139d0816139aa565b92915050565b6000602082840312156139ec576139eb613974565b5b60006139fa848285016139c1565b91505092915050565b60008115159050919050565b613a1881613a03565b82525050565b6000602082019050613a336000830184613a0f565b92915050565b600081519050919050565b600082825260208201905092915050565b60005b83811015613a73578082015181840152602081019050613a58565b60008484015250505050565b6000601f19601f8301169050919050565b6000613a9b82613a39565b613aa58185613a44565b9350613ab5818560208601613a55565b613abe81613a7f565b840191505092915050565b60006020820190508181036000830152613ae38184613a90565b905092915050565b6000819050919050565b613afe81613aeb565b8114613b0957600080fd5b50565b600081359050613b1b81613af5565b92915050565b600060208284031215613b3757613b36613974565b5b6000613b4584828501613b0c565b91505092915050565b600073ffffffffffffffffffffffffffffffffffffffff82169050919050565b6000613b7982613b4e565b9050919050565b613b8981613b6e565b82525050565b6000602082019050613ba46000830184613b80565b92915050565b613bb381613b6e565b8114613bbe57600080fd5b50565b600081359050613bd081613baa565b92915050565b60008060408385031215613bed57613bec613974565b5b6000613bfb85828601613bc1565b9250506020613c0c85828601613b0c565b9150509250929050565b613c1f81613aeb565b82525050565b6000602082019050613c3a6000830184613c16565b92915050565b6000819050919050565b6000613c65613c60613c5b84613b4e565b613c40565b613b4e565b9050919050565b6000613c7782613c4a565b9050919050565b6000613c8982613c6c565b9050919050565b613c9981613c7e565b82525050565b6000602082019050613cb46000830184613c90565b92915050565b600080600060608486031215613cd357613cd2613974565b5b6000613ce186828701613bc1565b9350506020613cf286828701613bc1565b9250506040613d0386828701613b0c565b9150509250925092565b613d1681613a03565b8114613d2157600080fd5b50565b600081359050613d3381613d0d565b92915050565b60008060408385031215613d5057613d4f613974565b5b6000613d5e85828601613bc1565b9250506020613d6f85828601613d24565b9150509250929050565b600080fd5b600080fd5b7f4e487b7100000000000000000000000000000000000000000000000000000000600052604160045260246000fd5b613dbb82613a7f565b810181811067ffffffffffffffff82111715613dda57613dd9613d83565b5b80604052505050565b6000613ded61396a565b9050613df98282613db2565b919050565b600067ffffffffffffffff821115613e1957613e18613d83565b5b613e2282613a7f565b9050602081019050919050565b82818337600083830152505050565b6000613e51613e4c84613dfe565b613de3565b905082815260208101848484011115613e6d57613e6c613d7e565b5b613e78848285613e2f565b509392505050565b600082601f830112613e9557613e94613d79565b5b8135613ea5848260208601613e3e565b91505092915050565b600060208284031215613ec457613ec3613974565b5b600082013567ffffffffffffffff811115613ee257613ee1613979565b5b613eee84828501613e80565b91505092915050565b600060208284031215613f0d57613f0c613974565b5b6000613f1b84828501613bc1565b91505092915050565b600067ffffffffffffffff821115613f3f57613f3e613d83565b5b613f4882613a7f565b9050602081019050919050565b6000613f68613f6384613f24565b613de3565b905082815260208101848484011115613f8457613f83613d7e565b5b613f8f848285613e2f565b509392505050565b600082601f830112613fac57613fab613d79565b5b8135613fbc848260208601613f55565b91505092915050565b60008060008060808587031215613fdf57613fde613974565b5b6000613fed87828801613bc1565b9450506020613ffe87828801613bc1565b935050604061400f87828801613b0c565b925050606085013567ffffffffffffffff8111156140305761402f613979565b5b61403c87828801613f97565b91505092959194509250565b6000806040838503121561405f5761405e613974565b5b600061406d85828601613bc1565b925050602061407e85828601613bc1565b9150509250929050565b600080600080608085870312156140a2576140a1613974565b5b60006140b087828801613bc1565b94505060206140c187828801613b0c565b93505060406140d287828801613b0c565b925050606085013567ffffffffffffffff8111156140f3576140f2613979565b5b6140ff87828801613f97565b91505092959194509250565b7f4e487b7100000000000000000000000000000000000000000000000000000000600052602260045260246000fd5b6000600282049050600182168061415257607f821691505b6020821081036141655761416461410b565b5b50919050565b7f4552433732313a20617070726f76616c20746f2063757272656e74206f776e6560008201527f7200000000000000000000000000000000000000000000000000000000000000602082015250565b60006141c7602183613a44565b91506141d28261416b565b604082019050919050565b600060208201905081810360008301526141f6816141ba565b9050919050565b7f4552433732313a20617070726f76652063616c6c6572206973206e6f7420746f60008201527f6b656e206f776e6572206f7220617070726f76656420666f7220616c6c000000602082015250565b6000614259603d83613a44565b9150614264826141fd565b604082019050919050565b600060208201905081810360008301526142888161424c565b9050919050565b7f4f70657261746f72206e6f7420616c6c6f776564000000000000000000000000600082015250565b60006142c5601483613a44565b91506142d08261428f565b602082019050919050565b600060208201905081810360008301526142f4816142b8565b9050919050565b7f4e487b7100000000000000000000000000000000000000000000000000000000600052601160045260246000fd5b600061433582613aeb565b915061434083613aeb565b9250828201905080821115614358576143576142fb565b5b92915050565b60006060820190506143736000830186613b80565b6143806020830185613c16565b61438d6040830184613c16565b949350505050565b7f455243373231456e756d657261626c653a206f776e657220696e646578206f7560008201527f74206f6620626f756e6473000000000000000000000000000000000000000000602082015250565b60006143f1602b83613a44565b91506143fc82614395565b604082019050919050565b60006020820190508181036000830152614420816143e4565b9050919050565b7f526566756e643a204f726967696e616c204d696e74696e67205072696365206960008201527f73207a65726f0000000000000000000000000000000000000000000000000000602082015250565b6000614483602683613a44565b915061448e82614427565b604082019050919050565b600060208201905081810360008301526144b281614476565b9050919050565b7f526566756e643a2054686520746f6b656e206973206e6f7420617661696c616260008201527f6c6520666f7220726566756e6400000000000000000000000000000000000000602082015250565b6000614515602d83613a44565b9150614520826144b9565b604082019050919050565b6000602082019050818103600083015261454481614508565b9050919050565b7f526566756e643a2041646472657373206973206e6f742074686520746f6b656e60008201527f206f776e65720000000000000000000000000000000000000000000000000000602082015250565b60006145a7602683613a44565b91506145b28261454b565b604082019050919050565b600060208201905081810360008301526145d68161459a565b9050919050565b600081905092915050565b50565b60006145f86000836145dd565b9150614603826145e8565b600082019050919050565b6000614619826145eb565b9150819050919050565b60006040820190506146386000830185613b80565b6146456020830184613c16565b9392505050565b7f496e73756666696369656e742066756e64730000000000000000000000000000600082015250565b6000614682601283613a44565b915061468d8261464c565b602082019050919050565b600060208201905081810360008301526146b181614675565b9050919050565b7f556e61626c6520746f2073656e64206574680000000000000000000000000000600082015250565b60006146ee601283613a44565b91506146f9826146b8565b602082019050919050565b6000602082019050818103600083015261471d816146e1565b9050919050565b7f455243373231456e756d657261626c653a20676c6f62616c20696e646578206f60008201527f7574206f6620626f756e64730000000000000000000000000000000000000000602082015250565b6000614780602c83613a44565b915061478b82614724565b604082019050919050565b600060208201905081810360008301526147af81614773565b9050919050565b7f4e487b7100000000000000000000000000000000000000000000000000000000600052603260045260246000fd5b60008190508160005260206000209050919050565b60006020601f8301049050919050565b600082821b905092915050565b6000600883026148477fffffffffffffffffffffffffffffffffffffffffffffffffffffffffffffffff8261480a565b614851868361480a565b95508019841693508086168417925050509392505050565b600061488461487f61487a84613aeb565b613c40565b613aeb565b9050919050565b6000819050919050565b61489e83614869565b6148b26148aa8261488b565b848454614817565b825550505050565b600090565b6148c76148ba565b6148d2818484614895565b505050565b5b818110156148f6576148eb6000826148bf565b6001810190506148d8565b5050565b601f82111561493b5761490c816147e5565b614915846147fa565b81016020851015614924578190505b614938614930856147fa565b8301826148d7565b50505b505050565b600082821c905092915050565b600061495e60001984600802614940565b1980831691505092915050565b6000614977838361494d565b9150826002028217905092915050565b61499082613a39565b67ffffffffffffffff8111156149a9576149a8613d83565b5b6149b3825461413a565b6149be8282856148fa565b600060209050601f8311600181146149f157600084156149df578287015190505b6149e9858261496b565b865550614a51565b601f1984166149ff866147e5565b60005b82811015614a2757848901518255600182019150602085019450602081019050614a02565b86831015614a445784890151614a40601f89168261494d565b8355505b6001600288020188555050505b505050505050565b7f4552433732313a20696e76616c696420746f6b656e2049440000000000000000600082015250565b6000614a8f601883613a44565b9150614a9a82614a59565b602082019050919050565b60006020820190508181036000830152614abe81614a82565b9050919050565b7f4552433732313a2061646472657373207a65726f206973206e6f74206120766160008201527f6c6964206f776e65720000000000000000000000000000000000000000000000602082015250565b6000614b21602983613a44565b9150614b2c82614ac5565b604082019050919050565b60006020820190508181036000830152614b5081614b14565b9050919050565b7f41697264726f703a20537570706c79206973206f766572000000000000000000600082015250565b6000614b8d601783613a44565b9150614b9882614b57565b602082019050919050565b60006020820190508181036000830152614bbc81614b80565b9050919050565b6000614bce82613aeb565b9150614bd983613aeb565b9250828203905081811115614bf157614bf06142fb565b5b92915050565b6000606082019050614c0c6000830186613b80565b614c196020830185613b80565b614c266040830184613c16565b949350505050565b7f506173732045786368616e67653a20537570706c79206973206f766572000000600082015250565b6000614c64601d83613a44565b9150614c6f82614c2e565b602082019050919050565b60006020820190508181036000830152614c9381614c57565b9050919050565b6000819050919050565b6000614cbf614cba614cb584614c9a565b613c40565b613aeb565b9050919050565b614ccf81614ca4565b82525050565b600082825260208201905092915050565b7f3078303000000000000000000000000000000000000000000000000000000000600082015250565b6000614d1c600483614cd5565b9150614d2782614ce6565b602082019050919050565b600060a082019050614d476000830187613b80565b614d546020830186613b80565b614d616040830185614cc6565b614d6e6060830184613c16565b8181036080830152614d7f81614d0f565b905095945050505050565b7f4552433732313a2063616c6c6572206973206e6f7420746f6b656e206f776e6560008201527f72206f7220617070726f76656400000000000000000000000000000000000000602082015250565b6000614de6602d83613a44565b9150614df182614d8a565b604082019050919050565b60006020820190508181036000830152614e1581614dd9565b9050919050565b7f4552433732314d657461646174613a2055524920717565727920666f72206e6f60008201527f6e6578697374656e7420746f6b656e0000000000000000000000000000000000602082015250565b6000614e78602f83613a44565b9150614e8382614e1c565b604082019050919050565b60006020820190508181036000830152614ea781614e6b565b9050919050565b600081905092915050565b60008154614ec68161413a565b614ed08186614eae565b94506001821660008114614eeb5760018114614f0057614f33565b60ff1983168652811515820286019350614f33565b614f09856147e5565b60005b83811015614f2b57815481890152600182019150602081019050614f0c565b838801955050505b50505092915050565b6000614f4782613a39565b614f518185614eae565b9350614f61818560208601613a55565b80840191505092915050565b6000614f798285614eb9565b9150614f858284614f3c565b91508190509392505050565b7f50757263686173653a2053616c6520636c6f7365640000000000000000000000600082015250565b6000614fc7601583613a44565b9150614fd282614f91565b602082019050919050565b60006020820190508181036000830152614ff681614fba565b9050919050565b7f50757263686173653a20537570706c79206973206f7665720000000000000000600082015250565b6000615033601883613a44565b915061503e82614ffd565b602082019050919050565b6000602082019050818103600083015261506281615026565b9050919050565b7f50757263686173653a20457863656564206d696e74206c696d69740000000000600082015250565b600061509f601b83613a44565b91506150aa82615069565b602082019050919050565b600060208201905081810360008301526150ce81615092565b9050919050565b60006150e082613aeb565b91506150eb83613aeb565b92508282026150f981613aeb565b915082820484148315176151105761510f6142fb565b5b5092915050565b7f50757263686173653a20496e636f72726563742045544820616d6f756e740000600082015250565b600061514d601e83613a44565b915061515882615117565b602082019050919050565b6000602082019050818103600083015261517c81615140565b9050919050565b60006060820190506151986000830186613c16565b6151a56020830185613c16565b6151b26040830184613b80565b949350505050565b7f50757263686173653a205369676e617475726520697320696e76616c69640000600082015250565b60006151f0601e83613a44565b91506151fb826151ba565b602082019050919050565b6000602082019050818103600083015261521f816151e3565b9050919050565b7f4f776e61626c653a206e6577206f776e657220697320746865207a65726f206160008201527f6464726573730000000000000000000000000000000000000000000000000000602082015250565b6000615282602683613a44565b915061528d82615226565b604082019050919050565b600060208201905081810360008301526152b181615275565b9050919050565b7f4552433732313a207472616e736665722066726f6d20696e636f72726563742060008201527f6f776e6572000000000000000000000000000000000000000000000000000000602082015250565b6000615314602583613a44565b915061531f826152b8565b604082019050919050565b6000602082019050818103600083015261534381615307565b9050919050565b7f4552433732313a207472616e7366657220746f20746865207a65726f2061646460008201527f7265737300000000000000000000000000000000000000000000000000000000602082015250565b60006153a6602483613a44565b91506153b18261534a565b604082019050919050565b600060208201905081810360008301526153d581615399565b9050919050565b7f5265656e7472616e637947756172643a207265656e7472616e742063616c6c00600082015250565b6000615412601f83613a44565b915061541d826153dc565b602082019050919050565b6000602082019050818103600083015261544181615405565b9050919050565b7f4f776e61626c653a2063616c6c6572206973206e6f7420746865206f776e6572600082015250565b600061547e602083613a44565b915061548982615448565b602082019050919050565b600060208201905081810360008301526154ad81615471565b9050919050565b7f4d696e743a20537570706c79206c696d69740000000000000000000000000000600082015250565b60006154ea601283613a44565b91506154f5826154b4565b602082019050919050565b60006020820190508181036000830152615519816154dd565b9050919050565b600061552b82613aeb565b91507fffffffffffffffffffffffffffffffffffffffffffffffffffffffffffffffff820361555d5761555c6142fb565b5b600182019050919050565b7f4552433732313a20617070726f766520746f2063616c6c657200000000000000600082015250565b600061559e601983613a44565b91506155a982615568565b602082019050919050565b600060208201905081810360008301526155cd81615591565b9050919050565b7f4552433732313a207472616e7366657220746f206e6f6e20455243373231526560008201527f63656976657220696d706c656d656e7465720000000000000000000000000000602082015250565b6000615630603283613a44565b915061563b826155d4565b604082019050919050565b6000602082019050818103600083015261565f81615623565b9050919050565b7f4e487b7100000000000000000000000000000000000000000000000000000000600052601260045260246000fd5b7f19457468657265756d205369676e6564204d6573736167653a0a333200000000600082015250565b60006156cb601c83614eae565b91506156d682615695565b601c82019050919050565b6000819050919050565b6000819050919050565b615706615701826156e1565b6156eb565b82525050565b6000615717826156be565b915061572382846156f5565b60208201915081905092915050565b600060ff82169050919050565b600061574a82615732565b915061575583615732565b9250828201905060ff81111561576e5761576d6142fb565b5b92915050565b61577d816156e1565b82525050565b61578c81615732565b82525050565b60006080820190506157a76000830187615774565b6157b46020830186615783565b6157c16040830185615774565b6157ce6060830184615774565b95945050505050565b7f455243373231456e756d657261626c653a20636f6e736563757469766520747260008201527f616e7366657273206e6f7420737570706f727465640000000000000000000000602082015250565b6000615833603583613a44565b915061583e826157d7565b604082019050919050565b6000602082019050818103600083015261586281615826565b9050919050565b600081519050919050565b600061587f82615869565b6158898185614cd5565b9350615899818560208601613a55565b6158a281613a7f565b840191505092915050565b60006080820190506158c26000830187613b80565b6158cf6020830186613b80565b6158dc6040830185613c16565b81810360608301526158ee8184615874565b905095945050505050565b600081519050615908816139aa565b92915050565b60006020828403121561592457615923613974565b5b6000615932848285016158f9565b91505092915050565b7f4e487b7100000000000000000000000000000000000000000000000000000000600052603160045260246000fd5b7f4552433732313a206d696e7420746f20746865207a65726f2061646472657373600082015250565b60006159a0602083613a44565b91506159ab8261596a565b602082019050919050565b600060208201905081810360008301526159cf81615993565b9050919050565b7f4552433732313a20746f6b656e20616c7265616479206d696e74656400000000600082015250565b6000615a0c601c83613a44565b9150615a17826159d6565b602082019050919050565b60006020820190508181036000830152615a3b816159ff565b905091905056fea264697066735822122077989931623b0cdffca5d2a80a3d58014583144b971204adaf395865773fda5a64736f6c63430008120033",
  "immutableReferences": {},
  "source": "// SPDX-License-Identifier: GPL-3.0\r\n// solhint-disable-next-line\r\npragma solidity ^0.8.12;\r\nimport \"@openzeppelin/contracts/token/ERC721/extensions/ERC721Enumerable.sol\";\r\nimport \"@openzeppelin/contracts/token/ERC1155/IERC1155.sol\";\r\nimport \"@openzeppelin/contracts/security/ReentrancyGuard.sol\";\r\nimport \"@openzeppelin/contracts/access/Ownable.sol\";\r\nimport \"@openzeppelin/contracts/utils/Strings.sol\";\r\n\r\ncontract BAP_APES is ERC721Enumerable, Ownable, ReentrancyGuard {\r\n    using Strings for uint256;\r\n\r\n    string baseURI;\r\n\r\n    uint256 public maxSupply = 10000;\r\n    uint256 public mintLimit = 2;\r\n    uint256 public publicSupply = 3500; // Public Minting\r\n    uint256 public reservedSuply = 5000; // 5000 Portal Passes\r\n    uint256 public trasurySuply = 1500; // Treasury reserved supply\r\n\r\n    uint256[] public tierPrices = [\r\n        0.22 ether,\r\n        0.27 ether,\r\n        0.3 ether,\r\n        0.33 ether,\r\n        0.33 ether,\r\n        0.37 ether\r\n    ];\r\n\r\n    IERC1155 public portalPass;\r\n\r\n    address public secret;\r\n    address public treasury;\r\n    address private constant DEAD_ADDRESS =\r\n        0x000000000000000000000000000000000000dEaD;\r\n\r\n    mapping(uint256 => uint256) public mintingPrice;\r\n    mapping(uint256 => uint256) public mintingDate;\r\n\r\n    mapping(uint256 => bool) public notRefundable;\r\n\r\n    mapping(address => bool) public isOrchestrator;\r\n\r\n    mapping(address => mapping(uint256 => uint256)) public walletMinted;\r\n\r\n    event Purchased(address operator, address user, uint256 amount);\r\n    event PassExchanged(address operator, address user, uint256 amount);\r\n    event Airdrop(address operator, address user, uint256 amount);\r\n    event TraitsChanged(address user, uint256 tokenId, uint256 newTokenId);\r\n    event Refunded(address user, uint256 tokenId);\r\n\r\n    constructor(address _portalPass, address _secret)\r\n        ERC721(\"BAP APES\", \"APES\")\r\n    {\r\n        portalPass = IERC1155(_portalPass);\r\n        secret = _secret;\r\n    }\r\n\r\n    modifier onlyOrchestrator() {\r\n        require(isOrchestrator[msg.sender], \"Operator not allowed\");\r\n        _;\r\n    }\r\n\r\n    function purchase(\r\n        address to,\r\n        uint256 amount,\r\n        uint256 tier,\r\n        bytes memory signature\r\n    ) external payable {\r\n        require(tier <= 5, \"Purchase: Sale closed\");\r\n        require(amount <= publicSupply, \"Purchase: Supply is over\");\r\n        require(\r\n            amount + walletMinted[to][tier] <= mintLimit,\r\n            \"Purchase: Exceed mint limit\"\r\n        );\r\n        require(\r\n            amount * tierPrices[tier] == msg.value,\r\n            \"Purchase: Incorrect ETH amount\"\r\n        );\r\n\r\n        require(\r\n            _verifyHashSignature(\r\n                keccak256(abi.encode(amount, tier, to)),\r\n                signature\r\n            ),\r\n            \"Purchase: Signature is invalid\"\r\n        );\r\n\r\n        walletMinted[to][tier] += amount;\r\n        publicSupply -= amount;\r\n\r\n        mint(to, amount, tierPrices[tier]);\r\n\r\n        emit Purchased(msg.sender, to, amount);\r\n    }\r\n\r\n    function airdrop(address to, uint256 amount)\r\n        external\r\n        nonReentrant\r\n        onlyOwner\r\n    {\r\n        require(amount <= trasurySuply, \"Airdrop: Supply is over\");\r\n\r\n        trasurySuply -= amount;\r\n\r\n        mint(to, amount, 0);\r\n\r\n        emit Airdrop(msg.sender, to, amount);\r\n    }\r\n\r\n    function exchangePass(address to, uint256 amount) external {\r\n        require(amount <= reservedSuply, \"Pass Exchange: Supply is over\");\r\n\r\n        portalPass.safeTransferFrom(\r\n            msg.sender,\r\n            DEAD_ADDRESS,\r\n            1,\r\n            amount,\r\n            \"0x00\"\r\n        );\r\n\r\n        reservedSuply -= amount;\r\n\r\n        mint(to, amount, tierPrices[0]);\r\n\r\n        emit PassExchanged(msg.sender, to, amount);\r\n    }\r\n\r\n    function confirmChange(uint256 tokenId) external onlyOrchestrator {\r\n        address owner = ownerOf(tokenId);\r\n\r\n        _burn(tokenId);\r\n\r\n        uint256 newId = tokenId + 10000;\r\n        _safeMint(owner, newId);\r\n\r\n        emit TraitsChanged(owner, tokenId, newId);\r\n    }\r\n\r\n    function mint(\r\n        address to,\r\n        uint256 amount,\r\n        uint256 price\r\n    ) internal {\r\n        uint256 currentSupply = totalSupply();\r\n\r\n        require(amount + currentSupply <= maxSupply, \"Mint: Supply limit\");\r\n\r\n        for (uint256 i = 1; i <= amount; i++) {\r\n            uint256 id = currentSupply + i;\r\n            mintingPrice[id] = price;\r\n            mintingDate[id] = block.timestamp;\r\n            _safeMint(to, id);\r\n        }\r\n    }\r\n\r\n    function refund(address depositAddress, uint256 tokenId)\r\n        external\r\n        onlyOrchestrator\r\n    {\r\n        uint256 balance = mintingPrice[tokenId];\r\n        require(balance > 0, \"Refund: Original Minting Price is zero\");\r\n        require(\r\n            !notRefundable[tokenId],\r\n            \"Refund: The token is not available for refund\"\r\n        );\r\n        require(\r\n            ownerOf(tokenId) == depositAddress,\r\n            \"Refund: Address is not the token owner\"\r\n        );\r\n\r\n        _transfer(depositAddress, treasury, tokenId);\r\n\r\n        (bool success, ) = depositAddress.call{value: balance}(\"\");\r\n\r\n        emit Refunded(depositAddress, tokenId);\r\n    }\r\n\r\n    function setMintLimit(uint256 newLimit) external onlyOwner {\r\n        mintLimit = newLimit;\r\n    }\r\n\r\n    function setBaseURI(string memory newURI) external onlyOwner {\r\n        baseURI = newURI;\r\n    }\r\n\r\n    function setSecret(address _secret) external onlyOwner {\r\n        secret = _secret;\r\n    }\r\n\r\n    function setTreasury(address _treasury) external onlyOwner {\r\n        treasury = _treasury;\r\n    }\r\n\r\n    function setPortalPass(address _portalPass) external onlyOwner {\r\n        portalPass = IERC1155(_portalPass);\r\n    }\r\n\r\n    function setOrchestrator(address operator, bool status) external onlyOwner {\r\n        isOrchestrator[operator] = status;\r\n    }\r\n\r\n    function withdrawETH(address _address, uint256 amount)\r\n        public\r\n        nonReentrant\r\n        onlyOwner\r\n    {\r\n        require(amount <= address(this).balance, \"Insufficient funds\");\r\n        (bool success, ) = _address.call{value: amount}(\"\");\r\n\r\n        require(success, \"Unable to send eth\");\r\n    }\r\n\r\n    function _baseURI() internal view virtual override returns (string memory) {\r\n        return baseURI;\r\n    }\r\n\r\n    function tokenURI(uint256 tokenId)\r\n        public\r\n        view\r\n        virtual\r\n        override\r\n        returns (string memory)\r\n    {\r\n        require(\r\n            _exists(tokenId),\r\n            \"ERC721Metadata: URI query for nonexistent token\"\r\n        );\r\n\r\n        return string(abi.encodePacked(baseURI, tokenId.toString()));\r\n    }\r\n\r\n    function transferFrom(\r\n        address from,\r\n        address to,\r\n        uint256 tokenId\r\n    ) public virtual override(ERC721, IERC721) {\r\n        _checkTransferPeriod(tokenId);\r\n        super.transferFrom(from, to, tokenId);\r\n    }\r\n\r\n    function safeTransferFrom(\r\n        address from,\r\n        address to,\r\n        uint256 tokenId\r\n    ) public virtual override(ERC721, IERC721) {\r\n        _checkTransferPeriod(tokenId);\r\n        super.safeTransferFrom(from, to, tokenId, \"\");\r\n    }\r\n\r\n    function _checkTransferPeriod(uint256 tokenId) internal {\r\n        if (\r\n            block.timestamp > mintingDate[tokenId] + 3 hours &&\r\n            !notRefundable[tokenId]\r\n        ) {\r\n            notRefundable[tokenId] = true;\r\n        }\r\n    }\r\n\r\n    function exists(uint256 tokenId) external view returns (bool) {\r\n        return _exists(tokenId);\r\n    }\r\n\r\n    function _verifyHashSignature(bytes32 freshHash, bytes memory signature)\r\n        internal\r\n        view\r\n        returns (bool)\r\n    {\r\n        bytes32 hash = keccak256(\r\n            abi.encodePacked(\"\\x19Ethereum Signed Message:\\n32\", freshHash)\r\n        );\r\n\r\n        bytes32 r;\r\n        bytes32 s;\r\n        uint8 v;\r\n\r\n        if (signature.length != 65) {\r\n            return false;\r\n        }\r\n        assembly {\r\n            r := mload(add(signature, 32))\r\n            s := mload(add(signature, 64))\r\n            v := byte(0, mload(add(signature, 96)))\r\n        }\r\n\r\n        if (v < 27) {\r\n            v += 27;\r\n        }\r\n\r\n        address signer = address(0);\r\n        if (v == 27 || v == 28) {\r\n            // solium-disable-next-line arg-overflow\r\n            signer = ecrecover(hash, v, r, s);\r\n        }\r\n        return secret == signer;\r\n    }\r\n}\r\n",
  "sourcePath": "C:\\Testing\\contracts\\Apes.sol",
  "compiler": {
    "name": "solc",
    "version": "0.8.18+commit.87f61d96.Emscripten.clang"
  },
  "schemaVersion": "3.4.11",
  "updatedAt": "2023-02-09T20:40:38.813Z",
  "devdoc": {
    "events": {
      "Approval(address,address,uint256)": {
        "details": "Emitted when `owner` enables `approved` to manage the `tokenId` token."
      },
      "ApprovalForAll(address,address,bool)": {
        "details": "Emitted when `owner` enables or disables (`approved`) `operator` to manage all of its assets."
      },
      "Transfer(address,address,uint256)": {
        "details": "Emitted when `tokenId` token is transferred from `from` to `to`."
      }
    },
    "kind": "dev",
    "methods": {
      "approve(address,uint256)": {
        "details": "See {IERC721-approve}."
      },
      "balanceOf(address)": {
        "details": "See {IERC721-balanceOf}."
      },
      "getApproved(uint256)": {
        "details": "See {IERC721-getApproved}."
      },
      "isApprovedForAll(address,address)": {
        "details": "See {IERC721-isApprovedForAll}."
      },
      "name()": {
        "details": "See {IERC721Metadata-name}."
      },
      "owner()": {
        "details": "Returns the address of the current owner."
      },
      "ownerOf(uint256)": {
        "details": "See {IERC721-ownerOf}."
      },
      "renounceOwnership()": {
        "details": "Leaves the contract without owner. It will not be possible to call `onlyOwner` functions anymore. Can only be called by the current owner. NOTE: Renouncing ownership will leave the contract without an owner, thereby removing any functionality that is only available to the owner."
      },
      "safeTransferFrom(address,address,uint256,bytes)": {
        "details": "See {IERC721-safeTransferFrom}."
      },
      "setApprovalForAll(address,bool)": {
        "details": "See {IERC721-setApprovalForAll}."
      },
      "supportsInterface(bytes4)": {
        "details": "See {IERC165-supportsInterface}."
      },
      "symbol()": {
        "details": "See {IERC721Metadata-symbol}."
      },
      "tokenByIndex(uint256)": {
        "details": "See {IERC721Enumerable-tokenByIndex}."
      },
      "tokenOfOwnerByIndex(address,uint256)": {
        "details": "See {IERC721Enumerable-tokenOfOwnerByIndex}."
      },
      "tokenURI(uint256)": {
        "details": "See {IERC721Metadata-tokenURI}."
      },
      "totalSupply()": {
        "details": "See {IERC721Enumerable-totalSupply}."
      },
      "transferOwnership(address)": {
        "details": "Transfers ownership of the contract to a new account (`newOwner`). Can only be called by the current owner."
      }
    },
    "version": 1
  },
  "userdoc": {
    "kind": "user",
    "methods": {},
    "version": 1
  }
}