{
  "contractName": "LootBoxesV2",
  "abi": [
    {
      "inputs": [
        {
          "internalType": "address",
          "name": "_apesAddress",
          "type": "address"
        },
        {
          "internalType": "address",
          "name": "_traitsAddress",
          "type": "address"
        },
        {
          "internalType": "address",
          "name": "_randomizerAddress",
          "type": "address"
        },
        {
          "internalType": "address",
          "name": "_masterContract",
          "type": "address"
        },
        {
          "internalType": "address",
          "name": "_secret",
          "type": "address"
        }
      ],
      "stateMutability": "nonpayable",
      "type": "constructor"
    },
    {
      "anonymous": false,
      "inputs": [
        {
          "indexed": false,
          "internalType": "uint256",
          "name": "boxType",
          "type": "uint256"
        },
        {
          "indexed": false,
          "internalType": "uint256",
          "name": "apeId",
          "type": "uint256"
        },
        {
          "indexed": false,
          "internalType": "uint256",
          "name": "amount",
          "type": "uint256"
        },
        {
          "indexed": false,
          "internalType": "uint256[]",
          "name": "prizes",
          "type": "uint256[]"
        }
      ],
      "name": "BoxOpened",
      "type": "event"
    },
    {
      "anonymous": false,
      "inputs": [
        {
          "indexed": true,
          "internalType": "address",
          "name": "previousOwner",
          "type": "address"
        },
        {
          "indexed": true,
          "internalType": "address",
          "name": "newOwner",
          "type": "address"
        }
      ],
      "name": "OwnershipTransferred",
      "type": "event"
    },
    {
      "inputs": [
        {
          "internalType": "uint256",
          "name": "",
          "type": "uint256"
        }
      ],
      "name": "apeLastBox",
      "outputs": [
        {
          "internalType": "uint256",
          "name": "",
          "type": "uint256"
        }
      ],
      "stateMutability": "view",
      "type": "function"
    },
    {
      "inputs": [
        {
          "internalType": "uint256",
          "name": "",
          "type": "uint256"
        }
      ],
      "name": "apeOpenCount",
      "outputs": [
        {
          "internalType": "uint256",
          "name": "",
          "type": "uint256"
        }
      ],
      "stateMutability": "view",
      "type": "function"
    },
    {
      "inputs": [],
      "name": "apesContract",
      "outputs": [
        {
          "internalType": "contract IApes",
          "name": "",
          "type": "address"
        }
      ],
      "stateMutability": "view",
      "type": "function"
    },
    {
      "inputs": [
        {
          "internalType": "bytes",
          "name": "",
          "type": "bytes"
        }
      ],
      "name": "isSignatureUsed",
      "outputs": [
        {
          "internalType": "bool",
          "name": "",
          "type": "bool"
        }
      ],
      "stateMutability": "view",
      "type": "function"
    },
    {
      "inputs": [
        {
          "internalType": "uint256",
          "name": "",
          "type": "uint256"
        }
      ],
      "name": "lastBoxOpen",
      "outputs": [
        {
          "internalType": "uint256",
          "name": "",
          "type": "uint256"
        }
      ],
      "stateMutability": "view",
      "type": "function"
    },
    {
      "inputs": [],
      "name": "masterContract",
      "outputs": [
        {
          "internalType": "contract IMasterContract",
          "name": "",
          "type": "address"
        }
      ],
      "stateMutability": "view",
      "type": "function"
    },
    {
      "inputs": [
        {
          "internalType": "address",
          "name": "",
          "type": "address"
        },
        {
          "internalType": "address",
          "name": "",
          "type": "address"
        },
        {
          "internalType": "uint256[]",
          "name": "",
          "type": "uint256[]"
        },
        {
          "internalType": "uint256[]",
          "name": "",
          "type": "uint256[]"
        },
        {
          "internalType": "bytes",
          "name": "",
          "type": "bytes"
        }
      ],
      "name": "onERC1155BatchReceived",
      "outputs": [
        {
          "internalType": "bytes4",
          "name": "",
          "type": "bytes4"
        }
      ],
      "stateMutability": "nonpayable",
      "type": "function"
    },
    {
      "inputs": [
        {
          "internalType": "address",
          "name": "",
          "type": "address"
        },
        {
          "internalType": "address",
          "name": "",
          "type": "address"
        },
        {
          "internalType": "uint256",
          "name": "",
          "type": "uint256"
        },
        {
          "internalType": "uint256",
          "name": "",
          "type": "uint256"
        },
        {
          "internalType": "bytes",
          "name": "",
          "type": "bytes"
        }
      ],
      "name": "onERC1155Received",
      "outputs": [
        {
          "internalType": "bytes4",
          "name": "",
          "type": "bytes4"
        }
      ],
      "stateMutability": "nonpayable",
      "type": "function"
    },
    {
      "inputs": [],
      "name": "owner",
      "outputs": [
        {
          "internalType": "address",
          "name": "",
          "type": "address"
        }
      ],
      "stateMutability": "view",
      "type": "function"
    },
    {
      "inputs": [],
      "name": "powerCooldown",
      "outputs": [
        {
          "internalType": "uint256",
          "name": "",
          "type": "uint256"
        }
      ],
      "stateMutability": "view",
      "type": "function"
    },
    {
      "inputs": [],
      "name": "randomizerContract",
      "outputs": [
        {
          "internalType": "contract IRandomizer",
          "name": "",
          "type": "address"
        }
      ],
      "stateMutability": "view",
      "type": "function"
    },
    {
      "inputs": [],
      "name": "renounceOwnership",
      "outputs": [],
      "stateMutability": "nonpayable",
      "type": "function"
    },
    {
      "inputs": [],
      "name": "secret",
      "outputs": [
        {
          "internalType": "address",
          "name": "",
          "type": "address"
        }
      ],
      "stateMutability": "view",
      "type": "function"
    },
    {
      "inputs": [
        {
          "internalType": "bytes4",
          "name": "interfaceId",
          "type": "bytes4"
        }
      ],
      "name": "supportsInterface",
      "outputs": [
        {
          "internalType": "bool",
          "name": "",
          "type": "bool"
        }
      ],
      "stateMutability": "view",
      "type": "function"
    },
    {
      "inputs": [],
      "name": "traitsContract",
      "outputs": [
        {
          "internalType": "contract ITraits",
          "name": "",
          "type": "address"
        }
      ],
      "stateMutability": "view",
      "type": "function"
    },
    {
      "inputs": [
        {
          "internalType": "address",
          "name": "newOwner",
          "type": "address"
        }
      ],
      "name": "transferOwnership",
      "outputs": [],
      "stateMutability": "nonpayable",
      "type": "function"
    },
    {
      "inputs": [
        {
          "internalType": "uint256",
          "name": "apeId",
          "type": "uint256"
        },
        {
          "internalType": "uint256",
          "name": "amount",
          "type": "uint256"
        },
        {
          "internalType": "uint256",
          "name": "price",
          "type": "uint256"
        },
        {
          "internalType": "uint256",
          "name": "boxType",
          "type": "uint256"
        },
        {
          "internalType": "uint256",
          "name": "timeOut",
          "type": "uint256"
        },
        {
          "internalType": "bool",
          "name": "hasPower",
          "type": "bool"
        },
        {
          "internalType": "bytes",
          "name": "randomSeed",
          "type": "bytes"
        },
        {
          "internalType": "bytes",
          "name": "signature",
          "type": "bytes"
        }
      ],
      "name": "openCommonBox",
      "outputs": [],
      "stateMutability": "payable",
      "type": "function"
    },
    {
      "inputs": [
        {
          "internalType": "uint256",
          "name": "apeId",
          "type": "uint256"
        },
        {
          "internalType": "uint256",
          "name": "amount",
          "type": "uint256"
        },
        {
          "internalType": "uint256",
          "name": "price",
          "type": "uint256"
        },
        {
          "internalType": "uint256",
          "name": "boxType",
          "type": "uint256"
        },
        {
          "internalType": "uint256",
          "name": "timeOut",
          "type": "uint256"
        },
        {
          "internalType": "bytes",
          "name": "randomSeed",
          "type": "bytes"
        },
        {
          "internalType": "bytes",
          "name": "signature",
          "type": "bytes"
        }
      ],
      "name": "openSpecialBox",
      "outputs": [],
      "stateMutability": "payable",
      "type": "function"
    },
    {
      "inputs": [
        {
          "internalType": "address",
          "name": "_secret",
          "type": "address"
        }
      ],
      "name": "setSecret",
      "outputs": [],
      "stateMutability": "nonpayable",
      "type": "function"
    },
    {
      "inputs": [
        {
          "internalType": "address",
          "name": "_apesAddress",
          "type": "address"
        },
        {
          "internalType": "address",
          "name": "_traitsAddress",
          "type": "address"
        },
        {
          "internalType": "address",
          "name": "_randomizerAddress",
          "type": "address"
        },
        {
          "internalType": "address",
          "name": "_masterContract",
          "type": "address"
        }
      ],
      "name": "setContractAddresses",
      "outputs": [],
      "stateMutability": "nonpayable",
      "type": "function"
    },
    {
      "inputs": [
        {
          "internalType": "address",
          "name": "_address",
          "type": "address"
        },
        {
          "internalType": "uint256",
          "name": "amount",
          "type": "uint256"
        }
      ],
      "name": "withdrawETH",
      "outputs": [],
      "stateMutability": "nonpayable",
      "type": "function"
    }
  ],
  "bytecode": "0x608060405261a8c06002553480156200001757600080fd5b50604051620036a1380380620036a183398181016040528101906200003d9190620002ea565b6200005d62000051620001b460201b60201c565b620001bc60201b60201c565b6001808190555084600360006101000a81548173ffffffffffffffffffffffffffffffffffffffff021916908373ffffffffffffffffffffffffffffffffffffffff16021790555083600460006101000a81548173ffffffffffffffffffffffffffffffffffffffff021916908373ffffffffffffffffffffffffffffffffffffffff16021790555082600560006101000a81548173ffffffffffffffffffffffffffffffffffffffff021916908373ffffffffffffffffffffffffffffffffffffffff16021790555081600660006101000a81548173ffffffffffffffffffffffffffffffffffffffff021916908373ffffffffffffffffffffffffffffffffffffffff16021790555080600760006101000a81548173ffffffffffffffffffffffffffffffffffffffff021916908373ffffffffffffffffffffffffffffffffffffffff160217905550505050505062000372565b600033905090565b60008060009054906101000a900473ffffffffffffffffffffffffffffffffffffffff169050816000806101000a81548173ffffffffffffffffffffffffffffffffffffffff021916908373ffffffffffffffffffffffffffffffffffffffff1602179055508173ffffffffffffffffffffffffffffffffffffffff168173ffffffffffffffffffffffffffffffffffffffff167f8be0079c531659141344cd1fd0a4f28419497f9722a3daafe3b4186f6b6457e060405160405180910390a35050565b600080fd5b600073ffffffffffffffffffffffffffffffffffffffff82169050919050565b6000620002b28262000285565b9050919050565b620002c481620002a5565b8114620002d057600080fd5b50565b600081519050620002e481620002b9565b92915050565b600080600080600060a0868803121562000309576200030862000280565b5b60006200031988828901620002d3565b95505060206200032c88828901620002d3565b94505060406200033f88828901620002d3565b93505060606200035288828901620002d3565b92505060806200036588828901620002d3565b9150509295509295909350565b61331f80620003826000396000f3fe60806040526004361061012a5760003560e01c80638da5cb5b116100ab578063cd446e221161006f578063cd446e22146103ea578063d1efd30d14610415578063e22220e414610440578063e9a7484c1461046b578063f23a6e6114610494578063f2fde38b146104d15761012a565b80638da5cb5b146102f1578063934dfa581461031c578063aaa6877714610359578063bc197c8114610382578063c093afdb146103bf5761012a565b806343102d89116100f257806343102d891461021b5780634782f779146102585780635c3b911d14610281578063715018a6146102be578063866de70e146102d55761012a565b806301ffc9a71461012f5780631150f0f31461016c5780632265c670146101a9578063279a20bc146101c557806336c7c12c146101f0575b600080fd5b34801561013b57600080fd5b5061015660048036038101906101519190611c01565b6104fa565b6040516101639190611c49565b60405180910390f35b34801561017857600080fd5b50610193600480360381019061018e9190611daa565b610574565b6040516101a09190611c49565b60405180910390f35b6101c360048036038101906101be9190611eb5565b6105aa565b005b3480156101d157600080fd5b506101da610c0a565b6040516101e7919061202b565b60405180910390f35b3480156101fc57600080fd5b50610205610c30565b6040516102129190612067565b60405180910390f35b34801561022757600080fd5b50610242600480360381019061023d9190612082565b610c56565b60405161024f91906120be565b60405180910390f35b34801561026457600080fd5b5061027f600480360381019061027a9190612117565b610c6e565b005b34801561028d57600080fd5b506102a860048036038101906102a39190612082565b610d7a565b6040516102b591906120be565b60405180910390f35b3480156102ca57600080fd5b506102d3610d92565b005b6102ef60048036038101906102ea9190612157565b610da6565b005b3480156102fd57600080fd5b5061030661157d565b6040516103139190612248565b60405180910390f35b34801561032857600080fd5b50610343600480360381019061033e9190612082565b6115a6565b60405161035091906120be565b60405180910390f35b34801561036557600080fd5b50610380600480360381019061037b9190612263565b6115be565b005b34801561038e57600080fd5b506103a960048036038101906103a4919061238d565b6116d0565b6040516103b6919061246b565b60405180910390f35b3480156103cb57600080fd5b506103d46116e5565b6040516103e191906124a7565b60405180910390f35b3480156103f657600080fd5b506103ff61170b565b60405161040c91906124e3565b60405180910390f35b34801561042157600080fd5b5061042a611731565b6040516104379190612248565b60405180910390f35b34801561044c57600080fd5b50610455611757565b60405161046291906120be565b60405180910390f35b34801561047757600080fd5b50610492600480360381019061048d91906124fe565b61175d565b005b3480156104a057600080fd5b506104bb60048036038101906104b6919061252b565b6117a9565b6040516104c8919061246b565b60405180910390f35b3480156104dd57600080fd5b506104f860048036038101906104f391906124fe565b6117be565b005b60007f4e2312e0000000000000000000000000000000000000000000000000000000007bffffffffffffffffffffffffffffffffffffffffffffffffffffffff1916827bffffffffffffffffffffffffffffffffffffffffffffffffffffffff1916148061056d575061056c82611841565b5b9050919050565b600b818051602081018201805184825260208301602085012081835280955050505050506000915054906101000a900460ff1681565b600b82826040516105bc9291906125f2565b908152602001604051809103902060009054906101000a900460ff1615610618576040517f08c379a000000000000000000000000000000000000000000000000000000000815260040161060f90612668565b60405180910390fd5b42861161065a576040517f08c379a0000000000000000000000000000000000000000000000000000000008152600401610651906126d4565b60405180910390fd5b6000871461069d576040517f08c379a000000000000000000000000000000000000000000000000000000000815260040161069490612740565b60405180910390fd5b6000600360009054906101000a900473ffffffffffffffffffffffffffffffffffffffff1673ffffffffffffffffffffffffffffffffffffffff16636352211e8c6040518263ffffffff1660e01b81526004016106fa91906120be565b602060405180830381865afa158015610717573d6000803e3d6000fd5b505050506040513d601f19601f8201168201806040525081019061073b9190612775565b90506107c333828d8d8d8d8d8d8d8d6040516020016107639a999897969594939291906127e0565b6040516020818303038152906040528051906020012084848080601f016020809104026020016040519081016040528093929190818152602001838380828437600081840152601f19601f820116905080830192505050505050506118ab565b610802576040517f08c379a00000000000000000000000000000000000000000000000000000000081526004016107f9906128c2565b60405180910390fd5b6001600b84846040516108169291906125f2565b908152602001604051809103902060006101000a81548160ff021916908315150217905550851580610867575042600254600960008e8152602001908152602001600020546108659190612911565b115b1561094a574261012c600960008e81526020019081526020016000205461088e9190612911565b116108ce576040517f08c379a00000000000000000000000000000000000000000000000000000000081526004016108c590612991565b60405180910390fd5b6000600a60008d81526020019081526020016000205411156108fe576002896108f791906129b1565b9850610945565b6107d0610bb88a61090f91906129b1565b6109199190612a22565b9850600a60008c8152602001908152602001600020600081548092919061093f90612a53565b91905055505b610964565b6000600a60008d8152602001908152602001600020819055505b600660009054906101000a900473ffffffffffffffffffffffffffffffffffffffff1673ffffffffffffffffffffffffffffffffffffffff1663ef48eee68a8b6040518363ffffffff1660e01b81526004016109c1929190612a9b565b600060405180830381600087803b1580156109db57600080fd5b505af11580156109ef573d6000803e3d6000fd5b50505050600080600560009054906101000a900473ffffffffffffffffffffffffffffffffffffffff1673ffffffffffffffffffffffffffffffffffffffff1663162ecf0988888f6040518463ffffffff1660e01b8152600401610a5593929190612ac4565b600060405180830381865afa158015610a72573d6000803e3d6000fd5b505050506040513d6000823e3d601f19601f82011682018060405250810190610a9b9190612bb7565b9150915060008c67ffffffffffffffff811115610abb57610aba611c7f565b5b604051908082528060200260200182016040528015610ae95781602001602082028036833780820191505090505b50905060005b8d811015610b2b576001828281518110610b0c57610b0b612c13565b5b6020026020010181815250508080610b2390612a53565b915050610aef565b50600460009054906101000a900473ffffffffffffffffffffffffffffffffffffffff1673ffffffffffffffffffffffffffffffffffffffff1663d81d0a153385846040518463ffffffff1660e01b8152600401610b8b93929190612d00565b600060405180830381600087803b158015610ba557600080fd5b505af1158015610bb9573d6000803e3d6000fd5b505050507fb8964e22f79aa20842dd69f6b8787a24ed6f17c550cc16d1d673f187ca242b498b8f8f86604051610bf29493929190612d45565b60405180910390a15050505050505050505050505050565b600360009054906101000a900473ffffffffffffffffffffffffffffffffffffffff1681565b600560009054906101000a900473ffffffffffffffffffffffffffffffffffffffff1681565b60096020528060005260406000206000915090505481565b610c766119f3565b610c7e611a42565b47811115610cc1576040517f08c379a0000000000000000000000000000000000000000000000000000000008152600401610cb890612ddd565b60405180910390fd5b60008273ffffffffffffffffffffffffffffffffffffffff1682604051610ce790612e23565b60006040518083038185875af1925050503d8060008114610d24576040519150601f19603f3d011682016040523d82523d6000602084013e610d29565b606091505b5050905080610d6d576040517f08c379a0000000000000000000000000000000000000000000000000000000008152600401610d6490612e84565b60405180910390fd5b50610d76611ac0565b5050565b600a6020528060005260406000206000915090505481565b610d9a611a42565b610da46000611ac9565b565b600b8282604051610db89291906125f2565b908152602001604051809103902060009054906101000a900460ff1615610e14576040517f08c379a0000000000000000000000000000000000000000000000000000000008152600401610e0b90612668565b60405180910390fd5b428511610e56576040517f08c379a0000000000000000000000000000000000000000000000000000000008152600401610e4d906126d4565b60405180910390fd5b60008611610e99576040517f08c379a0000000000000000000000000000000000000000000000000000000008152600401610e9090612740565b60405180910390fd5b863414610edb576040517f08c379a0000000000000000000000000000000000000000000000000000000008152600401610ed290612ef0565b60405180910390fd5b6000600360009054906101000a900473ffffffffffffffffffffffffffffffffffffffff1673ffffffffffffffffffffffffffffffffffffffff16636352211e8b6040518263ffffffff1660e01b8152600401610f3891906120be565b602060405180830381865afa158015610f55573d6000803e3d6000fd5b505050506040513d601f19601f82011682018060405250810190610f799190612775565b9050610fff33828c8c8c8c8c8c8c604051602001610f9f99989796959493929190612f10565b6040516020818303038152906040528051906020012084848080601f016020809104026020016040519081016040528093929190818152602001838380828437600081840152601f19601f820116905080830192505050505050506118ab565b61103e576040517f08c379a0000000000000000000000000000000000000000000000000000000008152600401611035906128c2565b60405180910390fd5b6001600b84846040516110529291906125f2565b908152602001604051809103902060006101000a81548160ff021916908315150217905550600080600560009054906101000a900473ffffffffffffffffffffffffffffffffffffffff1673ffffffffffffffffffffffffffffffffffffffff1663162ecf0988888e6040518463ffffffff1660e01b81526004016110d993929190612ac4565b600060405180830381865afa1580156110f6573d6000803e3d6000fd5b505050506040513d6000823e3d601f19601f8201168201806040525081019061111f9190612bb7565b9150915060008b905081156114115760005b835181101561122357600084828151811061114f5761114e612c13565b5b602002602001015190506027811180156111695750602c81105b1561120f57600660009054906101000a900473ffffffffffffffffffffffffffffffffffffffff1673ffffffffffffffffffffffffffffffffffffffff1663e1bc2967336001846040518463ffffffff1660e01b81526004016111ce93929190612fd2565b600060405180830381600087803b1580156111e857600080fd5b505af11580156111fc573d6000803e3d6000fd5b50505050828061120b90613009565b9350505b50808061121b90612a53565b915050611131565b50600081111561140c5760008167ffffffffffffffff81111561124957611248611c7f565b5b6040519080825280602002602001820160405280156112775781602001602082028036833780820191505090505b50905060008267ffffffffffffffff81111561129657611295611c7f565b5b6040519080825280602002602001820160405280156112c45781602001602082028036833780820191505090505b509050600080600090505b86518110156113765760008782815181106112ed576112ec612c13565b5b602002602001015190506027811180156113075750602c81105b156113125750611363565b600184848151811061132757611326612c13565b5b6020026020010181815250508085848151811061134757611346612c13565b5b602002602001018181525050828061135e90612a53565b935050505b808061136e90612a53565b9150506112cf565b50600460009054906101000a900473ffffffffffffffffffffffffffffffffffffffff1673ffffffffffffffffffffffffffffffffffffffff1663d81d0a153385856040518463ffffffff1660e01b81526004016113d693929190612d00565b600060405180830381600087803b1580156113f057600080fd5b505af1158015611404573d6000803e3d6000fd5b505050505050505b611531565b60008167ffffffffffffffff81111561142d5761142c611c7f565b5b60405190808252806020026020018201604052801561145b5781602001602082028036833780820191505090505b50905060005b8281101561149d57600182828151811061147e5761147d612c13565b5b602002602001018181525050808061149590612a53565b915050611461565b50600460009054906101000a900473ffffffffffffffffffffffffffffffffffffffff1673ffffffffffffffffffffffffffffffffffffffff1663d81d0a153386846040518463ffffffff1660e01b81526004016114fd93929190612d00565b600060405180830381600087803b15801561151757600080fd5b505af115801561152b573d6000803e3d6000fd5b50505050505b7fb8964e22f79aa20842dd69f6b8787a24ed6f17c550cc16d1d673f187ca242b498a8e8e866040516115669493929190612d45565b60405180910390a150505050505050505050505050565b60008060009054906101000a900473ffffffffffffffffffffffffffffffffffffffff16905090565b60086020528060005260406000206000915090505481565b6115c6611a42565b83600360006101000a81548173ffffffffffffffffffffffffffffffffffffffff021916908373ffffffffffffffffffffffffffffffffffffffff16021790555082600460006101000a81548173ffffffffffffffffffffffffffffffffffffffff021916908373ffffffffffffffffffffffffffffffffffffffff16021790555081600560006101000a81548173ffffffffffffffffffffffffffffffffffffffff021916908373ffffffffffffffffffffffffffffffffffffffff16021790555080600660006101000a81548173ffffffffffffffffffffffffffffffffffffffff021916908373ffffffffffffffffffffffffffffffffffffffff16021790555050505050565b600063bc197c8160e01b905095945050505050565b600460009054906101000a900473ffffffffffffffffffffffffffffffffffffffff1681565b600660009054906101000a900473ffffffffffffffffffffffffffffffffffffffff1681565b600760009054906101000a900473ffffffffffffffffffffffffffffffffffffffff1681565b60025481565b611765611a42565b80600760006101000a81548173ffffffffffffffffffffffffffffffffffffffff021916908373ffffffffffffffffffffffffffffffffffffffff16021790555050565b600063f23a6e6160e01b905095945050505050565b6117c6611a42565b600073ffffffffffffffffffffffffffffffffffffffff168173ffffffffffffffffffffffffffffffffffffffff1603611835576040517f08c379a000000000000000000000000000000000000000000000000000000000815260040161182c906130a4565b60405180910390fd5b61183e81611ac9565b50565b60007f01ffc9a7000000000000000000000000000000000000000000000000000000007bffffffffffffffffffffffffffffffffffffffffffffffffffffffff1916827bffffffffffffffffffffffffffffffffffffffffffffffffffffffff1916149050919050565b600080836040516020016118bf9190613146565b604051602081830303815290604052805190602001209050600080600060418651146118f25760009450505050506119ed565b6020860151925060408601519150606086015160001a9050601b8160ff16101561192657601b816119239190613179565b90505b6000601b8260ff16148061193d5750601c8260ff16145b15611994576001858386866040516000815260200160405260405161196594939291906131cc565b6020604051602081039080840390855afa158015611987573d6000803e3d6000fd5b5050506020604051035190505b8073ffffffffffffffffffffffffffffffffffffffff16600760009054906101000a900473ffffffffffffffffffffffffffffffffffffffff1673ffffffffffffffffffffffffffffffffffffffff1614955050505050505b92915050565b600260015403611a38576040517f08c379a0000000000000000000000000000000000000000000000000000000008152600401611a2f9061325d565b60405180910390fd5b6002600181905550565b611a4a611b8d565b73ffffffffffffffffffffffffffffffffffffffff16611a6861157d565b73ffffffffffffffffffffffffffffffffffffffff1614611abe576040517f08c379a0000000000000000000000000000000000000000000000000000000008152600401611ab5906132c9565b60405180910390fd5b565b60018081905550565b60008060009054906101000a900473ffffffffffffffffffffffffffffffffffffffff169050816000806101000a81548173ffffffffffffffffffffffffffffffffffffffff021916908373ffffffffffffffffffffffffffffffffffffffff1602179055508173ffffffffffffffffffffffffffffffffffffffff168173ffffffffffffffffffffffffffffffffffffffff167f8be0079c531659141344cd1fd0a4f28419497f9722a3daafe3b4186f6b6457e060405160405180910390a35050565b600033905090565b6000604051905090565b600080fd5b600080fd5b60007fffffffff0000000000000000000000000000000000000000000000000000000082169050919050565b611bde81611ba9565b8114611be957600080fd5b50565b600081359050611bfb81611bd5565b92915050565b600060208284031215611c1757611c16611b9f565b5b6000611c2584828501611bec565b91505092915050565b60008115159050919050565b611c4381611c2e565b82525050565b6000602082019050611c5e6000830184611c3a565b92915050565b600080fd5b600080fd5b6000601f19601f8301169050919050565b7f4e487b7100000000000000000000000000000000000000000000000000000000600052604160045260246000fd5b611cb782611c6e565b810181811067ffffffffffffffff82111715611cd657611cd5611c7f565b5b80604052505050565b6000611ce9611b95565b9050611cf58282611cae565b919050565b600067ffffffffffffffff821115611d1557611d14611c7f565b5b611d1e82611c6e565b9050602081019050919050565b82818337600083830152505050565b6000611d4d611d4884611cfa565b611cdf565b905082815260208101848484011115611d6957611d68611c69565b5b611d74848285611d2b565b509392505050565b600082601f830112611d9157611d90611c64565b5b8135611da1848260208601611d3a565b91505092915050565b600060208284031215611dc057611dbf611b9f565b5b600082013567ffffffffffffffff811115611dde57611ddd611ba4565b5b611dea84828501611d7c565b91505092915050565b6000819050919050565b611e0681611df3565b8114611e1157600080fd5b50565b600081359050611e2381611dfd565b92915050565b611e3281611c2e565b8114611e3d57600080fd5b50565b600081359050611e4f81611e29565b92915050565b600080fd5b600080fd5b60008083601f840112611e7557611e74611c64565b5b8235905067ffffffffffffffff811115611e9257611e91611e55565b5b602083019150836001820283011115611eae57611ead611e5a565b5b9250929050565b6000806000806000806000806000806101008b8d031215611ed957611ed8611b9f565b5b6000611ee78d828e01611e14565b9a50506020611ef88d828e01611e14565b9950506040611f098d828e01611e14565b9850506060611f1a8d828e01611e14565b9750506080611f2b8d828e01611e14565b96505060a0611f3c8d828e01611e40565b95505060c08b013567ffffffffffffffff811115611f5d57611f5c611ba4565b5b611f698d828e01611e5f565b945094505060e08b013567ffffffffffffffff811115611f8c57611f8b611ba4565b5b611f988d828e01611e5f565b92509250509295989b9194979a5092959850565b600073ffffffffffffffffffffffffffffffffffffffff82169050919050565b6000819050919050565b6000611ff1611fec611fe784611fac565b611fcc565b611fac565b9050919050565b600061200382611fd6565b9050919050565b600061201582611ff8565b9050919050565b6120258161200a565b82525050565b6000602082019050612040600083018461201c565b92915050565b600061205182611ff8565b9050919050565b61206181612046565b82525050565b600060208201905061207c6000830184612058565b92915050565b60006020828403121561209857612097611b9f565b5b60006120a684828501611e14565b91505092915050565b6120b881611df3565b82525050565b60006020820190506120d360008301846120af565b92915050565b60006120e482611fac565b9050919050565b6120f4816120d9565b81146120ff57600080fd5b50565b600081359050612111816120eb565b92915050565b6000806040838503121561212e5761212d611b9f565b5b600061213c85828601612102565b925050602061214d85828601611e14565b9150509250929050565b600080600080600080600080600060e08a8c03121561217957612178611b9f565b5b60006121878c828d01611e14565b99505060206121988c828d01611e14565b98505060406121a98c828d01611e14565b97505060606121ba8c828d01611e14565b96505060806121cb8c828d01611e14565b95505060a08a013567ffffffffffffffff8111156121ec576121eb611ba4565b5b6121f88c828d01611e5f565b945094505060c08a013567ffffffffffffffff81111561221b5761221a611ba4565b5b6122278c828d01611e5f565b92509250509295985092959850929598565b612242816120d9565b82525050565b600060208201905061225d6000830184612239565b92915050565b6000806000806080858703121561227d5761227c611b9f565b5b600061228b87828801612102565b945050602061229c87828801612102565b93505060406122ad87828801612102565b92505060606122be87828801612102565b91505092959194509250565b600067ffffffffffffffff8211156122e5576122e4611c7f565b5b602082029050602081019050919050565b6000612309612304846122ca565b611cdf565b9050808382526020820190506020840283018581111561232c5761232b611e5a565b5b835b8181101561235557806123418882611e14565b84526020840193505060208101905061232e565b5050509392505050565b600082601f83011261237457612373611c64565b5b81356123848482602086016122f6565b91505092915050565b600080600080600060a086880312156123a9576123a8611b9f565b5b60006123b788828901612102565b95505060206123c888828901612102565b945050604086013567ffffffffffffffff8111156123e9576123e8611ba4565b5b6123f58882890161235f565b935050606086013567ffffffffffffffff81111561241657612415611ba4565b5b6124228882890161235f565b925050608086013567ffffffffffffffff81111561244357612442611ba4565b5b61244f88828901611d7c565b9150509295509295909350565b61246581611ba9565b82525050565b6000602082019050612480600083018461245c565b92915050565b600061249182611ff8565b9050919050565b6124a181612486565b82525050565b60006020820190506124bc6000830184612498565b92915050565b60006124cd82611ff8565b9050919050565b6124dd816124c2565b82525050565b60006020820190506124f860008301846124d4565b92915050565b60006020828403121561251457612513611b9f565b5b600061252284828501612102565b91505092915050565b600080600080600060a0868803121561254757612546611b9f565b5b600061255588828901612102565b955050602061256688828901612102565b945050604061257788828901611e14565b935050606061258888828901611e14565b925050608086013567ffffffffffffffff8111156125a9576125a8611ba4565b5b6125b588828901611d7c565b9150509295509295909350565b600081905092915050565b60006125d983856125c2565b93506125e6838584611d2b565b82840190509392505050565b60006125ff8284866125cd565b91508190509392505050565b600082825260208201905092915050565b7f4f70656e426f783a205369676e617475726520616c7265616479207573656400600082015250565b6000612652601f8361260b565b915061265d8261261c565b602082019050919050565b6000602082019050818103600083015261268181612645565b9050919050565b7f4f70656e426f783a2053656564206973206e6f206c6f6e6765722076616c6964600082015250565b60006126be60208361260b565b91506126c982612688565b602082019050919050565b600060208201905081810360008301526126ed816126b1565b9050919050565b7f4f70656e426f783a20426f7854797065206e6f742076616c6964000000000000600082015250565b600061272a601a8361260b565b9150612735826126f4565b602082019050919050565b600060208201905081810360008301526127598161271d565b9050919050565b60008151905061276f816120eb565b92915050565b60006020828403121561278b5761278a611b9f565b5b600061279984828501612760565b91505092915050565b600082825260208201905092915050565b60006127bf83856127a2565b93506127cc838584611d2b565b6127d583611c6e565b840190509392505050565b6000610120820190506127f6600083018d612239565b612803602083018c612239565b612810604083018b6120af565b61281d606083018a6120af565b61282a60808301896120af565b61283760a08301886120af565b61284460c08301876120af565b61285160e0830186611c3a565b8181036101008301526128658184866127b3565b90509b9a5050505050505050505050565b7f4f70656e426f783a205369676e617475726520697320696e76616c6964000000600082015250565b60006128ac601d8361260b565b91506128b782612876565b602082019050919050565b600060208201905081810360008301526128db8161289f565b9050919050565b7f4e487b7100000000000000000000000000000000000000000000000000000000600052601160045260246000fd5b600061291c82611df3565b915061292783611df3565b925082820190508082111561293f5761293e6128e2565b5b92915050565b7f4f70656e426f783a205265206f70656e2074696d6520656c6170736564000000600082015250565b600061297b601d8361260b565b915061298682612945565b602082019050919050565b600060208201905081810360008301526129aa8161296e565b9050919050565b60006129bc82611df3565b91506129c783611df3565b92508282026129d581611df3565b915082820484148315176129ec576129eb6128e2565b5b5092915050565b7f4e487b7100000000000000000000000000000000000000000000000000000000600052601260045260246000fd5b6000612a2d82611df3565b9150612a3883611df3565b925082612a4857612a476129f3565b5b828204905092915050565b6000612a5e82611df3565b91507fffffffffffffffffffffffffffffffffffffffffffffffffffffffffffffffff8203612a9057612a8f6128e2565b5b600182019050919050565b6000604082019050612ab060008301856120af565b612abd60208301846120af565b9392505050565b60006040820190508181036000830152612adf8185876127b3565b9050612aee60208301846120af565b949350505050565b600081519050612b0581611dfd565b92915050565b6000612b1e612b19846122ca565b611cdf565b90508083825260208201905060208402830185811115612b4157612b40611e5a565b5b835b81811015612b6a5780612b568882612af6565b845260208401935050602081019050612b43565b5050509392505050565b600082601f830112612b8957612b88611c64565b5b8151612b99848260208601612b0b565b91505092915050565b600081519050612bb181611e29565b92915050565b60008060408385031215612bce57612bcd611b9f565b5b600083015167ffffffffffffffff811115612bec57612beb611ba4565b5b612bf885828601612b74565b9250506020612c0985828601612ba2565b9150509250929050565b7f4e487b7100000000000000000000000000000000000000000000000000000000600052603260045260246000fd5b600081519050919050565b600082825260208201905092915050565b6000819050602082019050919050565b612c7781611df3565b82525050565b6000612c898383612c6e565b60208301905092915050565b6000602082019050919050565b6000612cad82612c42565b612cb78185612c4d565b9350612cc283612c5e565b8060005b83811015612cf3578151612cda8882612c7d565b9750612ce583612c95565b925050600181019050612cc6565b5085935050505092915050565b6000606082019050612d156000830186612239565b8181036020830152612d278185612ca2565b90508181036040830152612d3b8184612ca2565b9050949350505050565b6000608082019050612d5a60008301876120af565b612d6760208301866120af565b612d7460408301856120af565b8181036060830152612d868184612ca2565b905095945050505050565b7f496e73756666696369656e742066756e64730000000000000000000000000000600082015250565b6000612dc760128361260b565b9150612dd282612d91565b602082019050919050565b60006020820190508181036000830152612df681612dba565b9050919050565b50565b6000612e0d6000836125c2565b9150612e1882612dfd565b600082019050919050565b6000612e2e82612e00565b9150819050919050565b7f556e61626c6520746f2073656e64206574680000000000000000000000000000600082015250565b6000612e6e60128361260b565b9150612e7982612e38565b602082019050919050565b60006020820190508181036000830152612e9d81612e61565b9050919050565b7f4f70656e426f783a2057726f6e67204554482076616c75650000000000000000600082015250565b6000612eda60188361260b565b9150612ee582612ea4565b602082019050919050565b60006020820190508181036000830152612f0981612ecd565b9050919050565b600061010082019050612f26600083018c612239565b612f33602083018b612239565b612f40604083018a6120af565b612f4d60608301896120af565b612f5a60808301886120af565b612f6760a08301876120af565b612f7460c08301866120af565b81810360e0830152612f878184866127b3565b90509a9950505050505050505050565b6000819050919050565b6000612fbc612fb7612fb284612f97565b611fcc565b611df3565b9050919050565b612fcc81612fa1565b82525050565b6000606082019050612fe76000830186612239565b612ff46020830185612fc3565b61300160408301846120af565b949350505050565b600061301482611df3565b915060008203613027576130266128e2565b5b600182039050919050565b7f4f776e61626c653a206e6577206f776e657220697320746865207a65726f206160008201527f6464726573730000000000000000000000000000000000000000000000000000602082015250565b600061308e60268361260b565b915061309982613032565b604082019050919050565b600060208201905081810360008301526130bd81613081565b9050919050565b600081905092915050565b7f19457468657265756d205369676e6564204d6573736167653a0a333200000000600082015250565b6000613105601c836130c4565b9150613110826130cf565b601c82019050919050565b6000819050919050565b6000819050919050565b61314061313b8261311b565b613125565b82525050565b6000613151826130f8565b915061315d828461312f565b60208201915081905092915050565b600060ff82169050919050565b60006131848261316c565b915061318f8361316c565b9250828201905060ff8111156131a8576131a76128e2565b5b92915050565b6131b78161311b565b82525050565b6131c68161316c565b82525050565b60006080820190506131e160008301876131ae565b6131ee60208301866131bd565b6131fb60408301856131ae565b61320860608301846131ae565b95945050505050565b7f5265656e7472616e637947756172643a207265656e7472616e742063616c6c00600082015250565b6000613247601f8361260b565b915061325282613211565b602082019050919050565b600060208201905081810360008301526132768161323a565b9050919050565b7f4f776e61626c653a2063616c6c6572206973206e6f7420746865206f776e6572600082015250565b60006132b360208361260b565b91506132be8261327d565b602082019050919050565b600060208201905081810360008301526132e2816132a6565b905091905056fea2646970667358221220ddd4d770b0d21471d96c361c1cac7e23b3ea0ca0840cb8a6c4678af316879ea064736f6c63430008120033",
  "immutableReferences": {},
  "source": "// SPDX-License-Identifier: GPL-3.0\r\n// solhint-disable-next-line\r\npragma solidity ^0.8.12;\r\n\r\nimport \"@openzeppelin/contracts/token/ERC1155/utils/ERC1155Holder.sol\";\r\nimport \"@openzeppelin/contracts/access/Ownable.sol\";\r\nimport \"@openzeppelin/contracts/security/ReentrancyGuard.sol\";\r\nimport \"./interface/IApes.sol\";\r\nimport \"./interface/ITraits.sol\";\r\nimport \"./interface/IRandomizer.sol\";\r\nimport \"./interface/IMasterContract.sol\";\r\n\r\ncontract LootBoxesV2 is ERC1155Holder, Ownable, ReentrancyGuard {\r\n    uint256 public powerCooldown = 12 hours;\r\n\r\n    IApes public apesContract;\r\n    ITraits public traitsContract;\r\n    IRandomizer public randomizerContract;\r\n    IMasterContract public masterContract;\r\n    address public secret;\r\n\r\n    mapping(uint256 => uint256) public lastBoxOpen;\r\n    mapping(uint256 => uint256) public apeLastBox;\r\n    mapping(uint256 => uint256) public apeOpenCount;\r\n\r\n    mapping(bytes => bool) public isSignatureUsed;\r\n\r\n    event BoxOpened(\r\n        uint256 boxType,\r\n        uint256 apeId,\r\n        uint256 amount,\r\n        uint256[] prizes\r\n    );\r\n\r\n    constructor(\r\n        address _apesAddress,\r\n        address _traitsAddress,\r\n        address _randomizerAddress,\r\n        address _masterContract,\r\n        address _secret\r\n    ) {\r\n        apesContract = IApes(_apesAddress);\r\n        traitsContract = ITraits(_traitsAddress);\r\n        randomizerContract = IRandomizer(_randomizerAddress);\r\n        masterContract = IMasterContract(_masterContract);\r\n        secret = _secret;\r\n    }\r\n\r\n    function openCommonBox(\r\n        uint256 apeId,\r\n        uint256 amount,\r\n        uint256 price,\r\n        uint256 boxType,\r\n        uint256 timeOut,\r\n        bool hasPower,\r\n        bytes calldata randomSeed,\r\n        bytes calldata signature\r\n    ) external payable {\r\n        require(!isSignatureUsed[signature], \"OpenBox: Signature already used\");\r\n        require(timeOut > block.timestamp, \"OpenBox: Seed is no longer valid\");\r\n        require(boxType == 0, \"OpenBox: BoxType not valid\");\r\n\r\n        address tokenOwner = apesContract.ownerOf(apeId); // Current owner of the Ape, allows SafeClaim\r\n\r\n        require(\r\n            _verifyHashSignature(\r\n                keccak256(\r\n                    abi.encode(\r\n                        msg.sender,\r\n                        tokenOwner,\r\n                        apeId,\r\n                        amount,\r\n                        price,\r\n                        boxType,\r\n                        timeOut,\r\n                        hasPower,\r\n                        randomSeed\r\n                    )\r\n                ),\r\n                signature\r\n            ),\r\n            \"OpenBox: Signature is invalid\"\r\n        );\r\n\r\n        isSignatureUsed[signature] = true;\r\n\r\n        if (!hasPower || apeLastBox[apeId] + powerCooldown > block.timestamp) {\r\n            require(\r\n                apeLastBox[apeId] + 5 minutes > block.timestamp,\r\n                \"OpenBox: Re open time elapsed\"\r\n            );\r\n\r\n            if (apeOpenCount[apeId] > 0) {\r\n                price = price * 2; // 2X the price\r\n            } else {\r\n                price = (price * 3000) / 2000; // 3/2 of the price\r\n                apeOpenCount[apeId]++;\r\n            }\r\n        } else {\r\n            apeOpenCount[apeId] = 0;\r\n        }\r\n\r\n        masterContract.pay(price, price);\r\n\r\n        (uint256[] memory prizes, bool hasExtra) = randomizerContract.getRandom(\r\n            randomSeed,\r\n            amount\r\n        );\r\n\r\n        uint256[] memory prizesAmounts = new uint256[](amount);\r\n\r\n        for (uint256 i = 0; i < amount; i++) {\r\n            prizesAmounts[i] = 1;\r\n        }\r\n\r\n        traitsContract.mintBatch(msg.sender, prizes, prizesAmounts);\r\n\r\n        emit BoxOpened(boxType, apeId, amount, prizes);\r\n    }\r\n\r\n    function openSpecialBox(\r\n        uint256 apeId,\r\n        uint256 amount,\r\n        uint256 price,\r\n        uint256 boxType,\r\n        uint256 timeOut,\r\n        bytes calldata randomSeed,\r\n        bytes calldata signature\r\n    ) external payable {\r\n        require(!isSignatureUsed[signature], \"OpenBox: Signature already used\");\r\n        require(timeOut > block.timestamp, \"OpenBox: Seed is no longer valid\");\r\n        require(boxType > 0, \"OpenBox: BoxType not valid\");\r\n        require(msg.value == price, \"OpenBox: Wrong ETH value\");\r\n\r\n        address tokenOwner = apesContract.ownerOf(apeId); // Current owner of the Ape, allows SafeClaim\r\n\r\n        require(\r\n            _verifyHashSignature(\r\n                keccak256(\r\n                    abi.encode(\r\n                        msg.sender,\r\n                        tokenOwner,\r\n                        apeId,\r\n                        amount,\r\n                        price,\r\n                        boxType,\r\n                        timeOut,\r\n                        randomSeed\r\n                    )\r\n                ),\r\n                signature\r\n            ),\r\n            \"OpenBox: Signature is invalid\"\r\n        );\r\n\r\n        isSignatureUsed[signature] = true;\r\n\r\n        (uint256[] memory prizes, bool hasExtra) = randomizerContract.getRandom(\r\n            randomSeed,\r\n            amount\r\n        );\r\n\r\n        uint256 quantiteToMint = amount;\r\n\r\n        if (hasExtra) {\r\n            for (uint256 i = 0; i < prizes.length; i++) {\r\n                uint256 currentPrize = prizes[i];\r\n\r\n                if (currentPrize > 39 && currentPrize < 44) {\r\n                    masterContract.airdrop(msg.sender, 1, currentPrize); // Number between 40 - 43, breeding replenishment\r\n                    quantiteToMint--;\r\n                }\r\n            }\r\n\r\n            if (quantiteToMint > 0) {\r\n                uint256[] memory prizesToMint = new uint256[](quantiteToMint);\r\n                uint256[] memory prizesAmounts = new uint256[](quantiteToMint);\r\n                uint256 addedCount;\r\n\r\n                for (uint256 i = 0; i < prizes.length; i++) {\r\n                    uint256 currentPrize = prizes[i];\r\n                    if (currentPrize > 39 && currentPrize < 44) {\r\n                        continue;\r\n                    }\r\n\r\n                    prizesAmounts[addedCount] = 1;\r\n                    prizesToMint[addedCount] = currentPrize;\r\n                    addedCount++;\r\n                }\r\n\r\n                traitsContract.mintBatch(\r\n                    msg.sender,\r\n                    prizesToMint,\r\n                    prizesAmounts\r\n                );\r\n            }\r\n        } else {\r\n            uint256[] memory prizesAmounts = new uint256[](quantiteToMint);\r\n\r\n            for (uint256 i = 0; i < quantiteToMint; i++) {\r\n                prizesAmounts[i] = 1;\r\n            }\r\n\r\n            traitsContract.mintBatch(msg.sender, prizes, prizesAmounts);\r\n        }\r\n\r\n        emit BoxOpened(boxType, apeId, amount, prizes);\r\n    }\r\n\r\n    function setSecret(address _secret) external onlyOwner {\r\n        secret = _secret;\r\n    }\r\n\r\n    function setContractAddresses(\r\n        address _apesAddress,\r\n        address _traitsAddress,\r\n        address _randomizerAddress,\r\n        address _masterContract\r\n    ) external onlyOwner {\r\n        apesContract = IApes(_apesAddress);\r\n        traitsContract = ITraits(_traitsAddress);\r\n        randomizerContract = IRandomizer(_randomizerAddress);\r\n        masterContract = IMasterContract(_masterContract);\r\n    }\r\n\r\n    function withdrawETH(address _address, uint256 amount)\r\n        public\r\n        nonReentrant\r\n        onlyOwner\r\n    {\r\n        require(amount <= address(this).balance, \"Insufficient funds\");\r\n        (bool success, ) = _address.call{value: amount}(\"\");\r\n        require(success, \"Unable to send eth\");\r\n    }\r\n\r\n    function _verifyHashSignature(bytes32 freshHash, bytes memory signature)\r\n        internal\r\n        view\r\n        returns (bool)\r\n    {\r\n        bytes32 hash = keccak256(\r\n            abi.encodePacked(\"\\x19Ethereum Signed Message:\\n32\", freshHash)\r\n        );\r\n        bytes32 r;\r\n        bytes32 s;\r\n        uint8 v;\r\n        if (signature.length != 65) {\r\n            return false;\r\n        }\r\n        assembly {\r\n            r := mload(add(signature, 32))\r\n            s := mload(add(signature, 64))\r\n            v := byte(0, mload(add(signature, 96)))\r\n        }\r\n        if (v < 27) {\r\n            v += 27;\r\n        }\r\n        address signer = address(0);\r\n        if (v == 27 || v == 28) {\r\n            // solium-disable-next-line arg-overflow\r\n            signer = ecrecover(hash, v, r, s);\r\n        }\r\n        return secret == signer;\r\n    }\r\n}\r\n",
  "sourcePath": "C:\\Testing\\contracts\\LootBoxesV2.sol",
  "compiler": {
    "name": "solc",
    "version": "0.8.18+commit.87f61d96.Emscripten.clang"
  },
  "schemaVersion": "3.4.11",
  "updatedAt": "2023-02-09T20:40:38.872Z",
  "devdoc": {
    "kind": "dev",
    "methods": {
      "owner()": {
        "details": "Returns the address of the current owner."
      },
      "renounceOwnership()": {
        "details": "Leaves the contract without owner. It will not be possible to call `onlyOwner` functions anymore. Can only be called by the current owner. NOTE: Renouncing ownership will leave the contract without an owner, thereby removing any functionality that is only available to the owner."
      },
      "supportsInterface(bytes4)": {
        "details": "See {IERC165-supportsInterface}."
      },
      "transferOwnership(address)": {
        "details": "Transfers ownership of the contract to a new account (`newOwner`). Can only be called by the current owner."
      }
    },
    "version": 1
  },
  "userdoc": {
    "kind": "user",
    "methods": {},
    "version": 1
  }
}