{
  "contractName": "LootBoxes",
  "abi": [
    {
      "inputs": [
        {
          "internalType": "address",
          "name": "_apesAddress",
          "type": "address"
        },
        {
          "internalType": "address",
          "name": "_traitsAddress",
          "type": "address"
        },
        {
          "internalType": "address",
          "name": "_randomizerAddress",
          "type": "address"
        },
        {
          "internalType": "address",
          "name": "_methAddress",
          "type": "address"
        },
        {
          "internalType": "address",
          "name": "_secret",
          "type": "address"
        },
        {
          "internalType": "address",
          "name": "_treasury",
          "type": "address"
        }
      ],
      "stateMutability": "nonpayable",
      "type": "constructor"
    },
    {
      "anonymous": false,
      "inputs": [
        {
          "indexed": false,
          "internalType": "uint256",
          "name": "boxType",
          "type": "uint256"
        },
        {
          "indexed": false,
          "internalType": "uint256",
          "name": "initialPrice",
          "type": "uint256"
        },
        {
          "indexed": false,
          "internalType": "uint256",
          "name": "minPrice",
          "type": "uint256"
        },
        {
          "indexed": false,
          "internalType": "uint256",
          "name": "maxPrice",
          "type": "uint256"
        },
        {
          "indexed": false,
          "internalType": "address",
          "name": "operator",
          "type": "address"
        }
      ],
      "name": "BoxCreated",
      "type": "event"
    },
    {
      "anonymous": false,
      "inputs": [
        {
          "indexed": false,
          "internalType": "uint256",
          "name": "boxId",
          "type": "uint256"
        },
        {
          "indexed": false,
          "internalType": "uint256",
          "name": "boxType",
          "type": "uint256"
        },
        {
          "indexed": false,
          "internalType": "uint256",
          "name": "apeId",
          "type": "uint256"
        },
        {
          "indexed": false,
          "internalType": "uint256",
          "name": "amount",
          "type": "uint256"
        },
        {
          "indexed": false,
          "internalType": "uint256[]",
          "name": "prizes",
          "type": "uint256[]"
        }
      ],
      "name": "BoxOpened",
      "type": "event"
    },
    {
      "anonymous": false,
      "inputs": [
        {
          "indexed": true,
          "internalType": "address",
          "name": "previousOwner",
          "type": "address"
        },
        {
          "indexed": true,
          "internalType": "address",
          "name": "newOwner",
          "type": "address"
        }
      ],
      "name": "OwnershipTransferred",
      "type": "event"
    },
    {
      "inputs": [
        {
          "internalType": "uint256",
          "name": "",
          "type": "uint256"
        }
      ],
      "name": "apeLastBox",
      "outputs": [
        {
          "internalType": "uint256",
          "name": "",
          "type": "uint256"
        }
      ],
      "stateMutability": "view",
      "type": "function"
    },
    {
      "inputs": [
        {
          "internalType": "uint256",
          "name": "",
          "type": "uint256"
        }
      ],
      "name": "apeOpenCount",
      "outputs": [
        {
          "internalType": "uint256",
          "name": "",
          "type": "uint256"
        }
      ],
      "stateMutability": "view",
      "type": "function"
    },
    {
      "inputs": [],
      "name": "apesContract",
      "outputs": [
        {
          "internalType": "contract IApes",
          "name": "",
          "type": "address"
        }
      ],
      "stateMutability": "view",
      "type": "function"
    },
    {
      "inputs": [
        {
          "internalType": "uint256",
          "name": "",
          "type": "uint256"
        }
      ],
      "name": "boxInfo",
      "outputs": [
        {
          "internalType": "uint256",
          "name": "boxType",
          "type": "uint256"
        },
        {
          "internalType": "uint256",
          "name": "currentPrice",
          "type": "uint256"
        },
        {
          "internalType": "uint256",
          "name": "minPrice",
          "type": "uint256"
        },
        {
          "internalType": "uint256",
          "name": "maxPrice",
          "type": "uint256"
        }
      ],
      "stateMutability": "view",
      "type": "function"
    },
    {
      "inputs": [],
      "name": "boxesAmount",
      "outputs": [
        {
          "internalType": "uint256",
          "name": "",
          "type": "uint256"
        }
      ],
      "stateMutability": "view",
      "type": "function"
    },
    {
      "inputs": [],
      "name": "decreasePercentage",
      "outputs": [
        {
          "internalType": "uint256",
          "name": "",
          "type": "uint256"
        }
      ],
      "stateMutability": "view",
      "type": "function"
    },
    {
      "inputs": [
        {
          "internalType": "uint256",
          "name": "",
          "type": "uint256"
        }
      ],
      "name": "discounts",
      "outputs": [
        {
          "internalType": "uint256",
          "name": "",
          "type": "uint256"
        }
      ],
      "stateMutability": "view",
      "type": "function"
    },
    {
      "inputs": [
        {
          "internalType": "uint256",
          "name": "",
          "type": "uint256"
        }
      ],
      "name": "freeSpinUsed",
      "outputs": [
        {
          "internalType": "bool",
          "name": "",
          "type": "bool"
        }
      ],
      "stateMutability": "view",
      "type": "function"
    },
    {
      "inputs": [],
      "name": "increasePercentage",
      "outputs": [
        {
          "internalType": "uint256",
          "name": "",
          "type": "uint256"
        }
      ],
      "stateMutability": "view",
      "type": "function"
    },
    {
      "inputs": [
        {
          "internalType": "address",
          "name": "",
          "type": "address"
        }
      ],
      "name": "isBoxCreator",
      "outputs": [
        {
          "internalType": "bool",
          "name": "",
          "type": "bool"
        }
      ],
      "stateMutability": "view",
      "type": "function"
    },
    {
      "inputs": [
        {
          "internalType": "bytes",
          "name": "",
          "type": "bytes"
        }
      ],
      "name": "isSignatureUsed",
      "outputs": [
        {
          "internalType": "bool",
          "name": "",
          "type": "bool"
        }
      ],
      "stateMutability": "view",
      "type": "function"
    },
    {
      "inputs": [
        {
          "internalType": "uint256",
          "name": "",
          "type": "uint256"
        }
      ],
      "name": "lastBoxIncrease",
      "outputs": [
        {
          "internalType": "uint256",
          "name": "",
          "type": "uint256"
        }
      ],
      "stateMutability": "view",
      "type": "function"
    },
    {
      "inputs": [
        {
          "internalType": "uint256",
          "name": "",
          "type": "uint256"
        }
      ],
      "name": "lastBoxOpen",
      "outputs": [
        {
          "internalType": "uint256",
          "name": "",
          "type": "uint256"
        }
      ],
      "stateMutability": "view",
      "type": "function"
    },
    {
      "inputs": [],
      "name": "methContract",
      "outputs": [
        {
          "internalType": "contract IERC20",
          "name": "",
          "type": "address"
        }
      ],
      "stateMutability": "view",
      "type": "function"
    },
    {
      "inputs": [
        {
          "internalType": "address",
          "name": "",
          "type": "address"
        },
        {
          "internalType": "address",
          "name": "",
          "type": "address"
        },
        {
          "internalType": "uint256[]",
          "name": "",
          "type": "uint256[]"
        },
        {
          "internalType": "uint256[]",
          "name": "",
          "type": "uint256[]"
        },
        {
          "internalType": "bytes",
          "name": "",
          "type": "bytes"
        }
      ],
      "name": "onERC1155BatchReceived",
      "outputs": [
        {
          "internalType": "bytes4",
          "name": "",
          "type": "bytes4"
        }
      ],
      "stateMutability": "nonpayable",
      "type": "function"
    },
    {
      "inputs": [
        {
          "internalType": "address",
          "name": "",
          "type": "address"
        },
        {
          "internalType": "address",
          "name": "",
          "type": "address"
        },
        {
          "internalType": "uint256",
          "name": "",
          "type": "uint256"
        },
        {
          "internalType": "uint256",
          "name": "",
          "type": "uint256"
        },
        {
          "internalType": "bytes",
          "name": "",
          "type": "bytes"
        }
      ],
      "name": "onERC1155Received",
      "outputs": [
        {
          "internalType": "bytes4",
          "name": "",
          "type": "bytes4"
        }
      ],
      "stateMutability": "nonpayable",
      "type": "function"
    },
    {
      "inputs": [],
      "name": "owner",
      "outputs": [
        {
          "internalType": "address",
          "name": "",
          "type": "address"
        }
      ],
      "stateMutability": "view",
      "type": "function"
    },
    {
      "inputs": [],
      "name": "powerCooldown",
      "outputs": [
        {
          "internalType": "uint256",
          "name": "",
          "type": "uint256"
        }
      ],
      "stateMutability": "view",
      "type": "function"
    },
    {
      "inputs": [],
      "name": "priceTimeFrame",
      "outputs": [
        {
          "internalType": "uint256",
          "name": "",
          "type": "uint256"
        }
      ],
      "stateMutability": "view",
      "type": "function"
    },
    {
      "inputs": [],
      "name": "randomizerContract",
      "outputs": [
        {
          "internalType": "contract IRandomizer",
          "name": "",
          "type": "address"
        }
      ],
      "stateMutability": "view",
      "type": "function"
    },
    {
      "inputs": [],
      "name": "renounceOwnership",
      "outputs": [],
      "stateMutability": "nonpayable",
      "type": "function"
    },
    {
      "inputs": [],
      "name": "secret",
      "outputs": [
        {
          "internalType": "address",
          "name": "",
          "type": "address"
        }
      ],
      "stateMutability": "view",
      "type": "function"
    },
    {
      "inputs": [
        {
          "internalType": "bytes4",
          "name": "interfaceId",
          "type": "bytes4"
        }
      ],
      "name": "supportsInterface",
      "outputs": [
        {
          "internalType": "bool",
          "name": "",
          "type": "bool"
        }
      ],
      "stateMutability": "view",
      "type": "function"
    },
    {
      "inputs": [],
      "name": "traitsContract",
      "outputs": [
        {
          "internalType": "contract ITraits",
          "name": "",
          "type": "address"
        }
      ],
      "stateMutability": "view",
      "type": "function"
    },
    {
      "inputs": [
        {
          "internalType": "address",
          "name": "newOwner",
          "type": "address"
        }
      ],
      "name": "transferOwnership",
      "outputs": [],
      "stateMutability": "nonpayable",
      "type": "function"
    },
    {
      "inputs": [],
      "name": "treasury",
      "outputs": [
        {
          "internalType": "address",
          "name": "",
          "type": "address"
        }
      ],
      "stateMutability": "view",
      "type": "function"
    },
    {
      "inputs": [
        {
          "internalType": "uint256",
          "name": "boxType",
          "type": "uint256"
        },
        {
          "internalType": "uint256",
          "name": "initialPrice",
          "type": "uint256"
        },
        {
          "internalType": "uint256",
          "name": "minPrice",
          "type": "uint256"
        },
        {
          "internalType": "uint256",
          "name": "maxPrice",
          "type": "uint256"
        }
      ],
      "name": "createBox",
      "outputs": [],
      "stateMutability": "nonpayable",
      "type": "function"
    },
    {
      "inputs": [
        {
          "internalType": "uint256",
          "name": "boxId",
          "type": "uint256"
        },
        {
          "internalType": "uint256",
          "name": "apeId",
          "type": "uint256"
        },
        {
          "internalType": "uint256",
          "name": "amount",
          "type": "uint256"
        },
        {
          "internalType": "uint256",
          "name": "timeOut",
          "type": "uint256"
        },
        {
          "internalType": "bool",
          "name": "hasPower",
          "type": "bool"
        },
        {
          "internalType": "bytes",
          "name": "randomSeed",
          "type": "bytes"
        },
        {
          "internalType": "bytes",
          "name": "signature",
          "type": "bytes"
        }
      ],
      "name": "openBox",
      "outputs": [],
      "stateMutability": "payable",
      "type": "function"
    },
    {
      "inputs": [
        {
          "internalType": "uint256",
          "name": "boxId",
          "type": "uint256"
        }
      ],
      "name": "getPrice",
      "outputs": [
        {
          "internalType": "uint256",
          "name": "price",
          "type": "uint256"
        }
      ],
      "stateMutability": "view",
      "type": "function"
    },
    {
      "inputs": [
        {
          "internalType": "uint256",
          "name": "apeId",
          "type": "uint256"
        }
      ],
      "name": "giveFreeSpin",
      "outputs": [],
      "stateMutability": "nonpayable",
      "type": "function"
    },
    {
      "inputs": [
        {
          "internalType": "address",
          "name": "operator",
          "type": "address"
        },
        {
          "internalType": "bool",
          "name": "status",
          "type": "bool"
        }
      ],
      "name": "setIsCreator",
      "outputs": [],
      "stateMutability": "nonpayable",
      "type": "function"
    },
    {
      "inputs": [
        {
          "internalType": "address",
          "name": "_secret",
          "type": "address"
        }
      ],
      "name": "setSecret",
      "outputs": [],
      "stateMutability": "nonpayable",
      "type": "function"
    },
    {
      "inputs": [
        {
          "internalType": "address",
          "name": "_treasury",
          "type": "address"
        }
      ],
      "name": "setTreasuryAddress",
      "outputs": [],
      "stateMutability": "nonpayable",
      "type": "function"
    },
    {
      "inputs": [
        {
          "internalType": "uint256",
          "name": "_5Discount",
          "type": "uint256"
        },
        {
          "internalType": "uint256",
          "name": "_11Discount",
          "type": "uint256"
        }
      ],
      "name": "setDiscounts",
      "outputs": [],
      "stateMutability": "nonpayable",
      "type": "function"
    },
    {
      "inputs": [
        {
          "internalType": "address",
          "name": "_apesAddress",
          "type": "address"
        },
        {
          "internalType": "address",
          "name": "_traitsAddress",
          "type": "address"
        },
        {
          "internalType": "address",
          "name": "_randomizerAddress",
          "type": "address"
        },
        {
          "internalType": "address",
          "name": "_methAddress",
          "type": "address"
        }
      ],
      "name": "setContractAddresses",
      "outputs": [],
      "stateMutability": "nonpayable",
      "type": "function"
    },
    {
      "inputs": [
        {
          "internalType": "address",
          "name": "_address",
          "type": "address"
        },
        {
          "internalType": "uint256",
          "name": "amount",
          "type": "uint256"
        }
      ],
      "name": "withdrawETH",
      "outputs": [],
      "stateMutability": "nonpayable",
      "type": "function"
    }
  ],
  "bytecode": "0x608060405261038460035561a8c060045560c8600555606460065560405180604001604052806103e861ffff1681526020016109c461ffff1681525060079060026200004d92919062000306565b503480156200005b57600080fd5b5060405162003b4238038062003b428339818101604052810190620000819190620003e7565b620000a1620000956200023a60201b60201c565b6200024260201b60201c565b6001808190555085600860006101000a81548173ffffffffffffffffffffffffffffffffffffffff021916908373ffffffffffffffffffffffffffffffffffffffff16021790555084600960006101000a81548173ffffffffffffffffffffffffffffffffffffffff021916908373ffffffffffffffffffffffffffffffffffffffff16021790555083600a60006101000a81548173ffffffffffffffffffffffffffffffffffffffff021916908373ffffffffffffffffffffffffffffffffffffffff16021790555082600b60006101000a81548173ffffffffffffffffffffffffffffffffffffffff021916908373ffffffffffffffffffffffffffffffffffffffff16021790555081600c60006101000a81548173ffffffffffffffffffffffffffffffffffffffff021916908373ffffffffffffffffffffffffffffffffffffffff16021790555080600d60006101000a81548173ffffffffffffffffffffffffffffffffffffffff021916908373ffffffffffffffffffffffffffffffffffffffff16021790555050505050505062000483565b600033905090565b60008060009054906101000a900473ffffffffffffffffffffffffffffffffffffffff169050816000806101000a81548173ffffffffffffffffffffffffffffffffffffffff021916908373ffffffffffffffffffffffffffffffffffffffff1602179055508173ffffffffffffffffffffffffffffffffffffffff168173ffffffffffffffffffffffffffffffffffffffff167f8be0079c531659141344cd1fd0a4f28419497f9722a3daafe3b4186f6b6457e060405160405180910390a35050565b8280548282559060005260206000209081019282156200034b579160200282015b828111156200034a578251829061ffff1690559160200191906001019062000327565b5b5090506200035a91906200035e565b5090565b5b80821115620003795760008160009055506001016200035f565b5090565b600080fd5b600073ffffffffffffffffffffffffffffffffffffffff82169050919050565b6000620003af8262000382565b9050919050565b620003c181620003a2565b8114620003cd57600080fd5b50565b600081519050620003e181620003b6565b92915050565b60008060008060008060c087890312156200040757620004066200037d565b5b60006200041789828a01620003d0565b96505060206200042a89828a01620003d0565b95505060406200043d89828a01620003d0565b94505060606200045089828a01620003d0565b93505060806200046389828a01620003d0565b92505060a06200047689828a01620003d0565b9150509295509295509295565b6136af80620004936000396000f3fe60806040526004361061020f5760003560e01c80639f4f730f11610118578063d1efd30d116100a0578063e22220e41161006f578063e22220e4146107e1578063e75722301461080c578063e9a7484c14610849578063f23a6e6114610872578063f2fde38b146108af5761020f565b8063d1efd30d14610732578063d39208711461075d578063d53d23d71461079a578063e05d049a146107c55761020f565b8063b6de332e116100e7578063b6de332e14610625578063bae6a69014610662578063bc197c811461069f578063c093afdb146106dc578063c89b6338146107075761020f565b80639f4f730f1461056b5780639fe9734914610596578063a2623f7c146105d3578063aaa68777146105fc5761020f565b806361d027b31161019b5780638da5cb5b1161016a5780638da5cb5b146104865780638f20f45a146104b1578063934dfa58146104da578063981918091461051757806398857313146105405761020f565b806361d027b3146103f05780636605bfda1461041b578063715018a61461044457806384a760cc1461045b5761020f565b806336c7c12c116101e257806336c7c12c146102f957806343102d891461032457806346cf7aaa146103615780634782f7791461038a5780635c3b911d146103b35761020f565b806301ffc9a7146102145780631150f0f314610251578063260d68fa1461028e578063279a20bc146102ce575b600080fd5b34801561022057600080fd5b5061023b60048036038101906102369190611fe8565b6108d8565b6040516102489190612030565b60405180910390f35b34801561025d57600080fd5b5061027860048036038101906102739190612191565b610952565b6040516102859190612030565b60405180910390f35b34801561029a57600080fd5b506102b560048036038101906102b09190612210565b610988565b6040516102c5949392919061224c565b60405180910390f35b3480156102da57600080fd5b506102e36109b8565b6040516102f09190612310565b60405180910390f35b34801561030557600080fd5b5061030e6109de565b60405161031b919061234c565b60405180910390f35b34801561033057600080fd5b5061034b60048036038101906103469190612210565b610a04565b6040516103589190612367565b60405180910390f35b34801561036d57600080fd5b5061038860048036038101906103839190612382565b610a1c565b005b34801561039657600080fd5b506103b160048036038101906103ac9190612400565b610a70565b005b3480156103bf57600080fd5b506103da60048036038101906103d59190612210565b610b7c565b6040516103e79190612367565b60405180910390f35b3480156103fc57600080fd5b50610405610b94565b604051610412919061244f565b60405180910390f35b34801561042757600080fd5b50610442600480360381019061043d919061246a565b610bba565b005b34801561045057600080fd5b50610459610c06565b005b34801561046757600080fd5b50610470610c1a565b60405161047d91906124b8565b60405180910390f35b34801561049257600080fd5b5061049b610c40565b6040516104a8919061244f565b60405180910390f35b3480156104bd57600080fd5b506104d860048036038101906104d391906124d3565b610c69565b005b3480156104e657600080fd5b5061050160048036038101906104fc9190612210565b610de9565b60405161050e9190612367565b60405180910390f35b34801561052357600080fd5b5061053e60048036038101906105399190612210565b610e01565b005b34801561054c57600080fd5b50610555610e38565b6040516105629190612367565b60405180910390f35b34801561057757600080fd5b50610580610e3e565b60405161058d9190612367565b60405180910390f35b3480156105a257600080fd5b506105bd60048036038101906105b89190612210565b610e44565b6040516105ca9190612367565b60405180910390f35b3480156105df57600080fd5b506105fa60048036038101906105f59190612566565b610e5c565b005b34801561060857600080fd5b50610623600480360381019061061e91906125a6565b610ebf565b005b34801561063157600080fd5b5061064c60048036038101906106479190612210565b610fd1565b6040516106599190612030565b60405180910390f35b34801561066e57600080fd5b5061068960048036038101906106849190612210565b610ff1565b6040516106969190612367565b60405180910390f35b3480156106ab57600080fd5b506106c660048036038101906106c191906126d5565b611015565b6040516106d391906127b3565b60405180910390f35b3480156106e857600080fd5b506106f161102a565b6040516106fe91906127ef565b60405180910390f35b34801561071357600080fd5b5061071c611050565b6040516107299190612367565b60405180910390f35b34801561073e57600080fd5b50610747611056565b604051610754919061244f565b60405180910390f35b34801561076957600080fd5b50610784600480360381019061077f919061246a565b61107c565b6040516107919190612030565b60405180910390f35b3480156107a657600080fd5b506107af61109c565b6040516107bc9190612367565b60405180910390f35b6107df60048036038101906107da919061280a565b6110a2565b005b3480156107ed57600080fd5b506107f6611a06565b6040516108039190612367565b60405180910390f35b34801561081857600080fd5b50610833600480360381019061082e9190612210565b611a0c565b6040516108409190612367565b60405180910390f35b34801561085557600080fd5b50610870600480360381019061086b919061246a565b611b44565b005b34801561087e57600080fd5b50610899600480360381019061089491906128e4565b611b90565b6040516108a691906127b3565b60405180910390f35b3480156108bb57600080fd5b506108d660048036038101906108d1919061246a565b611ba5565b005b60007f4e2312e0000000000000000000000000000000000000000000000000000000007bffffffffffffffffffffffffffffffffffffffffffffffffffffffff1916827bffffffffffffffffffffffffffffffffffffffffffffffffffffffff1916148061094b575061094a82611c28565b5b9050919050565b6015818051602081018201805184825260208301602085012081835280955050505050506000915054906101000a900460ff1681565b600e6020528060005260406000206000915090508060000154908060010154908060020154908060030154905084565b600860009054906101000a900473ffffffffffffffffffffffffffffffffffffffff1681565b600a60009054906101000a900473ffffffffffffffffffffffffffffffffffffffff1681565b60116020528060005260406000206000915090505481565b610a24611c92565b816007600081548110610a3a57610a3961297b565b5b9060005260206000200181905550806007600181548110610a5e57610a5d61297b565b5b90600052602060002001819055505050565b610a78611d10565b610a80611c92565b47811115610ac3576040517f08c379a0000000000000000000000000000000000000000000000000000000008152600401610aba90612a07565b60405180910390fd5b60008273ffffffffffffffffffffffffffffffffffffffff1682604051610ae990612a58565b60006040518083038185875af1925050503d8060008114610b26576040519150601f19603f3d011682016040523d82523d6000602084013e610b2b565b606091505b5050905080610b6f576040517f08c379a0000000000000000000000000000000000000000000000000000000008152600401610b6690612ab9565b60405180910390fd5b50610b78611d5f565b5050565b60126020528060005260406000206000915090505481565b600d60009054906101000a900473ffffffffffffffffffffffffffffffffffffffff1681565b610bc2611c92565b80600d60006101000a81548173ffffffffffffffffffffffffffffffffffffffff021916908373ffffffffffffffffffffffffffffffffffffffff16021790555050565b610c0e611c92565b610c186000611d68565b565b600b60009054906101000a900473ffffffffffffffffffffffffffffffffffffffff1681565b60008060009054906101000a900473ffffffffffffffffffffffffffffffffffffffff16905090565b601460003373ffffffffffffffffffffffffffffffffffffffff1673ffffffffffffffffffffffffffffffffffffffff16815260200190815260200160002060009054906101000a900460ff16610cf5576040517f08c379a0000000000000000000000000000000000000000000000000000000008152600401610cec90612b25565b60405180910390fd5b60006002549050604051806080016040528086815260200185815260200184815260200183815250600e60008381526020019081526020016000206000820151816000015560208201518160010155604082015181600201556060820151816003015590505042600f60008381526020019081526020016000208190555042601060008381526020019081526020016000208190555060026000815480929190610d9e90612b74565b91905055507f259103d72a202574447dd3d4c31c6e15a558cdd43f7dbbbbc2326ab915484fcf8585858533604051610dda959493929190612bbc565b60405180910390a15050505050565b600f6020528060005260406000206000915090505481565b610e09611c92565b60006013600083815260200190815260200160002060006101000a81548160ff02191690831515021790555050565b60035481565b60065481565b60106020528060005260406000206000915090505481565b610e64611c92565b80601460008473ffffffffffffffffffffffffffffffffffffffff1673ffffffffffffffffffffffffffffffffffffffff16815260200190815260200160002060006101000a81548160ff0219169083151502179055505050565b610ec7611c92565b83600860006101000a81548173ffffffffffffffffffffffffffffffffffffffff021916908373ffffffffffffffffffffffffffffffffffffffff16021790555082600960006101000a81548173ffffffffffffffffffffffffffffffffffffffff021916908373ffffffffffffffffffffffffffffffffffffffff16021790555081600a60006101000a81548173ffffffffffffffffffffffffffffffffffffffff021916908373ffffffffffffffffffffffffffffffffffffffff16021790555080600b60006101000a81548173ffffffffffffffffffffffffffffffffffffffff021916908373ffffffffffffffffffffffffffffffffffffffff16021790555050505050565b60136020528060005260406000206000915054906101000a900460ff1681565b6007818154811061100157600080fd5b906000526020600020016000915090505481565b600063bc197c8160e01b905095945050505050565b600960009054906101000a900473ffffffffffffffffffffffffffffffffffffffff1681565b60025481565b600c60009054906101000a900473ffffffffffffffffffffffffffffffffffffffff1681565b60146020528060005260406000206000915054906101000a900460ff1681565b60055481565b6110aa611d10565b6015816040516110ba9190612c75565b908152602001604051809103902060009054906101000a900460ff1615611116576040517f08c379a000000000000000000000000000000000000000000000000000000000815260040161110d90612cd8565b60405180910390fd5b428411611158576040517f08c379a000000000000000000000000000000000000000000000000000000000815260040161114f90612d44565b60405180910390fd5b6000600860009054906101000a900473ffffffffffffffffffffffffffffffffffffffff1673ffffffffffffffffffffffffffffffffffffffff16636352211e886040518263ffffffff1660e01b81526004016111b59190612367565b602060405180830381865afa1580156111d2573d6000803e3d6000fd5b505050506040513d601f19601f820116820180604052508101906111f69190612d79565b905061123433828a8a8989896040516020016112189796959493929190612df0565b6040516020818303038152906040528051906020012083611e2c565b611273576040517f08c379a000000000000000000000000000000000000000000000000000000000815260040161126a90612eb2565b60405180910390fd5b60016015836040516112859190612c75565b908152602001604051809103902060006101000a81548160ff02191690831515021790555060006112b589611a0c565b905080600e60008b81526020019081526020016000206001015410156112ee5742601060008b8152602001908152602001600020819055505b80600e60008b8152602001908152602001600020600101819055506000600e60008b8152602001908152602001600020600001549050851580611350575042600454601160008c81526020019081526020016000205461134e9190612ed2565b115b156114c85760008111156113e9576000600a89111561139057600760018154811061137e5761137d61297b565b5b906000526020600020015490506113bd565b60048911156113bc5760076000815481106113ae576113ad61297b565b5b906000526020600020015490505b5b61271081846113cc9190612f06565b6113d69190612f77565b836113e19190612fa8565b9250506114c3565b4261012c601160008c81526020019081526020016000205461140b9190612ed2565b1161144b576040517f08c379a000000000000000000000000000000000000000000000000000000000815260040161144290613028565b60405180910390fd5b6000601260008b815260200190815260200160002054111561147b576002826114749190612f06565b91506114c2565b6107d0610bb88361148c9190612f06565b6114969190612f77565b9150601260008a815260200190815260200160002060008154809291906114bc90612b74565b91905055505b5b6114e2565b6000601260008b8152602001908152602001600020819055505b60008111156115c4576000600a89111561151d57600760018154811061150b5761150a61297b565b5b9060005260206000200154905061154a565b600489111561154957600760008154811061153b5761153a61297b565b5b906000526020600020015490505b5b61271081846115599190612f06565b6115639190612f77565b8361156e9190612fa8565b9250888361157c9190612f06565b3410156115be576040517f08c379a00000000000000000000000000000000000000000000000000000000081526004016115b590613094565b60405180910390fd5b506117e8565b8515806115f0575042600454601160008c8152602001908152602001600020546115ee9190612ed2565b115b156116d3574261012c601160008c8152602001908152602001600020546116179190612ed2565b11611657576040517f08c379a000000000000000000000000000000000000000000000000000000000815260040161164e90613028565b60405180910390fd5b6000601260008b8152602001908152602001600020541115611687576002826116809190612f06565b91506116ce565b6107d0610bb8836116989190612f06565b6116a29190612f77565b9150601260008a815260200190815260200160002060008154809291906116c890612b74565b91905055505b6116ed565b6000601260008b8152602001908152602001600020819055505b601360008a815260200190815260200160002060009054906101000a900460ff1661171757600091505b600b60009054906101000a900473ffffffffffffffffffffffffffffffffffffffff1673ffffffffffffffffffffffffffffffffffffffff166323b872dd33600d60009054906101000a900473ffffffffffffffffffffffffffffffffffffffff168b866117859190612f06565b6040518463ffffffff1660e01b81526004016117a3939291906130b4565b6020604051808303816000875af11580156117c2573d6000803e3d6000fd5b505050506040513d601f19601f820116820180604052508101906117e69190613100565b505b600080600a60009054906101000a900473ffffffffffffffffffffffffffffffffffffffff1673ffffffffffffffffffffffffffffffffffffffff1663162ecf09888c6040518363ffffffff1660e01b815260040161184892919061312d565b600060405180830381865afa158015611865573d6000803e3d6000fd5b505050506040513d6000823e3d601f19601f8201168201806040525081019061188e9190613209565b9150915060008a67ffffffffffffffff8111156118ae576118ad612066565b5b6040519080825280602002602001820160405280156118dc5781602001602082028036833780820191505090505b50905060005b8b81101561191e5760018282815181106118ff576118fe61297b565b5b602002602001018181525050808061191690612b74565b9150506118e2565b50600960009054906101000a900473ffffffffffffffffffffffffffffffffffffffff1673ffffffffffffffffffffffffffffffffffffffff1663d81d0a153385846040518463ffffffff1660e01b815260040161197e93929190613323565b600060405180830381600087803b15801561199857600080fd5b505af11580156119ac573d6000803e3d6000fd5b505050507ff41ba0ea15c56d66ab089b32385bd1e172a677f4ad77e102e89b08a6e7c1108a8d858e8e876040516119e7959493929190613368565b60405180910390a15050505050506119fd611d5f565b50505050505050565b60045481565b600080600e600084815260200190815260200160002060405180608001604052908160008201548152602001600182015481526020016002820154815260200160038201548152505090506000600f6000858152602001908152602001600020549050816020015192506003548142611a859190612fa8565b1015611ae7576000601060008681526020019081526020016000205490506003548142611ab29190612fa8565b1015611ae15761271060055485611ac99190612f06565b611ad39190612f77565b84611ade9190612ed2565b93505b50611b10565b61271060065484611af89190612f06565b611b029190612f77565b83611b0d9190612fa8565b92505b8160600151831115611b285781606001519250611b3d565b8160400151831015611b3c57816040015192505b5b5050919050565b611b4c611c92565b80600c60006101000a81548173ffffffffffffffffffffffffffffffffffffffff021916908373ffffffffffffffffffffffffffffffffffffffff16021790555050565b600063f23a6e6160e01b905095945050505050565b611bad611c92565b600073ffffffffffffffffffffffffffffffffffffffff168173ffffffffffffffffffffffffffffffffffffffff1603611c1c576040517f08c379a0000000000000000000000000000000000000000000000000000000008152600401611c1390613434565b60405180910390fd5b611c2581611d68565b50565b60007f01ffc9a7000000000000000000000000000000000000000000000000000000007bffffffffffffffffffffffffffffffffffffffffffffffffffffffff1916827bffffffffffffffffffffffffffffffffffffffffffffffffffffffff1916149050919050565b611c9a611f74565b73ffffffffffffffffffffffffffffffffffffffff16611cb8610c40565b73ffffffffffffffffffffffffffffffffffffffff1614611d0e576040517f08c379a0000000000000000000000000000000000000000000000000000000008152600401611d05906134a0565b60405180910390fd5b565b600260015403611d55576040517f08c379a0000000000000000000000000000000000000000000000000000000008152600401611d4c9061350c565b60405180910390fd5b6002600181905550565b60018081905550565b60008060009054906101000a900473ffffffffffffffffffffffffffffffffffffffff169050816000806101000a81548173ffffffffffffffffffffffffffffffffffffffff021916908373ffffffffffffffffffffffffffffffffffffffff1602179055508173ffffffffffffffffffffffffffffffffffffffff168173ffffffffffffffffffffffffffffffffffffffff167f8be0079c531659141344cd1fd0a4f28419497f9722a3daafe3b4186f6b6457e060405160405180910390a35050565b60008083604051602001611e4091906135ae565b60405160208183030381529060405280519060200120905060008060006041865114611e73576000945050505050611f6e565b6020860151925060408601519150606086015160001a9050601b8160ff161015611ea757601b81611ea491906135e1565b90505b6000601b8260ff161480611ebe5750601c8260ff16145b15611f155760018583868660405160008152602001604052604051611ee69493929190613634565b6020604051602081039080840390855afa158015611f08573d6000803e3d6000fd5b5050506020604051035190505b8073ffffffffffffffffffffffffffffffffffffffff16600c60009054906101000a900473ffffffffffffffffffffffffffffffffffffffff1673ffffffffffffffffffffffffffffffffffffffff1614955050505050505b92915050565b600033905090565b6000604051905090565b600080fd5b600080fd5b60007fffffffff0000000000000000000000000000000000000000000000000000000082169050919050565b611fc581611f90565b8114611fd057600080fd5b50565b600081359050611fe281611fbc565b92915050565b600060208284031215611ffe57611ffd611f86565b5b600061200c84828501611fd3565b91505092915050565b60008115159050919050565b61202a81612015565b82525050565b60006020820190506120456000830184612021565b92915050565b600080fd5b600080fd5b6000601f19601f8301169050919050565b7f4e487b7100000000000000000000000000000000000000000000000000000000600052604160045260246000fd5b61209e82612055565b810181811067ffffffffffffffff821117156120bd576120bc612066565b5b80604052505050565b60006120d0611f7c565b90506120dc8282612095565b919050565b600067ffffffffffffffff8211156120fc576120fb612066565b5b61210582612055565b9050602081019050919050565b82818337600083830152505050565b600061213461212f846120e1565b6120c6565b9050828152602081018484840111156121505761214f612050565b5b61215b848285612112565b509392505050565b600082601f8301126121785761217761204b565b5b8135612188848260208601612121565b91505092915050565b6000602082840312156121a7576121a6611f86565b5b600082013567ffffffffffffffff8111156121c5576121c4611f8b565b5b6121d184828501612163565b91505092915050565b6000819050919050565b6121ed816121da565b81146121f857600080fd5b50565b60008135905061220a816121e4565b92915050565b60006020828403121561222657612225611f86565b5b6000612234848285016121fb565b91505092915050565b612246816121da565b82525050565b6000608082019050612261600083018761223d565b61226e602083018661223d565b61227b604083018561223d565b612288606083018461223d565b95945050505050565b600073ffffffffffffffffffffffffffffffffffffffff82169050919050565b6000819050919050565b60006122d66122d16122cc84612291565b6122b1565b612291565b9050919050565b60006122e8826122bb565b9050919050565b60006122fa826122dd565b9050919050565b61230a816122ef565b82525050565b60006020820190506123256000830184612301565b92915050565b6000612336826122dd565b9050919050565b6123468161232b565b82525050565b6000602082019050612361600083018461233d565b92915050565b600060208201905061237c600083018461223d565b92915050565b6000806040838503121561239957612398611f86565b5b60006123a7858286016121fb565b92505060206123b8858286016121fb565b9150509250929050565b60006123cd82612291565b9050919050565b6123dd816123c2565b81146123e857600080fd5b50565b6000813590506123fa816123d4565b92915050565b6000806040838503121561241757612416611f86565b5b6000612425858286016123eb565b9250506020612436858286016121fb565b9150509250929050565b612449816123c2565b82525050565b60006020820190506124646000830184612440565b92915050565b6000602082840312156124805761247f611f86565b5b600061248e848285016123eb565b91505092915050565b60006124a2826122dd565b9050919050565b6124b281612497565b82525050565b60006020820190506124cd60008301846124a9565b92915050565b600080600080608085870312156124ed576124ec611f86565b5b60006124fb878288016121fb565b945050602061250c878288016121fb565b935050604061251d878288016121fb565b925050606061252e878288016121fb565b91505092959194509250565b61254381612015565b811461254e57600080fd5b50565b6000813590506125608161253a565b92915050565b6000806040838503121561257d5761257c611f86565b5b600061258b858286016123eb565b925050602061259c85828601612551565b9150509250929050565b600080600080608085870312156125c0576125bf611f86565b5b60006125ce878288016123eb565b94505060206125df878288016123eb565b93505060406125f0878288016123eb565b9250506060612601878288016123eb565b91505092959194509250565b600067ffffffffffffffff82111561262857612627612066565b5b602082029050602081019050919050565b600080fd5b600061265161264c8461260d565b6120c6565b9050808382526020820190506020840283018581111561267457612673612639565b5b835b8181101561269d578061268988826121fb565b845260208401935050602081019050612676565b5050509392505050565b600082601f8301126126bc576126bb61204b565b5b81356126cc84826020860161263e565b91505092915050565b600080600080600060a086880312156126f1576126f0611f86565b5b60006126ff888289016123eb565b9550506020612710888289016123eb565b945050604086013567ffffffffffffffff81111561273157612730611f8b565b5b61273d888289016126a7565b935050606086013567ffffffffffffffff81111561275e5761275d611f8b565b5b61276a888289016126a7565b925050608086013567ffffffffffffffff81111561278b5761278a611f8b565b5b61279788828901612163565b9150509295509295909350565b6127ad81611f90565b82525050565b60006020820190506127c860008301846127a4565b92915050565b60006127d9826122dd565b9050919050565b6127e9816127ce565b82525050565b600060208201905061280460008301846127e0565b92915050565b600080600080600080600060e0888a03121561282957612828611f86565b5b60006128378a828b016121fb565b97505060206128488a828b016121fb565b96505060406128598a828b016121fb565b955050606061286a8a828b016121fb565b945050608061287b8a828b01612551565b93505060a088013567ffffffffffffffff81111561289c5761289b611f8b565b5b6128a88a828b01612163565b92505060c088013567ffffffffffffffff8111156128c9576128c8611f8b565b5b6128d58a828b01612163565b91505092959891949750929550565b600080600080600060a08688031215612900576128ff611f86565b5b600061290e888289016123eb565b955050602061291f888289016123eb565b9450506040612930888289016121fb565b9350506060612941888289016121fb565b925050608086013567ffffffffffffffff81111561296257612961611f8b565b5b61296e88828901612163565b9150509295509295909350565b7f4e487b7100000000000000000000000000000000000000000000000000000000600052603260045260246000fd5b600082825260208201905092915050565b7f496e73756666696369656e742066756e64730000000000000000000000000000600082015250565b60006129f16012836129aa565b91506129fc826129bb565b602082019050919050565b60006020820190508181036000830152612a20816129e4565b9050919050565b600081905092915050565b50565b6000612a42600083612a27565b9150612a4d82612a32565b600082019050919050565b6000612a6382612a35565b9150819050919050565b7f556e61626c6520746f2073656e64206574680000000000000000000000000000600082015250565b6000612aa36012836129aa565b9150612aae82612a6d565b602082019050919050565b60006020820190508181036000830152612ad281612a96565b9050919050565b7f437265617465426f783a2053656e646572206e6f7420616c6c6f776564000000600082015250565b6000612b0f601d836129aa565b9150612b1a82612ad9565b602082019050919050565b60006020820190508181036000830152612b3e81612b02565b9050919050565b7f4e487b7100000000000000000000000000000000000000000000000000000000600052601160045260246000fd5b6000612b7f826121da565b91507fffffffffffffffffffffffffffffffffffffffffffffffffffffffffffffffff8203612bb157612bb0612b45565b5b600182019050919050565b600060a082019050612bd1600083018861223d565b612bde602083018761223d565b612beb604083018661223d565b612bf8606083018561223d565b612c056080830184612440565b9695505050505050565b600081519050919050565b60005b83811015612c38578082015181840152602081019050612c1d565b60008484015250505050565b6000612c4f82612c0f565b612c598185612a27565b9350612c69818560208601612c1a565b80840191505092915050565b6000612c818284612c44565b915081905092915050565b7f4f70656e426f783a205369676e617475726520616c7265616479207573656400600082015250565b6000612cc2601f836129aa565b9150612ccd82612c8c565b602082019050919050565b60006020820190508181036000830152612cf181612cb5565b9050919050565b7f4f70656e426f783a2053656564206973206e6f206c6f6e6765722076616c6964600082015250565b6000612d2e6020836129aa565b9150612d3982612cf8565b602082019050919050565b60006020820190508181036000830152612d5d81612d21565b9050919050565b600081519050612d73816123d4565b92915050565b600060208284031215612d8f57612d8e611f86565b5b6000612d9d84828501612d64565b91505092915050565b600082825260208201905092915050565b6000612dc282612c0f565b612dcc8185612da6565b9350612ddc818560208601612c1a565b612de581612055565b840191505092915050565b600060e082019050612e05600083018a612440565b612e126020830189612440565b612e1f604083018861223d565b612e2c606083018761223d565b612e39608083018661223d565b612e4660a0830185612021565b81810360c0830152612e588184612db7565b905098975050505050505050565b7f4f70656e426f783a205369676e617475726520697320696e76616c6964000000600082015250565b6000612e9c601d836129aa565b9150612ea782612e66565b602082019050919050565b60006020820190508181036000830152612ecb81612e8f565b9050919050565b6000612edd826121da565b9150612ee8836121da565b9250828201905080821115612f0057612eff612b45565b5b92915050565b6000612f11826121da565b9150612f1c836121da565b9250828202612f2a816121da565b91508282048414831517612f4157612f40612b45565b5b5092915050565b7f4e487b7100000000000000000000000000000000000000000000000000000000600052601260045260246000fd5b6000612f82826121da565b9150612f8d836121da565b925082612f9d57612f9c612f48565b5b828204905092915050565b6000612fb3826121da565b9150612fbe836121da565b9250828203905081811115612fd657612fd5612b45565b5b92915050565b7f4f70656e426f783a205265206f70656e2074696d6520656c6170736564000000600082015250565b6000613012601d836129aa565b915061301d82612fdc565b602082019050919050565b6000602082019050818103600083015261304181613005565b9050919050565b7f4f70656e426f783a2057726f6e67204554482076616c75650000000000000000600082015250565b600061307e6018836129aa565b915061308982613048565b602082019050919050565b600060208201905081810360008301526130ad81613071565b9050919050565b60006060820190506130c96000830186612440565b6130d66020830185612440565b6130e3604083018461223d565b949350505050565b6000815190506130fa8161253a565b92915050565b60006020828403121561311657613115611f86565b5b6000613124848285016130eb565b91505092915050565b600060408201905081810360008301526131478185612db7565b9050613156602083018461223d565b9392505050565b60008151905061316c816121e4565b92915050565b60006131856131808461260d565b6120c6565b905080838252602082019050602084028301858111156131a8576131a7612639565b5b835b818110156131d157806131bd888261315d565b8452602084019350506020810190506131aa565b5050509392505050565b600082601f8301126131f0576131ef61204b565b5b8151613200848260208601613172565b91505092915050565b600080604083850312156132205761321f611f86565b5b600083015167ffffffffffffffff81111561323e5761323d611f8b565b5b61324a858286016131db565b925050602061325b858286016130eb565b9150509250929050565b600081519050919050565b600082825260208201905092915050565b6000819050602082019050919050565b61329a816121da565b82525050565b60006132ac8383613291565b60208301905092915050565b6000602082019050919050565b60006132d082613265565b6132da8185613270565b93506132e583613281565b8060005b838110156133165781516132fd88826132a0565b9750613308836132b8565b9250506001810190506132e9565b5085935050505092915050565b60006060820190506133386000830186612440565b818103602083015261334a81856132c5565b9050818103604083015261335e81846132c5565b9050949350505050565b600060a08201905061337d600083018861223d565b61338a602083018761223d565b613397604083018661223d565b6133a4606083018561223d565b81810360808301526133b681846132c5565b90509695505050505050565b7f4f776e61626c653a206e6577206f776e657220697320746865207a65726f206160008201527f6464726573730000000000000000000000000000000000000000000000000000602082015250565b600061341e6026836129aa565b9150613429826133c2565b604082019050919050565b6000602082019050818103600083015261344d81613411565b9050919050565b7f4f776e61626c653a2063616c6c6572206973206e6f7420746865206f776e6572600082015250565b600061348a6020836129aa565b915061349582613454565b602082019050919050565b600060208201905081810360008301526134b98161347d565b9050919050565b7f5265656e7472616e637947756172643a207265656e7472616e742063616c6c00600082015250565b60006134f6601f836129aa565b9150613501826134c0565b602082019050919050565b60006020820190508181036000830152613525816134e9565b9050919050565b600081905092915050565b7f19457468657265756d205369676e6564204d6573736167653a0a333200000000600082015250565b600061356d601c8361352c565b915061357882613537565b601c82019050919050565b6000819050919050565b6000819050919050565b6135a86135a382613583565b61358d565b82525050565b60006135b982613560565b91506135c58284613597565b60208201915081905092915050565b600060ff82169050919050565b60006135ec826135d4565b91506135f7836135d4565b9250828201905060ff8111156136105761360f612b45565b5b92915050565b61361f81613583565b82525050565b61362e816135d4565b82525050565b60006080820190506136496000830187613616565b6136566020830186613625565b6136636040830185613616565b6136706060830184613616565b9594505050505056fea2646970667358221220c4bd3b5afeddae5c4276b4d88dec369df4a049167187eb9b63db5bc9673a9a2764736f6c63430008120033",
  "immutableReferences": {},
  "source": "// SPDX-License-Identifier: GPL-3.0\r\n// solhint-disable-next-line\r\npragma solidity ^0.8.12;\r\n\r\nimport \"@openzeppelin/contracts/token/ERC1155/utils/ERC1155Holder.sol\";\r\nimport \"@openzeppelin/contracts/token/ERC20/IERC20.sol\";\r\nimport \"@openzeppelin/contracts/access/Ownable.sol\";\r\nimport \"@openzeppelin/contracts/security/ReentrancyGuard.sol\";\r\nimport \"./interface/IApes.sol\";\r\nimport \"./interface/ITraits.sol\";\r\nimport \"./interface/IRandomizer.sol\";\r\n\r\ncontract LootBoxes is ERC1155Holder, Ownable, ReentrancyGuard {\r\n    uint256 public boxesAmount;\r\n    uint256 public priceTimeFrame = 15 minutes;\r\n    uint256 public powerCooldown = 12 hours;\r\n    uint256 public increasePercentage = 200; // 2%\r\n    uint256 public decreasePercentage = 100; // 1%\r\n\r\n    uint256[] public discounts = [1000, 2500];\r\n\r\n    IApes public apesContract;\r\n    ITraits public traitsContract;\r\n    IRandomizer public randomizerContract;\r\n    IERC20 public methContract;\r\n    address public secret;\r\n    address public treasury;\r\n\r\n    mapping(uint256 => LootBox) public boxInfo;\r\n\r\n    mapping(uint256 => uint256) public lastBoxOpen;\r\n    mapping(uint256 => uint256) public lastBoxIncrease;\r\n    mapping(uint256 => uint256) public apeLastBox;\r\n    mapping(uint256 => uint256) public apeOpenCount;\r\n\r\n    mapping(uint256 => bool) public freeSpinUsed;\r\n\r\n    mapping(address => bool) public isBoxCreator;\r\n\r\n    mapping(bytes => bool) public isSignatureUsed;\r\n\r\n    struct LootBox {\r\n        uint256 boxType; // 0 - common, 1 - Legendary, 1 - Epic\r\n        uint256 currentPrice;\r\n        uint256 minPrice;\r\n        uint256 maxPrice;\r\n    }\r\n\r\n    event BoxOpened(\r\n        uint256 boxId,\r\n        uint256 boxType,\r\n        uint256 apeId,\r\n        uint256 amount,\r\n        uint256[] prizes\r\n    );\r\n\r\n    event BoxCreated(\r\n        uint256 boxType,\r\n        uint256 initialPrice,\r\n        uint256 minPrice,\r\n        uint256 maxPrice,\r\n        address operator\r\n    );\r\n\r\n    constructor(\r\n        address _apesAddress,\r\n        address _traitsAddress,\r\n        address _randomizerAddress,\r\n        address _methAddress,\r\n        address _secret,\r\n        address _treasury\r\n    ) {\r\n        apesContract = IApes(_apesAddress);\r\n        traitsContract = ITraits(_traitsAddress);\r\n        randomizerContract = IRandomizer(_randomizerAddress);\r\n        methContract = IERC20(_methAddress);\r\n        secret = _secret;\r\n        treasury = _treasury;\r\n    }\r\n\r\n    function createBox(\r\n        uint256 boxType,\r\n        uint256 initialPrice,\r\n        uint256 minPrice,\r\n        uint256 maxPrice\r\n    ) external {\r\n        require(isBoxCreator[msg.sender], \"CreateBox: Sender not allowed\");\r\n\r\n        uint256 boxId = boxesAmount;\r\n\r\n        // SAVE LOOT BOX INFO\r\n        boxInfo[boxId] = LootBox({\r\n            boxType: boxType,\r\n            currentPrice: initialPrice,\r\n            minPrice: minPrice,\r\n            maxPrice: maxPrice\r\n        });\r\n\r\n        lastBoxOpen[boxId] = block.timestamp;\r\n        lastBoxIncrease[boxId] = block.timestamp;\r\n\r\n        boxesAmount++;\r\n\r\n        emit BoxCreated(boxType, initialPrice, minPrice, maxPrice, msg.sender);\r\n    }\r\n\r\n    function openBox(\r\n        uint256 boxId,\r\n        uint256 apeId,\r\n        uint256 amount,\r\n        uint256 timeOut,\r\n        bool hasPower,\r\n        bytes memory randomSeed,\r\n        bytes memory signature\r\n    ) external payable nonReentrant {\r\n        require(!isSignatureUsed[signature], \"OpenBox: Signature already used\");\r\n        require(timeOut > block.timestamp, \"OpenBox: Seed is no longer valid\");\r\n\r\n        address tokenOwner = apesContract.ownerOf(apeId); // Current owner of the Ape, allows SafeClaim\r\n\r\n        require(\r\n            _verifyHashSignature(\r\n                keccak256(\r\n                    abi.encode(\r\n                        msg.sender,\r\n                        tokenOwner,\r\n                        boxId,\r\n                        apeId,\r\n                        timeOut,\r\n                        hasPower,\r\n                        randomSeed\r\n                    )\r\n                ),\r\n                signature\r\n            ),\r\n            \"OpenBox: Signature is invalid\"\r\n        );\r\n\r\n        isSignatureUsed[signature] = true;\r\n\r\n        uint256 lastPrice = getPrice(boxId);\r\n\r\n        if (boxInfo[boxId].currentPrice < lastPrice) {\r\n            lastBoxIncrease[boxId] = block.timestamp;\r\n        }\r\n\r\n        boxInfo[boxId].currentPrice = lastPrice;\r\n\r\n        uint256 boxType = boxInfo[boxId].boxType;\r\n\r\n        if (!hasPower || apeLastBox[apeId] + powerCooldown > block.timestamp) {\r\n            if (boxType > 0) {\r\n                uint256 discount = 0;\r\n\r\n                if (amount > 10) {\r\n                    discount = discounts[1];\r\n                } else if (amount > 4) {\r\n                    discount = discounts[0];\r\n                }\r\n\r\n                lastPrice -= (lastPrice * discount) / 10000; // 75% of the value\r\n            } else {\r\n                require(\r\n                    apeLastBox[apeId] + 5 minutes > block.timestamp,\r\n                    \"OpenBox: Re open time elapsed\"\r\n                );\r\n\r\n                if (apeOpenCount[apeId] > 0) {\r\n                    lastPrice = lastPrice * 2; // 2X the price\r\n                } else {\r\n                    lastPrice = (lastPrice * 3000) / 2000; // 3/2 of the price\r\n                    apeOpenCount[apeId]++;\r\n                }\r\n            }\r\n        } else {\r\n            apeOpenCount[apeId] = 0;\r\n        }\r\n\r\n        if (boxType > 0) {\r\n            uint256 discount = 0;\r\n\r\n            if (amount > 10) {\r\n                discount = discounts[1];\r\n            } else if (amount > 4) {\r\n                discount = discounts[0];\r\n            }\r\n\r\n            lastPrice -= (lastPrice * discount) / 10000; // 75% of the value\r\n\r\n            require(\r\n                msg.value >= lastPrice * amount,\r\n                \"OpenBox: Wrong ETH value\"\r\n            );\r\n        } else {\r\n            if (\r\n                !hasPower || apeLastBox[apeId] + powerCooldown > block.timestamp\r\n            ) {\r\n                require(\r\n                    apeLastBox[apeId] + 5 minutes > block.timestamp,\r\n                    \"OpenBox: Re open time elapsed\"\r\n                );\r\n\r\n                if (apeOpenCount[apeId] > 0) {\r\n                    lastPrice = lastPrice * 2; // 2X the price\r\n                } else {\r\n                    lastPrice = (lastPrice * 3000) / 2000; // 3/2 of the price\r\n                    apeOpenCount[apeId]++;\r\n                }\r\n            } else {\r\n                apeOpenCount[apeId] = 0;\r\n            }\r\n\r\n            if (!freeSpinUsed[apeId]) {\r\n                lastPrice = 0;\r\n            }\r\n\r\n            methContract.transferFrom(msg.sender, treasury, lastPrice * amount);\r\n        }\r\n\r\n        (uint256[] memory prizes, bool hasExtra) = randomizerContract.getRandom(\r\n            randomSeed,\r\n            amount\r\n        );\r\n        uint256[] memory prizesAmounts = new uint256[](amount);\r\n\r\n        for (uint256 i = 0; i < amount; i++) {\r\n            prizesAmounts[i] = 1;\r\n        }\r\n\r\n        traitsContract.mintBatch(msg.sender, prizes, prizesAmounts);\r\n\r\n        emit BoxOpened(boxId, boxType, apeId, amount, prizes);\r\n    }\r\n\r\n    function getPrice(uint256 boxId) public view returns (uint256 price) {\r\n        LootBox memory currentBox = boxInfo[boxId];\r\n\r\n        uint256 lastOpen = lastBoxOpen[boxId];\r\n\r\n        price = currentBox.currentPrice;\r\n\r\n        if (block.timestamp - lastOpen < priceTimeFrame) {\r\n            uint256 lastIncrease = lastBoxIncrease[boxId];\r\n            if (block.timestamp - lastIncrease < priceTimeFrame) {\r\n                price += ((price * increasePercentage) / 10000);\r\n            }\r\n        } else {\r\n            price -= ((price * decreasePercentage) / 10000);\r\n        }\r\n\r\n        if (price > currentBox.maxPrice) {\r\n            price = currentBox.maxPrice;\r\n        } else if (price < currentBox.minPrice) {\r\n            price = currentBox.minPrice;\r\n        }\r\n\r\n        return price;\r\n    }\r\n\r\n    function giveFreeSpin(uint256 apeId) external onlyOwner {\r\n        freeSpinUsed[apeId] = false;\r\n    }\r\n\r\n    function setIsCreator(address operator, bool status) external onlyOwner {\r\n        isBoxCreator[operator] = status;\r\n    }\r\n\r\n    function setSecret(address _secret) external onlyOwner {\r\n        secret = _secret;\r\n    }\r\n\r\n    function setTreasuryAddress(address _treasury) external onlyOwner {\r\n        treasury = _treasury;\r\n    }\r\n\r\n    function setDiscounts(uint256 _5Discount, uint256 _11Discount)\r\n        external\r\n        onlyOwner\r\n    {\r\n        discounts[0] = _5Discount;\r\n        discounts[1] = _11Discount;\r\n    }\r\n\r\n    function setContractAddresses(\r\n        address _apesAddress,\r\n        address _traitsAddress,\r\n        address _randomizerAddress,\r\n        address _methAddress\r\n    ) external onlyOwner {\r\n        apesContract = IApes(_apesAddress);\r\n        traitsContract = ITraits(_traitsAddress);\r\n        randomizerContract = IRandomizer(_randomizerAddress);\r\n        methContract = IERC20(_methAddress);\r\n    }\r\n\r\n    function withdrawETH(address _address, uint256 amount)\r\n        public\r\n        nonReentrant\r\n        onlyOwner\r\n    {\r\n        require(amount <= address(this).balance, \"Insufficient funds\");\r\n        (bool success, ) = _address.call{value: amount}(\"\");\r\n        require(success, \"Unable to send eth\");\r\n    }\r\n\r\n    function _verifyHashSignature(bytes32 freshHash, bytes memory signature)\r\n        internal\r\n        view\r\n        returns (bool)\r\n    {\r\n        bytes32 hash = keccak256(\r\n            abi.encodePacked(\"\\x19Ethereum Signed Message:\\n32\", freshHash)\r\n        );\r\n        bytes32 r;\r\n        bytes32 s;\r\n        uint8 v;\r\n        if (signature.length != 65) {\r\n            return false;\r\n        }\r\n        assembly {\r\n            r := mload(add(signature, 32))\r\n            s := mload(add(signature, 64))\r\n            v := byte(0, mload(add(signature, 96)))\r\n        }\r\n        if (v < 27) {\r\n            v += 27;\r\n        }\r\n        address signer = address(0);\r\n        if (v == 27 || v == 28) {\r\n            // solium-disable-next-line arg-overflow\r\n            signer = ecrecover(hash, v, r, s);\r\n        }\r\n        return secret == signer;\r\n    }\r\n}\r\n",
  "sourcePath": "C:\\Testing\\contracts\\LootBoxes.sol",
  "compiler": {
    "name": "solc",
    "version": "0.8.18+commit.87f61d96.Emscripten.clang"
  },
  "schemaVersion": "3.4.11",
  "updatedAt": "2023-02-09T20:40:38.848Z",
  "devdoc": {
    "kind": "dev",
    "methods": {
      "owner()": {
        "details": "Returns the address of the current owner."
      },
      "renounceOwnership()": {
        "details": "Leaves the contract without owner. It will not be possible to call `onlyOwner` functions anymore. Can only be called by the current owner. NOTE: Renouncing ownership will leave the contract without an owner, thereby removing any functionality that is only available to the owner."
      },
      "supportsInterface(bytes4)": {
        "details": "See {IERC165-supportsInterface}."
      },
      "transferOwnership(address)": {
        "details": "Transfers ownership of the contract to a new account (`newOwner`). Can only be called by the current owner."
      }
    },
    "version": 1
  },
  "userdoc": {
    "kind": "user",
    "methods": {},
    "version": 1
  }
}