{
  "contractName": "MasterContract",
  "abi": [
    {
      "inputs": [
        {
          "internalType": "address",
          "name": "_bapMethane",
          "type": "address"
        },
        {
          "internalType": "address",
          "name": "_bapUtilities",
          "type": "address"
        },
        {
          "internalType": "address",
          "name": "_bapTeenBulls",
          "type": "address"
        }
      ],
      "stateMutability": "nonpayable",
      "type": "constructor"
    },
    {
      "anonymous": false,
      "inputs": [
        {
          "indexed": true,
          "internalType": "address",
          "name": "previousOwner",
          "type": "address"
        },
        {
          "indexed": true,
          "internalType": "address",
          "name": "newOwner",
          "type": "address"
        }
      ],
      "name": "OwnershipTransferred",
      "type": "event"
    },
    {
      "inputs": [],
      "name": "bapMeth",
      "outputs": [
        {
          "internalType": "contract BAPMethaneInterface",
          "name": "",
          "type": "address"
        }
      ],
      "stateMutability": "view",
      "type": "function"
    },
    {
      "inputs": [],
      "name": "bapTeenBulls",
      "outputs": [
        {
          "internalType": "contract BAPTeenBullsInterface",
          "name": "",
          "type": "address"
        }
      ],
      "stateMutability": "view",
      "type": "function"
    },
    {
      "inputs": [],
      "name": "bapUtilities",
      "outputs": [
        {
          "internalType": "contract BAPUtilitiesInterface",
          "name": "",
          "type": "address"
        }
      ],
      "stateMutability": "view",
      "type": "function"
    },
    {
      "inputs": [
        {
          "internalType": "address",
          "name": "",
          "type": "address"
        }
      ],
      "name": "isAuthorized",
      "outputs": [
        {
          "internalType": "bool",
          "name": "",
          "type": "bool"
        }
      ],
      "stateMutability": "view",
      "type": "function"
    },
    {
      "inputs": [],
      "name": "owner",
      "outputs": [
        {
          "internalType": "address",
          "name": "",
          "type": "address"
        }
      ],
      "stateMutability": "view",
      "type": "function"
    },
    {
      "inputs": [],
      "name": "renounceOwnership",
      "outputs": [],
      "stateMutability": "nonpayable",
      "type": "function"
    },
    {
      "inputs": [
        {
          "internalType": "address",
          "name": "newOwner",
          "type": "address"
        }
      ],
      "name": "transferOwnership",
      "outputs": [],
      "stateMutability": "nonpayable",
      "type": "function"
    },
    {
      "inputs": [
        {
          "internalType": "address",
          "name": "to",
          "type": "address"
        },
        {
          "internalType": "uint256",
          "name": "amount",
          "type": "uint256"
        }
      ],
      "name": "claim",
      "outputs": [],
      "stateMutability": "nonpayable",
      "type": "function"
    },
    {
      "inputs": [
        {
          "internalType": "uint256",
          "name": "payment",
          "type": "uint256"
        },
        {
          "internalType": "uint256",
          "name": "fee",
          "type": "uint256"
        }
      ],
      "name": "pay",
      "outputs": [],
      "stateMutability": "nonpayable",
      "type": "function"
    },
    {
      "inputs": [
        {
          "internalType": "uint256",
          "name": "tokenId",
          "type": "uint256"
        }
      ],
      "name": "burnTeenBull",
      "outputs": [],
      "stateMutability": "nonpayable",
      "type": "function"
    },
    {
      "inputs": [
        {
          "internalType": "uint256",
          "name": "id",
          "type": "uint256"
        },
        {
          "internalType": "uint256",
          "name": "amount",
          "type": "uint256"
        }
      ],
      "name": "burn",
      "outputs": [],
      "stateMutability": "nonpayable",
      "type": "function"
    },
    {
      "inputs": [
        {
          "internalType": "address",
          "name": "to",
          "type": "address"
        },
        {
          "internalType": "uint256",
          "name": "amount",
          "type": "uint256"
        }
      ],
      "name": "airdrop",
      "outputs": [],
      "stateMutability": "nonpayable",
      "type": "function"
    },
    {
      "inputs": [
        {
          "internalType": "address",
          "name": "to",
          "type": "address"
        },
        {
          "internalType": "uint256",
          "name": "amount",
          "type": "uint256"
        },
        {
          "internalType": "uint256",
          "name": "id",
          "type": "uint256"
        }
      ],
      "name": "airdrop",
      "outputs": [],
      "stateMutability": "nonpayable",
      "type": "function"
    },
    {
      "inputs": [
        {
          "internalType": "address",
          "name": "operator",
          "type": "address"
        },
        {
          "internalType": "bool",
          "name": "status",
          "type": "bool"
        }
      ],
      "name": "setAuthorized",
      "outputs": [],
      "stateMutability": "nonpayable",
      "type": "function"
    },
    {
      "inputs": [
        {
          "internalType": "address",
          "name": "_contract",
          "type": "address"
        },
        {
          "internalType": "address",
          "name": "_newOwner",
          "type": "address"
        }
      ],
      "name": "transferOwnershipExternalContract",
      "outputs": [],
      "stateMutability": "nonpayable",
      "type": "function"
    },
    {
      "inputs": [
        {
          "internalType": "address",
          "name": "_newAddress",
          "type": "address"
        }
      ],
      "name": "setMethaneContract",
      "outputs": [],
      "stateMutability": "nonpayable",
      "type": "function"
    },
    {
      "inputs": [
        {
          "internalType": "address",
          "name": "_newAddress",
          "type": "address"
        }
      ],
      "name": "setUtilitiesContract",
      "outputs": [],
      "stateMutability": "nonpayable",
      "type": "function"
    },
    {
      "inputs": [
        {
          "internalType": "address",
          "name": "_newAddress",
          "type": "address"
        }
      ],
      "name": "setTeenBullsContract",
      "outputs": [],
      "stateMutability": "nonpayable",
      "type": "function"
    }
  ],
  "bytecode": "0x60806040523480156200001157600080fd5b506040516200171e3803806200171e833981810160405281019062000037919062000259565b620000576200004b6200012360201b60201c565b6200012b60201b60201c565b82600160006101000a81548173ffffffffffffffffffffffffffffffffffffffff021916908373ffffffffffffffffffffffffffffffffffffffff16021790555081600260006101000a81548173ffffffffffffffffffffffffffffffffffffffff021916908373ffffffffffffffffffffffffffffffffffffffff16021790555080600360006101000a81548173ffffffffffffffffffffffffffffffffffffffff021916908373ffffffffffffffffffffffffffffffffffffffff160217905550505050620002b5565b600033905090565b60008060009054906101000a900473ffffffffffffffffffffffffffffffffffffffff169050816000806101000a81548173ffffffffffffffffffffffffffffffffffffffff021916908373ffffffffffffffffffffffffffffffffffffffff1602179055508173ffffffffffffffffffffffffffffffffffffffff168173ffffffffffffffffffffffffffffffffffffffff167f8be0079c531659141344cd1fd0a4f28419497f9722a3daafe3b4186f6b6457e060405160405180910390a35050565b600080fd5b600073ffffffffffffffffffffffffffffffffffffffff82169050919050565b60006200022182620001f4565b9050919050565b620002338162000214565b81146200023f57600080fd5b50565b600081519050620002538162000228565b92915050565b600080600060608486031215620002755762000274620001ef565b5b6000620002858682870162000242565b9350506020620002988682870162000242565b9250506040620002ab8682870162000242565b9150509250925092565b61145980620002c56000396000f3fe608060405234801561001057600080fd5b50600436106101165760003560e01c80638a1e7e0e116100a2578063b390c0ab11610071578063b390c0ab1461027d578063e1bc296714610299578063ef48eee6146102b5578063f2fde38b146102d1578063fe9fbb80146102ed57610116565b80638a1e7e0e1461020b5780638ba4cc3c146102275780638da5cb5b14610243578063aad3ec961461026157610116565b806336c8945c116100e957806336c8945c1461018d578063711bf9b2146101ab578063715018a6146101c7578063850f700e146101d157806388909b87146101ef57610116565b80631c8c3f601461011b578063214e24ea146101375780632433098214610155578063299f537314610171575b600080fd5b61013560048036038101906101309190610e94565b61031d565b005b61013f610369565b60405161014c9190610f20565b60405180910390f35b61016f600480360381019061016a9190610f3b565b61038f565b005b61018b60048036038101906101869190610fb1565b610406565b005b610195610522565b6040516101a29190610fff565b60405180910390f35b6101c560048036038101906101c09190611052565b610548565b005b6101cf6105ab565b005b6101d96105bf565b6040516101e691906110b3565b60405180910390f35b61020960048036038101906102049190610e94565b6105e5565b005b61022560048036038101906102209190610e94565b610631565b005b610241600480360381019061023c91906110ce565b61067d565b005b61024b61079c565b604051610258919061111d565b60405180910390f35b61027b600480360381019061027691906110ce565b6107c5565b005b61029760048036038101906102929190611138565b6108e4565b005b6102b360048036038101906102ae9190611178565b610a03565b005b6102cf60048036038101906102ca9190611138565b610b25565b005b6102eb60048036038101906102e69190610e94565b610c44565b005b61030760048036038101906103029190610e94565b610cc7565b60405161031491906111da565b60405180910390f35b610325610ce7565b80600360006101000a81548173ffffffffffffffffffffffffffffffffffffffff021916908373ffffffffffffffffffffffffffffffffffffffff16021790555050565b600260009054906101000a900473ffffffffffffffffffffffffffffffffffffffff1681565b610397610ce7565b8173ffffffffffffffffffffffffffffffffffffffff1663f2fde38b826040518263ffffffff1660e01b81526004016103d0919061111d565b600060405180830381600087803b1580156103ea57600080fd5b505af11580156103fe573d6000803e3d6000fd5b505050505050565b600460003373ffffffffffffffffffffffffffffffffffffffff1673ffffffffffffffffffffffffffffffffffffffff16815260200190815260200160002060009054906101000a900460ff16610492576040517f08c379a000000000000000000000000000000000000000000000000000000000815260040161048990611252565b60405180910390fd5b600360009054906101000a900473ffffffffffffffffffffffffffffffffffffffff1673ffffffffffffffffffffffffffffffffffffffff1663299f5373826040518263ffffffff1660e01b81526004016104ed9190611281565b600060405180830381600087803b15801561050757600080fd5b505af115801561051b573d6000803e3d6000fd5b5050505050565b600160009054906101000a900473ffffffffffffffffffffffffffffffffffffffff1681565b610550610ce7565b80600460008473ffffffffffffffffffffffffffffffffffffffff1673ffffffffffffffffffffffffffffffffffffffff16815260200190815260200160002060006101000a81548160ff0219169083151502179055505050565b6105b3610ce7565b6105bd6000610d65565b565b600360009054906101000a900473ffffffffffffffffffffffffffffffffffffffff1681565b6105ed610ce7565b80600160006101000a81548173ffffffffffffffffffffffffffffffffffffffff021916908373ffffffffffffffffffffffffffffffffffffffff16021790555050565b610639610ce7565b80600260006101000a81548173ffffffffffffffffffffffffffffffffffffffff021916908373ffffffffffffffffffffffffffffffffffffffff16021790555050565b600460003373ffffffffffffffffffffffffffffffffffffffff1673ffffffffffffffffffffffffffffffffffffffff16815260200190815260200160002060009054906101000a900460ff16610709576040517f08c379a000000000000000000000000000000000000000000000000000000000815260040161070090611252565b60405180910390fd5b600360009054906101000a900473ffffffffffffffffffffffffffffffffffffffff1673ffffffffffffffffffffffffffffffffffffffff16638ba4cc3c83836040518363ffffffff1660e01b815260040161076692919061129c565b600060405180830381600087803b15801561078057600080fd5b505af1158015610794573d6000803e3d6000fd5b505050505050565b60008060009054906101000a900473ffffffffffffffffffffffffffffffffffffffff16905090565b600460003373ffffffffffffffffffffffffffffffffffffffff1673ffffffffffffffffffffffffffffffffffffffff16815260200190815260200160002060009054906101000a900460ff16610851576040517f08c379a000000000000000000000000000000000000000000000000000000000815260040161084890611252565b60405180910390fd5b600160009054906101000a900473ffffffffffffffffffffffffffffffffffffffff1673ffffffffffffffffffffffffffffffffffffffff1663aad3ec9683836040518363ffffffff1660e01b81526004016108ae92919061129c565b600060405180830381600087803b1580156108c857600080fd5b505af11580156108dc573d6000803e3d6000fd5b505050505050565b600460003373ffffffffffffffffffffffffffffffffffffffff1673ffffffffffffffffffffffffffffffffffffffff16815260200190815260200160002060009054906101000a900460ff16610970576040517f08c379a000000000000000000000000000000000000000000000000000000000815260040161096790611252565b60405180910390fd5b600260009054906101000a900473ffffffffffffffffffffffffffffffffffffffff1673ffffffffffffffffffffffffffffffffffffffff1663b390c0ab83836040518363ffffffff1660e01b81526004016109cd9291906112c5565b600060405180830381600087803b1580156109e757600080fd5b505af11580156109fb573d6000803e3d6000fd5b505050505050565b600460003373ffffffffffffffffffffffffffffffffffffffff1673ffffffffffffffffffffffffffffffffffffffff16815260200190815260200160002060009054906101000a900460ff16610a8f576040517f08c379a0000000000000000000000000000000000000000000000000000000008152600401610a8690611252565b60405180910390fd5b600260009054906101000a900473ffffffffffffffffffffffffffffffffffffffff1673ffffffffffffffffffffffffffffffffffffffff1663e1bc29678484846040518463ffffffff1660e01b8152600401610aee939291906112ee565b600060405180830381600087803b158015610b0857600080fd5b505af1158015610b1c573d6000803e3d6000fd5b50505050505050565b600460003373ffffffffffffffffffffffffffffffffffffffff1673ffffffffffffffffffffffffffffffffffffffff16815260200190815260200160002060009054906101000a900460ff16610bb1576040517f08c379a0000000000000000000000000000000000000000000000000000000008152600401610ba890611252565b60405180910390fd5b600160009054906101000a900473ffffffffffffffffffffffffffffffffffffffff1673ffffffffffffffffffffffffffffffffffffffff1663ef48eee683836040518363ffffffff1660e01b8152600401610c0e9291906112c5565b600060405180830381600087803b158015610c2857600080fd5b505af1158015610c3c573d6000803e3d6000fd5b505050505050565b610c4c610ce7565b600073ffffffffffffffffffffffffffffffffffffffff168173ffffffffffffffffffffffffffffffffffffffff1603610cbb576040517f08c379a0000000000000000000000000000000000000000000000000000000008152600401610cb290611397565b60405180910390fd5b610cc481610d65565b50565b60046020528060005260406000206000915054906101000a900460ff1681565b610cef610e29565b73ffffffffffffffffffffffffffffffffffffffff16610d0d61079c565b73ffffffffffffffffffffffffffffffffffffffff1614610d63576040517f08c379a0000000000000000000000000000000000000000000000000000000008152600401610d5a90611403565b60405180910390fd5b565b60008060009054906101000a900473ffffffffffffffffffffffffffffffffffffffff169050816000806101000a81548173ffffffffffffffffffffffffffffffffffffffff021916908373ffffffffffffffffffffffffffffffffffffffff1602179055508173ffffffffffffffffffffffffffffffffffffffff168173ffffffffffffffffffffffffffffffffffffffff167f8be0079c531659141344cd1fd0a4f28419497f9722a3daafe3b4186f6b6457e060405160405180910390a35050565b600033905090565b600080fd5b600073ffffffffffffffffffffffffffffffffffffffff82169050919050565b6000610e6182610e36565b9050919050565b610e7181610e56565b8114610e7c57600080fd5b50565b600081359050610e8e81610e68565b92915050565b600060208284031215610eaa57610ea9610e31565b5b6000610eb884828501610e7f565b91505092915050565b6000819050919050565b6000610ee6610ee1610edc84610e36565b610ec1565b610e36565b9050919050565b6000610ef882610ecb565b9050919050565b6000610f0a82610eed565b9050919050565b610f1a81610eff565b82525050565b6000602082019050610f356000830184610f11565b92915050565b60008060408385031215610f5257610f51610e31565b5b6000610f6085828601610e7f565b9250506020610f7185828601610e7f565b9150509250929050565b6000819050919050565b610f8e81610f7b565b8114610f9957600080fd5b50565b600081359050610fab81610f85565b92915050565b600060208284031215610fc757610fc6610e31565b5b6000610fd584828501610f9c565b91505092915050565b6000610fe982610eed565b9050919050565b610ff981610fde565b82525050565b60006020820190506110146000830184610ff0565b92915050565b60008115159050919050565b61102f8161101a565b811461103a57600080fd5b50565b60008135905061104c81611026565b92915050565b6000806040838503121561106957611068610e31565b5b600061107785828601610e7f565b92505060206110888582860161103d565b9150509250929050565b600061109d82610eed565b9050919050565b6110ad81611092565b82525050565b60006020820190506110c860008301846110a4565b92915050565b600080604083850312156110e5576110e4610e31565b5b60006110f385828601610e7f565b925050602061110485828601610f9c565b9150509250929050565b61111781610e56565b82525050565b6000602082019050611132600083018461110e565b92915050565b6000806040838503121561114f5761114e610e31565b5b600061115d85828601610f9c565b925050602061116e85828601610f9c565b9150509250929050565b60008060006060848603121561119157611190610e31565b5b600061119f86828701610e7f565b93505060206111b086828701610f9c565b92505060406111c186828701610f9c565b9150509250925092565b6111d48161101a565b82525050565b60006020820190506111ef60008301846111cb565b92915050565b600082825260208201905092915050565b7f4e6f7420417574686f72697a6564000000000000000000000000000000000000600082015250565b600061123c600e836111f5565b915061124782611206565b602082019050919050565b6000602082019050818103600083015261126b8161122f565b9050919050565b61127b81610f7b565b82525050565b60006020820190506112966000830184611272565b92915050565b60006040820190506112b1600083018561110e565b6112be6020830184611272565b9392505050565b60006040820190506112da6000830185611272565b6112e76020830184611272565b9392505050565b6000606082019050611303600083018661110e565b6113106020830185611272565b61131d6040830184611272565b949350505050565b7f4f776e61626c653a206e6577206f776e657220697320746865207a65726f206160008201527f6464726573730000000000000000000000000000000000000000000000000000602082015250565b60006113816026836111f5565b915061138c82611325565b604082019050919050565b600060208201905081810360008301526113b081611374565b9050919050565b7f4f776e61626c653a2063616c6c6572206973206e6f7420746865206f776e6572600082015250565b60006113ed6020836111f5565b91506113f8826113b7565b602082019050919050565b6000602082019050818103600083015261141c816113e0565b905091905056fea2646970667358221220fb268b7a853b822eb3d98b8846566e7c16ba4c2547f01c720d0ed0ea0815d6a364736f6c63430008120033",
  "immutableReferences": {},
  "source": "// SPDX-License-Identifier: GPL-3.0\r\n// solhint-disable-next-line\r\npragma solidity ^0.8.12;\r\nimport \"@openzeppelin/contracts/access/Ownable.sol\";\r\nimport \"./reduced_interfaces/BAPGenesisInterface.sol\";\r\nimport \"./reduced_interfaces/BAPMethaneInterface.sol\";\r\nimport \"./reduced_interfaces/BAPUtilitiesInterface.sol\";\r\nimport \"./reduced_interfaces/BAPTeenBullsInterface.sol\";\r\nimport \"./reduced_interfaces/BAPOrchestratorInterfaceV2.sol\";\r\n\r\ncontract MasterContract is Ownable {\r\n    BAPMethaneInterface public bapMeth;\r\n    BAPUtilitiesInterface public bapUtilities;\r\n    BAPTeenBullsInterface public bapTeenBulls;\r\n\r\n    mapping(address => bool) public isAuthorized;\r\n\r\n    constructor(\r\n        address _bapMethane,\r\n        address _bapUtilities,\r\n        address _bapTeenBulls\r\n    ) {\r\n        bapMeth = BAPMethaneInterface(_bapMethane);\r\n        bapUtilities = BAPUtilitiesInterface(_bapUtilities);\r\n        bapTeenBulls = BAPTeenBullsInterface(_bapTeenBulls);\r\n    }\r\n\r\n    modifier onlyAuthorized() {\r\n        require(isAuthorized[msg.sender], \"Not Authorized\");\r\n        _;\r\n    }\r\n\r\n    // METH functions\r\n\r\n    function claim(address to, uint256 amount) external onlyAuthorized {\r\n        bapMeth.claim(to, amount);\r\n    }\r\n\r\n    function pay(uint256 payment, uint256 fee) external onlyAuthorized {\r\n        bapMeth.pay(payment, fee);\r\n    }\r\n\r\n    // Teens functions\r\n\r\n    function airdrop(address to, uint256 amount) external onlyAuthorized {\r\n        bapTeenBulls.airdrop(to, amount);\r\n    }\r\n\r\n    function burnTeenBull(uint256 tokenId) external onlyAuthorized {\r\n        bapTeenBulls.burnTeenBull(tokenId);\r\n    }\r\n\r\n    // Utilities functions\r\n\r\n    function burn(uint256 id, uint256 amount) external onlyAuthorized {\r\n        bapUtilities.burn(id, amount);\r\n    }\r\n\r\n    function airdrop(\r\n        address to,\r\n        uint256 amount,\r\n        uint256 id\r\n    ) external onlyAuthorized {\r\n        bapUtilities.airdrop(to, amount, id);\r\n    }\r\n\r\n    // Ownable\r\n\r\n    function setAuthorized(address operator, bool status) external onlyOwner {\r\n        isAuthorized[operator] = status;\r\n    }\r\n\r\n    function transferOwnershipExternalContract(\r\n        address _contract,\r\n        address _newOwner\r\n    ) external onlyOwner {\r\n        Ownable(_contract).transferOwnership(_newOwner);\r\n    }\r\n\r\n    function setMethaneContract(address _newAddress) external onlyOwner {\r\n        bapMeth = BAPMethaneInterface(_newAddress);\r\n    }\r\n\r\n    function setUtilitiesContract(address _newAddress) external onlyOwner {\r\n        bapUtilities = BAPUtilitiesInterface(_newAddress);\r\n    }\r\n\r\n    function setTeenBullsContract(address _newAddress) external onlyOwner {\r\n        bapTeenBulls = BAPTeenBullsInterface(_newAddress);\r\n    }\r\n}\r\n",
  "sourcePath": "C:\\Testing\\contracts\\MasterContract.sol",
  "compiler": {
    "name": "solc",
    "version": "0.8.18+commit.87f61d96.Emscripten.clang"
  },
  "schemaVersion": "3.4.11",
  "updatedAt": "2023-02-09T20:40:38.901Z",
  "devdoc": {
    "kind": "dev",
    "methods": {
      "owner()": {
        "details": "Returns the address of the current owner."
      },
      "renounceOwnership()": {
        "details": "Leaves the contract without owner. It will not be possible to call `onlyOwner` functions anymore. Can only be called by the current owner. NOTE: Renouncing ownership will leave the contract without an owner, thereby removing any functionality that is only available to the owner."
      },
      "transferOwnership(address)": {
        "details": "Transfers ownership of the contract to a new account (`newOwner`). Can only be called by the current owner."
      }
    },
    "version": 1
  },
  "userdoc": {
    "kind": "user",
    "methods": {},
    "version": 1
  }
}