{
  "contractName": "TraitsConstructor",
  "abi": [
    {
      "inputs": [
        {
          "internalType": "address",
          "name": "_apes",
          "type": "address"
        },
        {
          "internalType": "address",
          "name": "_traits",
          "type": "address"
        },
        {
          "internalType": "address",
          "name": "_secret",
          "type": "address"
        }
      ],
      "stateMutability": "nonpayable",
      "type": "constructor"
    },
    {
      "anonymous": false,
      "inputs": [
        {
          "indexed": false,
          "internalType": "uint256",
          "name": "tokenId",
          "type": "uint256"
        },
        {
          "indexed": false,
          "internalType": "string",
          "name": "changeCode",
          "type": "string"
        },
        {
          "indexed": false,
          "internalType": "address",
          "name": "operator",
          "type": "address"
        }
      ],
      "name": "Equipped",
      "type": "event"
    },
    {
      "anonymous": false,
      "inputs": [
        {
          "indexed": true,
          "internalType": "address",
          "name": "previousOwner",
          "type": "address"
        },
        {
          "indexed": true,
          "internalType": "address",
          "name": "newOwner",
          "type": "address"
        }
      ],
      "name": "OwnershipTransferred",
      "type": "event"
    },
    {
      "inputs": [],
      "name": "apesContract",
      "outputs": [
        {
          "internalType": "contract IApes",
          "name": "",
          "type": "address"
        }
      ],
      "stateMutability": "view",
      "type": "function"
    },
    {
      "inputs": [
        {
          "internalType": "address",
          "name": "",
          "type": "address"
        },
        {
          "internalType": "address",
          "name": "",
          "type": "address"
        },
        {
          "internalType": "uint256[]",
          "name": "",
          "type": "uint256[]"
        },
        {
          "internalType": "uint256[]",
          "name": "",
          "type": "uint256[]"
        },
        {
          "internalType": "bytes",
          "name": "",
          "type": "bytes"
        }
      ],
      "name": "onERC1155BatchReceived",
      "outputs": [
        {
          "internalType": "bytes4",
          "name": "",
          "type": "bytes4"
        }
      ],
      "stateMutability": "nonpayable",
      "type": "function"
    },
    {
      "inputs": [
        {
          "internalType": "address",
          "name": "",
          "type": "address"
        },
        {
          "internalType": "address",
          "name": "",
          "type": "address"
        },
        {
          "internalType": "uint256",
          "name": "",
          "type": "uint256"
        },
        {
          "internalType": "uint256",
          "name": "",
          "type": "uint256"
        },
        {
          "internalType": "bytes",
          "name": "",
          "type": "bytes"
        }
      ],
      "name": "onERC1155Received",
      "outputs": [
        {
          "internalType": "bytes4",
          "name": "",
          "type": "bytes4"
        }
      ],
      "stateMutability": "nonpayable",
      "type": "function"
    },
    {
      "inputs": [],
      "name": "owner",
      "outputs": [
        {
          "internalType": "address",
          "name": "",
          "type": "address"
        }
      ],
      "stateMutability": "view",
      "type": "function"
    },
    {
      "inputs": [],
      "name": "renounceOwnership",
      "outputs": [],
      "stateMutability": "nonpayable",
      "type": "function"
    },
    {
      "inputs": [],
      "name": "secret",
      "outputs": [
        {
          "internalType": "address",
          "name": "",
          "type": "address"
        }
      ],
      "stateMutability": "view",
      "type": "function"
    },
    {
      "inputs": [
        {
          "internalType": "bytes4",
          "name": "interfaceId",
          "type": "bytes4"
        }
      ],
      "name": "supportsInterface",
      "outputs": [
        {
          "internalType": "bool",
          "name": "",
          "type": "bool"
        }
      ],
      "stateMutability": "view",
      "type": "function"
    },
    {
      "inputs": [],
      "name": "traitsContract",
      "outputs": [
        {
          "internalType": "contract ITraits",
          "name": "",
          "type": "address"
        }
      ],
      "stateMutability": "view",
      "type": "function"
    },
    {
      "inputs": [
        {
          "internalType": "address",
          "name": "newOwner",
          "type": "address"
        }
      ],
      "name": "transferOwnership",
      "outputs": [],
      "stateMutability": "nonpayable",
      "type": "function"
    },
    {
      "inputs": [
        {
          "internalType": "uint256",
          "name": "tokenId",
          "type": "uint256"
        },
        {
          "internalType": "uint256[]",
          "name": "traitsIn",
          "type": "uint256[]"
        },
        {
          "internalType": "uint256[]",
          "name": "traitsOut",
          "type": "uint256[]"
        },
        {
          "internalType": "uint256[]",
          "name": "traitsOGOut",
          "type": "uint256[]"
        },
        {
          "internalType": "string",
          "name": "changeCode",
          "type": "string"
        },
        {
          "internalType": "bytes",
          "name": "signature",
          "type": "bytes"
        }
      ],
      "name": "equip",
      "outputs": [],
      "stateMutability": "nonpayable",
      "type": "function"
    },
    {
      "inputs": [
        {
          "internalType": "address",
          "name": "_apes",
          "type": "address"
        },
        {
          "internalType": "address",
          "name": "_traits",
          "type": "address"
        }
      ],
      "name": "setContracts",
      "outputs": [],
      "stateMutability": "nonpayable",
      "type": "function"
    },
    {
      "inputs": [
        {
          "internalType": "address",
          "name": "_secret",
          "type": "address"
        }
      ],
      "name": "setSecret",
      "outputs": [],
      "stateMutability": "nonpayable",
      "type": "function"
    }
  ],
  "bytecode": "0x60806040523480156200001157600080fd5b506040516200246538038062002465833981810160405281019062000037919062000263565b60016000819055506200005f620000536200012b60201b60201c565b6200013360201b60201c565b82600260006101000a81548173ffffffffffffffffffffffffffffffffffffffff021916908373ffffffffffffffffffffffffffffffffffffffff16021790555081600360006101000a81548173ffffffffffffffffffffffffffffffffffffffff021916908373ffffffffffffffffffffffffffffffffffffffff16021790555080600460006101000a81548173ffffffffffffffffffffffffffffffffffffffff021916908373ffffffffffffffffffffffffffffffffffffffff160217905550505050620002bf565b600033905090565b6000600160009054906101000a900473ffffffffffffffffffffffffffffffffffffffff16905081600160006101000a81548173ffffffffffffffffffffffffffffffffffffffff021916908373ffffffffffffffffffffffffffffffffffffffff1602179055508173ffffffffffffffffffffffffffffffffffffffff168173ffffffffffffffffffffffffffffffffffffffff167f8be0079c531659141344cd1fd0a4f28419497f9722a3daafe3b4186f6b6457e060405160405180910390a35050565b600080fd5b600073ffffffffffffffffffffffffffffffffffffffff82169050919050565b60006200022b82620001fe565b9050919050565b6200023d816200021e565b81146200024957600080fd5b50565b6000815190506200025d8162000232565b92915050565b6000806000606084860312156200027f576200027e620001f9565b5b60006200028f868287016200024c565b9350506020620002a2868287016200024c565b9250506040620002b5868287016200024c565b9150509250925092565b61219680620002cf6000396000f3fe608060405234801561001057600080fd5b50600436106100b45760003560e01c8063c093afdb11610071578063c093afdb1461017b578063d1efd30d14610199578063d8952a49146101b7578063e9a7484c146101d3578063f23a6e61146101ef578063f2fde38b1461021f576100b4565b806301ffc9a7146100b95780630e6369af146100e9578063279a20bc14610105578063715018a6146101235780638da5cb5b1461012d578063bc197c811461014b575b600080fd5b6100d360048036038101906100ce9190611132565b61023b565b6040516100e0919061117a565b60405180910390f35b61010360048036038101906100fe919061147a565b6102b5565b005b61010d610917565b60405161011a9190611612565b60405180910390f35b61012b61093d565b005b610135610951565b604051610142919061164e565b60405180910390f35b61016560048036038101906101609190611695565b61097b565b6040516101729190611773565b60405180910390f35b610183610990565b60405161019091906117af565b60405180910390f35b6101a16109b6565b6040516101ae919061164e565b60405180910390f35b6101d160048036038101906101cc91906117ca565b6109dc565b005b6101ed60048036038101906101e8919061180a565b610a6a565b005b61020960048036038101906102049190611837565b610ab6565b6040516102169190611773565b60405180910390f35b6102396004803603810190610234919061180a565b610acb565b005b60007f4e2312e0000000000000000000000000000000000000000000000000000000007bffffffffffffffffffffffffffffffffffffffffffffffffffffffff1916827bffffffffffffffffffffffffffffffffffffffffffffffffffffffff191614806102ae57506102ad82610b4e565b5b9050919050565b6102bd610bb8565b60606000865167ffffffffffffffff8111156102dc576102db6111e1565b5b60405190808252806020026020018201604052801561030a5781602001602082028036833780820191505090505b50905060005b875181101561039357600182828151811061032e5761032d6118ce565b5b6020026020010181815250508261035e898381518110610351576103506118ce565b5b6020026020010151610c07565b60405160200161036f929190611994565b6040516020818303038152906040529250808061038b906119f6565b915050610310565b506000865167ffffffffffffffff8111156103b1576103b06111e1565b5b6040519080825280602002602001820160405280156103df5781602001602082028036833780820191505090505b50905060005b8751811015610468576001828281518110610403576104026118ce565b5b60200260200101818152505083610433898381518110610426576104256118ce565b5b6020026020010151610c07565b604051602001610444929190611a64565b60405160208183030381529060405293508080610460906119f6565b9150506103e5565b506000865167ffffffffffffffff811115610486576104856111e1565b5b6040519080825280602002602001820160405280156104b45781602001602082028036833780820191505090505b50905060005b875181101561053d5760018282815181106104d8576104d76118ce565b5b602002602001018181525050846105088983815181106104fb576104fa6118ce565b5b6020026020010151610c07565b604051602001610519929190611abd565b60405160208183030381529060405294508080610535906119f6565b9150506104ba565b506000600260009054906101000a900473ffffffffffffffffffffffffffffffffffffffff1673ffffffffffffffffffffffffffffffffffffffff16636352211e8c6040518263ffffffff1660e01b815260040161059b9190611aff565b602060405180830381865afa1580156105b8573d6000803e3d6000fd5b505050506040513d601f19601f820116820180604052508101906105dc9190611b2f565b90506106168b868933856040516020016105fa959493929190611ba6565b6040516020818303038152906040528051906020012087610cd5565b610655576040517f08c379a000000000000000000000000000000000000000000000000000000000815260040161064c90611c53565b60405180910390fd5b60008a5111156106f357600360009054906101000a900473ffffffffffffffffffffffffffffffffffffffff1673ffffffffffffffffffffffffffffffffffffffff16632eb2c2d633308d886040518563ffffffff1660e01b81526004016106c09493929190611d68565b600060405180830381600087803b1580156106da57600080fd5b505af11580156106ee573d6000803e3d6000fd5b505050505b60008951111561079157600360009054906101000a900473ffffffffffffffffffffffffffffffffffffffff1673ffffffffffffffffffffffffffffffffffffffff16632eb2c2d630338c876040518563ffffffff1660e01b815260040161075e9493929190611d68565b600060405180830381600087803b15801561077857600080fd5b505af115801561078c573d6000803e3d6000fd5b505050505b60008851111561082d57600360009054906101000a900473ffffffffffffffffffffffffffffffffffffffff1673ffffffffffffffffffffffffffffffffffffffff1663d81d0a15338a856040518463ffffffff1660e01b81526004016107fa93929190611dce565b600060405180830381600087803b15801561081457600080fd5b505af1158015610828573d6000803e3d6000fd5b505050505b600260009054906101000a900473ffffffffffffffffffffffffffffffffffffffff1673ffffffffffffffffffffffffffffffffffffffff1663170ef8b58c6040518263ffffffff1660e01b81526004016108889190611aff565b600060405180830381600087803b1580156108a257600080fd5b505af11580156108b6573d6000803e3d6000fd5b505050507fcf74c6d9f29f45b514cb3024f15d477ce7f767bafeb2ac4b3f6a0533b5173ec36127108c6108e99190611e13565b88336040516108fa93929190611e47565b60405180910390a1505050505061090f610e1d565b505050505050565b600260009054906101000a900473ffffffffffffffffffffffffffffffffffffffff1681565b610945610e27565b61094f6000610ea5565b565b6000600160009054906101000a900473ffffffffffffffffffffffffffffffffffffffff16905090565b600063bc197c8160e01b905095945050505050565b600360009054906101000a900473ffffffffffffffffffffffffffffffffffffffff1681565b600460009054906101000a900473ffffffffffffffffffffffffffffffffffffffff1681565b6109e4610e27565b81600260006101000a81548173ffffffffffffffffffffffffffffffffffffffff021916908373ffffffffffffffffffffffffffffffffffffffff16021790555080600360006101000a81548173ffffffffffffffffffffffffffffffffffffffff021916908373ffffffffffffffffffffffffffffffffffffffff1602179055505050565b610a72610e27565b80600460006101000a81548173ffffffffffffffffffffffffffffffffffffffff021916908373ffffffffffffffffffffffffffffffffffffffff16021790555050565b600063f23a6e6160e01b905095945050505050565b610ad3610e27565b600073ffffffffffffffffffffffffffffffffffffffff168173ffffffffffffffffffffffffffffffffffffffff1603610b42576040517f08c379a0000000000000000000000000000000000000000000000000000000008152600401610b3990611ef7565b60405180910390fd5b610b4b81610ea5565b50565b60007f01ffc9a7000000000000000000000000000000000000000000000000000000007bffffffffffffffffffffffffffffffffffffffffffffffffffffffff1916827bffffffffffffffffffffffffffffffffffffffffffffffffffffffff1916149050919050565b600260005403610bfd576040517f08c379a0000000000000000000000000000000000000000000000000000000008152600401610bf490611f63565b60405180910390fd5b6002600081905550565b606060006001610c1684610f6b565b01905060008167ffffffffffffffff811115610c3557610c346111e1565b5b6040519080825280601f01601f191660200182016040528015610c675781602001600182028036833780820191505090505b509050600082602001820190505b600115610cca578080600190039150507f3031323334353637383961626364656600000000000000000000000000000000600a86061a8153600a8581610cbe57610cbd611f83565b5b04945060008503610c75575b819350505050919050565b60008083604051602001610ce99190612029565b60405160208183030381529060405280519060200120905060008060006041865114610d1c576000945050505050610e17565b6020860151925060408601519150606086015160001a9050601b8160ff161015610d5057601b81610d4d919061205c565b90505b6000601b8260ff161480610d675750601c8260ff16145b15610dbe5760018583868660405160008152602001604052604051610d8f94939291906120af565b6020604051602081039080840390855afa158015610db1573d6000803e3d6000fd5b5050506020604051035190505b8073ffffffffffffffffffffffffffffffffffffffff16600460009054906101000a900473ffffffffffffffffffffffffffffffffffffffff1673ffffffffffffffffffffffffffffffffffffffff1614955050505050505b92915050565b6001600081905550565b610e2f6110be565b73ffffffffffffffffffffffffffffffffffffffff16610e4d610951565b73ffffffffffffffffffffffffffffffffffffffff1614610ea3576040517f08c379a0000000000000000000000000000000000000000000000000000000008152600401610e9a90612140565b60405180910390fd5b565b6000600160009054906101000a900473ffffffffffffffffffffffffffffffffffffffff16905081600160006101000a81548173ffffffffffffffffffffffffffffffffffffffff021916908373ffffffffffffffffffffffffffffffffffffffff1602179055508173ffffffffffffffffffffffffffffffffffffffff168173ffffffffffffffffffffffffffffffffffffffff167f8be0079c531659141344cd1fd0a4f28419497f9722a3daafe3b4186f6b6457e060405160405180910390a35050565b600080600090507a184f03e93ff9f4daa797ed6e38ed64bf6a1f0100000000000000008310610fc9577a184f03e93ff9f4daa797ed6e38ed64bf6a1f0100000000000000008381610fbf57610fbe611f83565b5b0492506040810190505b6d04ee2d6d415b85acef81000000008310611006576d04ee2d6d415b85acef81000000008381610ffc57610ffb611f83565b5b0492506020810190505b662386f26fc10000831061103557662386f26fc10000838161102b5761102a611f83565b5b0492506010810190505b6305f5e100831061105e576305f5e100838161105457611053611f83565b5b0492506008810190505b612710831061108357612710838161107957611078611f83565b5b0492506004810190505b606483106110a6576064838161109c5761109b611f83565b5b0492506002810190505b600a83106110b5576001810190505b80915050919050565b600033905090565b6000604051905090565b600080fd5b600080fd5b60007fffffffff0000000000000000000000000000000000000000000000000000000082169050919050565b61110f816110da565b811461111a57600080fd5b50565b60008135905061112c81611106565b92915050565b600060208284031215611148576111476110d0565b5b60006111568482850161111d565b91505092915050565b60008115159050919050565b6111748161115f565b82525050565b600060208201905061118f600083018461116b565b92915050565b6000819050919050565b6111a881611195565b81146111b357600080fd5b50565b6000813590506111c58161119f565b92915050565b600080fd5b6000601f19601f8301169050919050565b7f4e487b7100000000000000000000000000000000000000000000000000000000600052604160045260246000fd5b611219826111d0565b810181811067ffffffffffffffff82111715611238576112376111e1565b5b80604052505050565b600061124b6110c6565b90506112578282611210565b919050565b600067ffffffffffffffff821115611277576112766111e1565b5b602082029050602081019050919050565b600080fd5b60006112a061129b8461125c565b611241565b905080838252602082019050602084028301858111156112c3576112c2611288565b5b835b818110156112ec57806112d888826111b6565b8452602084019350506020810190506112c5565b5050509392505050565b600082601f83011261130b5761130a6111cb565b5b813561131b84826020860161128d565b91505092915050565b600080fd5b600067ffffffffffffffff821115611344576113436111e1565b5b61134d826111d0565b9050602081019050919050565b82818337600083830152505050565b600061137c61137784611329565b611241565b90508281526020810184848401111561139857611397611324565b5b6113a384828561135a565b509392505050565b600082601f8301126113c0576113bf6111cb565b5b81356113d0848260208601611369565b91505092915050565b600067ffffffffffffffff8211156113f4576113f36111e1565b5b6113fd826111d0565b9050602081019050919050565b600061141d611418846113d9565b611241565b90508281526020810184848401111561143957611438611324565b5b61144484828561135a565b509392505050565b600082601f830112611461576114606111cb565b5b813561147184826020860161140a565b91505092915050565b60008060008060008060c08789031215611497576114966110d0565b5b60006114a589828a016111b6565b965050602087013567ffffffffffffffff8111156114c6576114c56110d5565b5b6114d289828a016112f6565b955050604087013567ffffffffffffffff8111156114f3576114f26110d5565b5b6114ff89828a016112f6565b945050606087013567ffffffffffffffff8111156115205761151f6110d5565b5b61152c89828a016112f6565b935050608087013567ffffffffffffffff81111561154d5761154c6110d5565b5b61155989828a016113ab565b92505060a087013567ffffffffffffffff81111561157a576115796110d5565b5b61158689828a0161144c565b9150509295509295509295565b600073ffffffffffffffffffffffffffffffffffffffff82169050919050565b6000819050919050565b60006115d86115d36115ce84611593565b6115b3565b611593565b9050919050565b60006115ea826115bd565b9050919050565b60006115fc826115df565b9050919050565b61160c816115f1565b82525050565b60006020820190506116276000830184611603565b92915050565b600061163882611593565b9050919050565b6116488161162d565b82525050565b6000602082019050611663600083018461163f565b92915050565b6116728161162d565b811461167d57600080fd5b50565b60008135905061168f81611669565b92915050565b600080600080600060a086880312156116b1576116b06110d0565b5b60006116bf88828901611680565b95505060206116d088828901611680565b945050604086013567ffffffffffffffff8111156116f1576116f06110d5565b5b6116fd888289016112f6565b935050606086013567ffffffffffffffff81111561171e5761171d6110d5565b5b61172a888289016112f6565b925050608086013567ffffffffffffffff81111561174b5761174a6110d5565b5b6117578882890161144c565b9150509295509295909350565b61176d816110da565b82525050565b60006020820190506117886000830184611764565b92915050565b6000611799826115df565b9050919050565b6117a98161178e565b82525050565b60006020820190506117c460008301846117a0565b92915050565b600080604083850312156117e1576117e06110d0565b5b60006117ef85828601611680565b925050602061180085828601611680565b9150509250929050565b6000602082840312156118205761181f6110d0565b5b600061182e84828501611680565b91505092915050565b600080600080600060a08688031215611853576118526110d0565b5b600061186188828901611680565b955050602061187288828901611680565b9450506040611883888289016111b6565b9350506060611894888289016111b6565b925050608086013567ffffffffffffffff8111156118b5576118b46110d5565b5b6118c18882890161144c565b9150509295509295909350565b7f4e487b7100000000000000000000000000000000000000000000000000000000600052603260045260246000fd5b600081519050919050565b600081905092915050565b60005b83811015611931578082015181840152602081019050611916565b60008484015250505050565b6000611948826118fd565b6119528185611908565b9350611962818560208601611913565b80840191505092915050565b7f4900000000000000000000000000000000000000000000000000000000000000815250565b60006119a0828561193d565b91506119ab8261196e565b6001820191506119bb828461193d565b91508190509392505050565b7f4e487b7100000000000000000000000000000000000000000000000000000000600052601160045260246000fd5b6000611a0182611195565b91507fffffffffffffffffffffffffffffffffffffffffffffffffffffffffffffffff8203611a3357611a326119c7565b5b600182019050919050565b7f4f00000000000000000000000000000000000000000000000000000000000000815250565b6000611a70828561193d565b9150611a7b82611a3e565b600182019150611a8b828461193d565b91508190509392505050565b7f4f47000000000000000000000000000000000000000000000000000000000000815250565b6000611ac9828561193d565b9150611ad482611a97565b600282019150611ae4828461193d565b91508190509392505050565b611af981611195565b82525050565b6000602082019050611b146000830184611af0565b92915050565b600081519050611b2981611669565b92915050565b600060208284031215611b4557611b446110d0565b5b6000611b5384828501611b1a565b91505092915050565b600082825260208201905092915050565b6000611b78826118fd565b611b828185611b5c565b9350611b92818560208601611913565b611b9b816111d0565b840191505092915050565b600060a082019050611bbb6000830188611af0565b8181036020830152611bcd8187611b6d565b90508181036040830152611be18186611b6d565b9050611bf0606083018561163f565b611bfd608083018461163f565b9695505050505050565b7f45717569703a205369676e617475726520697320696e76616c69640000000000600082015250565b6000611c3d601b83611b5c565b9150611c4882611c07565b602082019050919050565b60006020820190508181036000830152611c6c81611c30565b9050919050565b600081519050919050565b600082825260208201905092915050565b6000819050602082019050919050565b611ca881611195565b82525050565b6000611cba8383611c9f565b60208301905092915050565b6000602082019050919050565b6000611cde82611c73565b611ce88185611c7e565b9350611cf383611c8f565b8060005b83811015611d24578151611d0b8882611cae565b9750611d1683611cc6565b925050600181019050611cf7565b5085935050505092915050565b600082825260208201905092915050565b50565b6000611d52600083611d31565b9150611d5d82611d42565b600082019050919050565b600060a082019050611d7d600083018761163f565b611d8a602083018661163f565b8181036040830152611d9c8185611cd3565b90508181036060830152611db08184611cd3565b90508181036080830152611dc381611d45565b905095945050505050565b6000606082019050611de3600083018661163f565b8181036020830152611df58185611cd3565b90508181036040830152611e098184611cd3565b9050949350505050565b6000611e1e82611195565b9150611e2983611195565b9250828201905080821115611e4157611e406119c7565b5b92915050565b6000606082019050611e5c6000830186611af0565b8181036020830152611e6e8185611b6d565b9050611e7d604083018461163f565b949350505050565b7f4f776e61626c653a206e6577206f776e657220697320746865207a65726f206160008201527f6464726573730000000000000000000000000000000000000000000000000000602082015250565b6000611ee1602683611b5c565b9150611eec82611e85565b604082019050919050565b60006020820190508181036000830152611f1081611ed4565b9050919050565b7f5265656e7472616e637947756172643a207265656e7472616e742063616c6c00600082015250565b6000611f4d601f83611b5c565b9150611f5882611f17565b602082019050919050565b60006020820190508181036000830152611f7c81611f40565b9050919050565b7f4e487b7100000000000000000000000000000000000000000000000000000000600052601260045260246000fd5b7f19457468657265756d205369676e6564204d6573736167653a0a333200000000600082015250565b6000611fe8601c83611908565b9150611ff382611fb2565b601c82019050919050565b6000819050919050565b6000819050919050565b61202361201e82611ffe565b612008565b82525050565b600061203482611fdb565b91506120408284612012565b60208201915081905092915050565b600060ff82169050919050565b60006120678261204f565b91506120728361204f565b9250828201905060ff81111561208b5761208a6119c7565b5b92915050565b61209a81611ffe565b82525050565b6120a98161204f565b82525050565b60006080820190506120c46000830187612091565b6120d160208301866120a0565b6120de6040830185612091565b6120eb6060830184612091565b95945050505050565b7f4f776e61626c653a2063616c6c6572206973206e6f7420746865206f776e6572600082015250565b600061212a602083611b5c565b9150612135826120f4565b602082019050919050565b600060208201905081810360008301526121598161211d565b905091905056fea26469706673582212202a941fc8fa0e4367f2bbef37ab57933aaa55b637194c685278f4e770d5d8dc9164736f6c63430008120033",
  "immutableReferences": {},
  "source": "// SPDX-License-Identifier: GPL-3.0\r\n// solhint-disable-next-line\r\npragma solidity ^0.8.12;\r\n\r\nimport \"@openzeppelin/contracts/token/ERC1155/utils/ERC1155Holder.sol\";\r\nimport \"@openzeppelin/contracts/security/ReentrancyGuard.sol\";\r\nimport \"@openzeppelin/contracts/access/Ownable.sol\";\r\nimport \"@openzeppelin/contracts/utils/Strings.sol\";\r\ninterface IApes {\r\n    function confirmChange(uint256 tokenId) external;\r\n\r\n    function ownerOf(uint256 tokenId) external view returns (address owner);\r\n}\r\ninterface ITraits {\r\n    function mintBatch(\r\n        address to,\r\n        uint256[] memory ids,\r\n        uint256[] memory amounts\r\n    ) external;\r\n\r\n    function safeBatchTransferFrom(\r\n        address from,\r\n        address to,\r\n        uint256[] calldata ids,\r\n        uint256[] calldata amounts,\r\n        bytes calldata data\r\n    ) external;\r\n}\r\n\r\n\r\ncontract TraitsConstructor is ERC1155Holder, ReentrancyGuard, Ownable {\r\n    using Strings for uint256;\r\n\r\n    IApes public apesContract;\r\n    ITraits public traitsContract;\r\n    address public secret;\r\n\r\n    event Equipped(uint256 tokenId, string changeCode, address operator);\r\n\r\n    constructor(\r\n        address _apes,\r\n        address _traits,\r\n        address _secret\r\n    ) {\r\n        apesContract = IApes(_apes);\r\n        traitsContract = ITraits(_traits);\r\n        secret = _secret;\r\n    }\r\n\r\n    function equip(\r\n        uint256 tokenId, // Ape id to be modified\r\n        uint256[] memory traitsIn, // id of traits to be added\r\n        uint256[] memory traitsOut, // id of traits to be removed\r\n        uint256[] memory traitsOGOut, // id of original traits to be removed (need to be minted)\r\n        string memory changeCode, // internal code to process image change\r\n        bytes memory signature\r\n    ) external nonReentrant {\r\n        string memory traitCode; // Used to avoid unauthorized changes\r\n\r\n        uint256[] memory InAmounts = new uint256[](traitsIn.length); // create arrays with amount 1 for safeBatchTransfer\r\n\r\n        for (uint256 i = 0; i < traitsIn.length; i++) {\r\n            InAmounts[i] = 1;\r\n\r\n            traitCode = string.concat(traitCode, \"I\", traitsIn[i].toString()); // loop through traits to create traitCode\r\n        }\r\n        uint256[] memory OutAmounts = new uint256[](traitsOut.length); // create arrays with amount 1 for safeBatchTransfer\r\n\r\n        for (uint256 i = 0; i < traitsOut.length; i++) {\r\n            OutAmounts[i] = 1;\r\n\r\n            traitCode = string.concat(traitCode, \"O\", traitsOut[i].toString()); // loop through traits to create traitCode\r\n        }\r\n\r\n        uint256[] memory OGOutAmouts = new uint256[](traitsOGOut.length); // create arrays with amount 1 for safeBatchTransfer\r\n\r\n        for (uint256 i = 0; i < traitsOGOut.length; i++) {\r\n            OGOutAmouts[i] = 1;\r\n\r\n            traitCode = string.concat(\r\n                traitCode,\r\n                \"OG\",\r\n                traitsOGOut[i].toString()\r\n            ); // loop through traits to create traitCode\r\n        }\r\n\r\n        address tokenOwner = apesContract.ownerOf(tokenId); // Current owner of the Ape, allows SafeClaim equip/de-equip\r\n\r\n        require(\r\n            _verifyHashSignature(\r\n                keccak256(\r\n                    abi.encode(\r\n                        tokenId,\r\n                        traitCode,\r\n                        changeCode,\r\n                        msg.sender,\r\n                        tokenOwner\r\n                    )\r\n                ),\r\n                signature\r\n            ), // Checks validity of back-end provided signatre\r\n            \"Equip: Signature is invalid\"\r\n        );\r\n\r\n        if (traitsIn.length > 0) {\r\n            traitsContract.safeBatchTransferFrom(\r\n                msg.sender,\r\n                address(this),\r\n                traitsIn,\r\n                InAmounts,\r\n                \"\"\r\n            ); // batch transfer traits in, from user to this contract\r\n        }\r\n\r\n        if (traitsOut.length > 0) {\r\n            traitsContract.safeBatchTransferFrom(\r\n                address(this),\r\n                msg.sender,\r\n                traitsOut,\r\n                OutAmounts,\r\n                \"\"\r\n            ); // batch transfer traits in, from this contract to user\r\n        }\r\n\r\n        if (traitsOGOut.length > 0) {\r\n            traitsContract.mintBatch(msg.sender, traitsOGOut, OGOutAmouts); // batch mint original traits, from traits contract to user\r\n        }\r\n\r\n        apesContract.confirmChange(tokenId); // Confirm the change on Apes contract (burn - mint)\r\n\r\n        emit Equipped(tokenId + 10000, changeCode, msg.sender); // event emitted with new ID after burn - mint\r\n    }\r\n\r\n    function setContracts(address _apes, address _traits) external onlyOwner {\r\n        apesContract = IApes(_apes);\r\n        traitsContract = ITraits(_traits);\r\n    }\r\n\r\n    function setSecret(address _secret) external onlyOwner {\r\n        secret = _secret;\r\n    }\r\n\r\n    function _verifyHashSignature(bytes32 freshHash, bytes memory signature)\r\n        internal\r\n        view\r\n        returns (bool)\r\n    {\r\n        bytes32 hash = keccak256(\r\n            abi.encodePacked(\"\\x19Ethereum Signed Message:\\n32\", freshHash)\r\n        );\r\n\r\n        bytes32 r;\r\n        bytes32 s;\r\n        uint8 v;\r\n\r\n        if (signature.length != 65) {\r\n            return false;\r\n        }\r\n        assembly {\r\n            r := mload(add(signature, 32))\r\n            s := mload(add(signature, 64))\r\n            v := byte(0, mload(add(signature, 96)))\r\n        }\r\n\r\n        if (v < 27) {\r\n            v += 27;\r\n        }\r\n\r\n        address signer = address(0);\r\n        if (v == 27 || v == 28) {\r\n            // solium-disable-next-line arg-overflow\r\n            signer = ecrecover(hash, v, r, s);\r\n        }\r\n        return secret == signer;\r\n    }\r\n}\r\n",
  "sourcePath": "C:\\Testing\\contracts\\TraitsConstructor.sol",
  "compiler": {
    "name": "solc",
    "version": "0.8.18+commit.87f61d96.Emscripten.clang"
  },
  "schemaVersion": "3.4.11",
  "updatedAt": "2023-02-09T20:40:38.980Z",
  "devdoc": {
    "kind": "dev",
    "methods": {
      "owner()": {
        "details": "Returns the address of the current owner."
      },
      "renounceOwnership()": {
        "details": "Leaves the contract without owner. It will not be possible to call `onlyOwner` functions anymore. Can only be called by the current owner. NOTE: Renouncing ownership will leave the contract without an owner, thereby removing any functionality that is only available to the owner."
      },
      "supportsInterface(bytes4)": {
        "details": "See {IERC165-supportsInterface}."
      },
      "transferOwnership(address)": {
        "details": "Transfers ownership of the contract to a new account (`newOwner`). Can only be called by the current owner."
      }
    },
    "version": 1
  },
  "userdoc": {
    "kind": "user",
    "methods": {},
    "version": 1
  }
}